:020000040000FA
:1000000002033441009F044100A1004100A201C14C
:10001000074B0062000000000000000000000041EB
:1000200000600041005E09C10844006D000000004E
:100030004100610041005F044900710000000000C0
:10004000000000004A008A000000000000000000DC
:1000500000480094000000000000000050007A00FA
:100060000000000000000000000000000000000090
:1000700000002275A710E5CE132222021078E4902A
:10008000006DF09000A2E090006EF1D37402F022B7
:10009000222222021E1D75D1082222021F08E70912
:1000A000F608DFFA8046E709F208DFFA803E888228
:1000B0008C83E709F0A3DFFA8032E309F608DFFA60
:1000C0008078E309F208DFFA807088828C83E30984
:1000D000F0A3DFFA806489828A83E0A3F608DFFA5E
:1000E000805889828A83E0A3F208DFFA804C80D2AC
:1000F00080FA80C680D4806980F28033801080A628
:1001000080EA809A80A880DA80E280CA803389827F
:100110008A83ECFAE493A3C8C582C8CCC583CCF02B
:10012000A3C8C582C8CCC583CCDFE9DEE7800D89D2
:10013000828A83E493A3F608DFF9ECFAA9F0EDFBD9
:100140002289828A83ECFAE0A3C8C582C8CCC58321
:10015000CCF0A3C8C582C8CCC583CCDFEADEE8807A
:10016000DB89828A83E493A3F208DFF980CC88F0EC
:10017000EF60010E4E60C388F0ED2402B40400501D
:10018000B9F582EB2402B4040050AF232345822347
:100190009000EE73BB010689828A83E0225002E759
:1001A00022BBFE02E32289828A83E49322BB010CF4
:1001B000E58229F582E5833AF583E0225006E925B8
:1001C00082F8E622BBFE06E92582F8E222E58229D2
:1001D000F582E5833AF583E49322C5F0F8A3E0289D
:1001E000F0C5F0F8E582158270021583E038F02240
:1001F000BB0110E58229F582E5833AF583E0F5F04D
:10020000A3E0225009E92582F886F008E622BBFE29
:100210000AE92582F8E2F5F008E222E5832AF5836F
:10022000E993F5F0A3E99322EB9FF5F0EA9E42F003
:10023000E99D42F0E89C45F022E0FCA3E0FDA3E04C
:10024000FEA3E0FF22E0F8A3E0F9A3E0FAA3E0FBBD
:1002500022ECF0A3EDF0A3EEF0A3EFF022A882854C
:1002600083F0D083D08212027412027412027412CC
:100270000274E473E493A3C583C5F0C583C8C58243
:10028000C8F0A3C583C5F0C583C8C582C822E0FBFA
:10029000A3E0FAA3E0F922EBF0A3EAF0A3E9F0224D
:1002A000BB010789828A8302028E5005E9F80203A6
:1002B00016BBFE05E9F802031F89828A8302032820
:1002C000BB010DE58229F582E5833AF58302028EB2
:1002D0005007E92582F8020316BBFE07E92582F8DC
:1002E00002031FE58229F582E5833AF5830203289C
:1002F000D083D082F8E4937012740193700DA3A39D
:1003000093F8740193F5828883E4737402936860B0
:10031000EFA3A3A380DFE6FB08E6FA08E6F922E2F2
:10032000FB08E2FA08E2F922E493FB740193FA7401
:100330000293F922120072787FE4F6D8FD758121CC
:1003400002037E020715E493A3F8E493A34003F6A7
:100350008001F208DFF48029E493A3F85407240C09
:10036000C8C333C4540F4420C8834004F4568001EA
:1003700046F6DFE4800B0102040810204080900064
:1003800003E47E019360BCA3FF543F30E509541F92
:10039000FEE493A360010ECF54C025E060A840B8EE
:1003A000E493A3FAE493A3F8E493A3C8C582C8CA6C
:1003B000C583CAF0A3C8C582C8CAC583CADFE9DE3F
:1003C000E780BE04030904011E0348616E644865AA
:1003D0006C644C6567656E64000108034841580011
:1003E0000112035849205769726564000501090527
:1003F000A10185010901A10009300931150027FF7C
:10040000FF0000950275108102C00901A1000933A7
:100410000934150027FFFF0000950275108102C006
:1004200005010932150026FF039501750A810215A1
:100430000025007506950181030501093515002683
:10044000FF039501750A81021500250075069501C7
:10045000810305010939150125083500463B016670
:10046000140075049501810375049501150025009C
:10047000350045006500810305091901290A1500A9
:1004800025017501950A8102150025007506950163
:100490008103050109808502A10009851500250158
:1004A00095017501810215002500750795018103ED
:1004B000C0050F09218503A10209971500250175C3
:1004C0000495019102150025007504950191030919
:1004D0007015002564750895049102095066011095
:1004E000550E150026FF0075089501910209A71504
:1004F0000026FF0075089501910265005500097CF2
:10050000150026FF00750895019102C085040506B7
:100510000920150026FF00750895018102C012010F
:10052000100103FFFF405E04130B7205010200017E
:100530000902290001010080FA09040000020300F9
:100540000000092111010001223201070581034049
:10055000000207050203400004FF03C3FF03C7FFB7
:1005600003E0FF03D9FF051EFF0530FF0559040412
:10057000030904011E0348616E6448656C644C65A0
:1005800067656E6400010803484158000112034486
:10059000492057697265640005010905A10115002C
:1005A0002501350045017501950E05091901290E32
:1005B00081029502810105012507463B01750495DD
:1005C0000165140939814265009501810126FF000A
:1005D00046FF0009300931093209350933093475FC
:1005E0000895068102750895018101050C09001521
:1005F00080257F75089540B102C0120110010000EE
:100600000040D62013A700010102000109022200C8
:1006100001010080FA090400000103000000092123
:100620001101000122620007058103400002FF055D
:100630006FFF0573FF058CFF0585FF05FAFF060CAC
:10064000FF062E0404030904011E0348616E64487A
:10065000656C644C6567656E640001080348415829
:10066000000112034E5320576972656400050109A9
:1006700005A10115002501350045017501950E05FF
:10068000091901290E8102950281010501250746FC
:100690003B01750495016514093981426500950196
:1006A000810126FF0046FF00093009310932093572
:1006B000750895048102750895018101050C0900F2
:1006C0001580257F75089540B102C0120110010008
:1006D000000040D62013A7000101020001090222F8
:1006E0000001010080FA0904000001030000000974
:1006F0002111010001225E0007058103400002FF75
:100700000644FF0648FF0661FF065AFF06CBFF06B8
:10071000DDFF06FF04F1739000A27401F0C2AF7513
:10072000A72053BAFE43BA44D2AF3008FDF133C21A
:100730000880EA900062E014600714600B800001FA
:100740007E900063E0FF805678717C007D017B0124
:100750007A0079637E007F09316E9000A1E0146019
:100760000B14600B14600B80000221C4022265127E
:1007700023A52290003AE5A7F0120CA51210221230
:1007800010651190121054119612102C121038127C
:100790001058121042117A90003AE0F5A7227E011B
:1007A000E490003AF0EF14601414601114601480A7
:1007B00000900064E0FF121CC8AE07800DF1DDE47C
:1007C000FE8007F1DDE4FE43EF1090006DEEF1D303
:1007D00004F022F0E4900061F090005F22120F8A92
:1007E000121FB6E4FF90004EEFF0900003E090007F
:1007F0004FF0C3940574809480400E90004EE094B6
:1008000005748094805002119490004EE0FD6405C0
:100810007006A3E0900004F090004EE0FE9000030C
:10082000F090004FE0FF6E6002112C22900050EF1C
:10083000F0A3EDF0640670079000A2F0FF80229014
:100840000051E0FF7E00640170069000A204F022D7
:10085000EF64054E6004EF4E70069000A27401F044
:1008600022EF600EC3748094805007E490009CF0E7
:10087000800590009CEFF090009CF1A89480400CC3
:10088000EF25E0FEE433A3F0A3CEF022E490009D38
:10089000F0A3F022900051E5A7F01200739203F14B
:1008A0008A9000507401F0900050E0FFC3940574EA
:1008B000809480500A11CF900050E004F080E8301E
:1008C000030675A71043CE01900051E0F5A72290D2
:1008D0000052EFF0E4900055F0A3E5A7F09000522D
:1008E000E06009C3940574809480400890005574BA
:1008F000FCF080541200739204F18A900052E0756B
:10090000F007A4240EF9740035F0FEAF01A3F179CD
:1009100064016034900052E024FE600E14601114F3
:100920006012240370137F0180027F02F1EF8009BF
:100930007F0180027F02121F82900053F1603166B6
:100940007401F0EF3164E4F030040675A71043CE73
:1009500001900056E0F5A7900055E0FF2290004D71
:10096000E0FEA3E02406F582E43EF5832290004DEC
:10097000EEF0A3EFF0A374FDF07163F1916002411A
:1009800093EF911E600241937163E0541F64016014
:10099000024193A3E024FA60026153F129F13FA3DD
:1009A000E064227077ED2404F131E0FEA3E0600200
:1009B0006153EE600261539000A1E0146022146064
:1009C0003C80007BFF7A057998315D715C9462EE22
:1009D0009400400A7C007D627E007F62803A80380D
:1009E0007BFF7A06796D315D715C945EEE94004018
:1009F0000A7C007D5E7E007F5E8000801B7BFF7A2C
:100A00000379EC315D715C9432EE9401400A7C0113
:100A10007D327E017F328000716F611EF129F13FCE
:100A2000A3E0642160026153ED2404F131E0FEA3F0
:100A3000E060026153EE600261539000A1E0146037
:100A40001E14603480007BFF7A06791E315D715C74
:100A50009409EE94004006D1777F09803280307B84
:100A6000FF7A0679EF315D715C9409EE94004006DF
:100A7000D1777F09800080177BFF7A057942315D4D
:100A8000715C9409EE94004006D1777F0980007173
:100A90006F611E7163F191640160026153EF541F35
:100AA000640160026153F198FF24043166E0FCA305
:100AB000E04C600261538F828E83A3E024FE60606D
:100AC00024F8603E04600261537163A3A3E0FCA3B9
:100AD000E0FDEC6402707CED707990004DA3E0FFC6
:100AE0003164E0FCA3E064014C70688F828E83E087
:100AF000911E605FF1DEF0A304F0D203E4FF9127C2
:100B0000804C90004D919BA3A3A3E07046EF31640D
:100B1000E0FEA3E04E703C7163E0911E6035802ED4
:100B200090004D919BA3A3E0FCA3E04C7025EF3116
:100B300064E0FEA3E064014E70197163911C7013B0
:100B4000F1E99000A0EFF0F1DEF0A3047176E490FB
:100B5000004FF090004FE0FF2290001FE0FEA3E066
:100B6000FFD32290004DE0FEA3E0F5828E83229019
:100B70000054EEF0A3EFF0C203E4FF900050EFF05A
:100B8000A3F1C9900050E024FD500580007FFC22B5
:100B9000900050E0FE6007F13860037FF722EEF12D
:100BA00068FF6401600AEF64057FFE706E7FFB22C0
:100BB0009187F1A0FCA3E0FDF1B8ECF15931667426
:100BC00002F1B0FBEF3164E054FE4BF0900050E0D6
:100BD00014601014602524027036900014E0440460
:100BE000F0802DD3ED9440EC940040047D408006CD
:100BF000900054A3E0FD121CBD8013900054715C62
:100C00009440EE9400AD0740027D40121CB291FA70
:100C100030040675A71043CE01F1C022E0FFC413D3
:100C200013135401640122900051F1C9EF600C24A8
:100C3000FD600814600580007FFC22EF6007F1383A
:100C400060037FF722EFF168FF6401600AEF64053B
:100C50007FFE70327FFB229187F1A0FDA3E0F1B807
:100C6000CDF15931667403F1B0FDEF3164E054FE0B
:100C70004DF09000563160E054F7F030040675A74F
:100C80001043CE01F1C022120073920475A71053D5
:100C9000CEFE90005112028E900056E0FEA3E0FFBF
:100CA000F5828E8322E4F5A77597A590003B12028A
:100CB0005D00000000E47F19FEFDFC90003B120285
:100CC00045C3120228501C0090003B120239EF2449
:100CD00001FFE43EFEE43DFDE43CFC90003B1202DB
:100CE0005180D2A2AF9200C2AF7597DE7597ADA2C8
:100CF0000092AF22C2057D01E4FF900059EFF0A3FE
:100D0000EDF0A3120297E5AE20E7FB900059E04416
:100D100020F5AE90005BE01460132403601A1460A9
:100D200020147026B169AD01122112801DB169AC89
:100D300002AD011221648012B169AD0112217A80E5
:100D400009B169AC02AD0112218E30051B9000592A
:100D5000F1A894804012F14E75AE91E5AE20E7FB0C
:100D600043AF01E5AE20E7FB2290005AE0FFA3026B
:100D7000028E1225C0900011E0FEA3E0FFC3944054
:100D8000EE940040047F40800090004DEFF0A3F00F
:100D900090000DE0FF547F64017057EF911E7024A6
:100DA000A312028EC2057D02E4FF91FA90000FE4C7
:100DB00075F0021201DA90004DE024FEF090000D73
:100DC000E0547FF0E490004FF090004DE0C313FF3B
:100DD00090004FE0C39F5030F1D891F490000F1273
:100DE00025C87BFF7A00797091F490004FE004F001
:100DF00080D7F1D3C205E4FF91FA90004DE0FF9057
:100E0000000FE48FF01201DA900014E054FBF09030
:100E1000004EE0FFC3900012E09FFF900011E094AD
:100E200000FEF0A3EFF04E7022900014E0C45401D5
:100E3000701975AE1175AF0AE5AE20E7FB1212937B
:100E4000E490000DF0900014F0801C75AE1175AFA9
:100E500002E5AE20E7FB900011E07002A3E070070E
:100E6000900014E054EFF030030C90004E121C5828
:100E7000E4FDFF121990227C007D097E0022900083
:100E80004FEFF0900051120297900050EDF0D39484
:100E90000074809480403FE5AE20E7FB90004FE077
:100EA000FE44E0F5AE900051E01460142403601C91
:100EB00024FE7022900050B16CAD01AB060220F50B
:100EC000900050B16CAC02F146022126900050B166
:100ED0006CF14612214A2290004D7400F0A3740573
:100EE000F0F198AA06F97B017D08E4FFD17E7163D9
:100EF000A3A3F120F13FA3EEF0A3EFF0ED2404F162
:100F00001AFD2404F131EEF0A3EFF0ED2406F11AFE
:100F10002406F131EEF0A3EFF022F582E43CF583F4
:100F2000E0FCA3E0FAECFFEAFE90004DE0FCA3E059
:100F300022F582E43CF58322900003E0640622FD62
:100F4000F5828C83A322AD0190004FE0FB2275AEA9
:100F50000E8FAFE5AE20E7FB22F0A3EDF090005638
:100F6000E0FEA3E0FF24052275F007A4240EF97427
:100F70000035F0FEAF01900056F0A3EFF08E832411
:100F800005F582E43583F583E02275A71053CEFE84
:100F900022E0FFC41354032290004DE0FEA3E022A0
:100FA000120297900054E022E0FFD3940074802254
:100FB000F0A203E4335401228F828E83A3A3A322E1
:100FC000900058E0F5A77F0022120297900058E5A4
:100FD000A7F02290004DE0FD90000E02028E7B01F2
:100FE0007A0079A0900054E42290009CE0FF22F166
:100FF0004E75AE1175AF08E5AE20E7FB75AE91E515
:10100000AE20E7FBE5AF20E3F375AE1175AF08E561
:10101000AE20E7FB75AE91E5AE20E7FBE5AF20E340
:10102000F32275C90875A72075C6842243B180E5EF
:10103000B15440644070F822E4F5A9E5A9548060F9
:10104000FA22E4F5A775E60175A71075CE09F5A794
:1010500075A8802275E3402275A72075BD4543BA67
:101060001843BA0222E4F5A77580FE75A401229008
:10107000004CEEF0A3EFF022C0E0C0F0C083C082CD
:10108000C0D075D000C000C001C002C003C004C001
:1010900005C006C007120091121F18900048EFF01B
:1010A000121F23900049EFF0121F2E90004AEFF01C
:1010B000121F3990004BEFF0900048E030E34D31C3
:1010C00087116F900014E0FF3180700431AC600E26
:1010D000EF120C20700F900013E064027007900074
:1010E00049E04401F0900029E03180700BF1177065
:1010F0000790004AE04402F0900030E0FF31807039
:101100000BF110700790004AE04404F0900048E0B2
:1011100030E2027126900048E030E1031221A590F0
:101120000048E030E0031220E7900049E030E2039D
:101130001219A6900049E030E103121A2D90004ADE
:10114000E030E203121BA390004AE030E103121AE0
:10115000E5900049E030E00231B390004BE0FF122F
:101160000F4E120092D007D006D005D004D003D085
:1011700002D001D000D0D0D082D083D0F0D0E032E5
:10118000C31354016401227F0DAD07ED4480F5AE19
:10119000E5AE20E7FBAFAFEF7F00FEED144480F536
:1011A000AEE5AE20E7FBADAFEF4DFF22900013E0C0
:1011B00064032290004C74FDF0E4FF120F4E121FE6
:1011C000514005121F44501B75AE11E4F5AFE5AE5A
:1011D00020E7FB75AE1175AF80E5AE20E7FB5193BC
:1011E000E4A3F0121F5E40024182900014E0FF125F
:1011F0000C1F7003EF417F900013E0640170749046
:10120000000DF0120ED77E007F0512096D90004C84
:10121000EFF03395E0FEBEFF12BFFD0F9000051208
:101220000F91700791D990004CEFF0E4FF120F4E30
:1012300090004C12190C703690000BE07002A3E085
:10124000700D75AE1175AF48E5AE30E73580F971B8
:1012500056E5AE20E7FB900005E0FFC413131354DE
:1012600001701F31AC601BA3E04408F08014122110
:10127000AD800F31AC7004519A8007900014E044A7
:1012800002F0900013E064027008121F6A4003121B
:101290000D72229000137401F0221225C0121F77E4
:1012A00090004DEFF0C3900012E09F900011E09489
:1012B00000500F5193A3E04402F090004E74F2F0FE
:1012C0008050120FD3E4FF120E7E90004DE0FFFD20
:1012D0007C0090000F121C6CC3900012E09DFD90EA
:1012E0000011E09CFCF0A3EDF0E490004EF0ED4C1A
:1012F0007019EF6440601475AE1175AF48E5AE200B
:10130000E7FB5193A3E054FEF080077156E5AE2051
:10131000E7FB30031090004EE0FD90004D121C588A
:10132000E4FF12199022519390001A7406F1F4F020
:1013300075AE0F75AF8FE5AE20E7FB121DF8E5AE79
:1013400020E7FB75AE0B75AF0FE5AE20E7FB7F0323
:101350001207E502009A75AE1175AF4022AE07E4A0
:10136000FB120F4E300513A8067E0074100880058E
:10137000C333CE33CED8F9FF8013AF067E0074207E
:10138000A807088005C333CE33CED8F9FFD3ED9F2D
:10139000EC9E5004EB4480FB300604EB4440FB30F1
:1013A000041DEB4420FB3005034404FB7156E5AEFD
:1013B00020E7FB75AE128BAFE5AE30E72780F975FD
:1013C000AE1475AF80E5AE20E7FB75AE15AF038FA9
:1013D000AFE5AE20E7FB20050B75AE12E4F5AFE5F7
:1013E000AE20E7FB2230030890001A7401F1F4F0FC
:1013F000D204910C7F01715DD204910C7F0291089F
:101400007F0191087F02615D715DC204D205C20651
:101410007D407C0022121985600281BF900005E0AA
:10142000541F600281BF90000BE07002A3E06002D5
:1014300081BF900009E07002A3E0600281BFF1E982
:10144000703E91C5601490003412028E9000051217
:1014500001ADFDEF6D7001EE706591CF900034121B
:10146000028E9000051201ADFF900007E0B4000E5F
:10147000A3E0B50709D20371E57F061207E5803ABC
:10148000120F38703A91C5601790003412028E9096
:1014900000051201ADFD7C00EFB50523ECB5061F7C
:1014A00091CF900007E07002A3E0700A7F0412075A
:1014B000E51208948004C20371E5E490004DF090B9
:1014C000004DE0FF22900007E0FEA3E0FF4E2290D7
:1014D0000007A3E0900000F022E4FF900006E01275
:1014E00002F0150100150401150603150905150C78
:1014F00006150E0815100915120A15140B00001513
:10150000170218038014021FC1021915A1FFE19DE3
:101510008115E1260220AE7FFF2290004D74FFF07E
:1015200090000BE07002A3E06002A1F91225B76001
:101530003624026002A1F9900009E07002A3E06085
:1015400002A1F9900007E07004A3E064016002A129
:10155000F9900003E0C39404748094805002A1F9D0
:10156000E4900001F08022900007E07002A3E060A8
:1015700002A1F9F11E547FFF4E7014900003E0C3E6
:101580009404748094804007E490004DF0806A12C7
:1015900020925065120F38706012209A30E7077160
:1015A00056E5AE20E7FB90000AE020E71875AE9400
:1015B000E5AE20E7FB53AFDFE5AE20E7FB43AF80AE
:1015C000E5AE20E7FB90000AE024FE601124816074
:1015D0001314601A24817021F117601D8018F11016
:1015E0006017801290001AE06402600D800890007D
:1015F00021E0640260037401F090004DE0FF22E4FA
:10160000FDFC90005174FFF0900005E064806002E2
:10161000E101900007E0FAA3E090004DF0EAFFE45A
:101620006002C1DEEF24FE602414604424026002E4
:10163000C1DE90004DE06002C1DE900031F1079004
:10164000003112028E1201947C00FDC1DE90004D2B
:10165000E06002C1DE900034F10790003412028E87
:101660009000021201F0FAE5F0FFEAFCEFFD806E57
:1016700090003712028E90004DE0FF75F003A4F544
:101680008285F0831202C0F10AEF700CFC7D049099
:10169000000DE05480F08046F11EFF4E600AEF64BA
:1016A000097003EE64047036900002E0FF90004D74
:1016B000E0C39F5029A312028E9000011201AD7C5D
:1016C00000FD120194547FFF90000DE054804FFF05
:1016D000F090004F1225C8EF448090000DF0ED4CC3
:1016E000601F90000BE0FEA3E0FFC39DEE9C500442
:1016F000AC06AD0790004E12028EF167E4900051E7
:10170000F0900051E0FF2212028E90004E020297EC
:1017100090002FE0640322900028E06403229000F0
:1017200009E0FEA3E022F11EFF7DFFC39402EE94C8
:1017300000502AA3E07004A3E06401702090000729
:10174000E07002A3E07016900005E06481700E1254
:101750000F3870097BFF7A007970F160FDAF0522C8
:101760007D01FCF167E422900013E06401702D908C
:10177000000E120297900011ECF0A3EDF0A374029A
:10178000F0E4A3F0ED543F701390000BE06C700395
:10179000A3E06D6007900014E04410F0227FFF90FA
:1017A0000009E07002A3E0703F900007E07002A320
:1017B000E0703590000BE07004A3E06401702990A4
:1017C0000005E0FE120C1E701FEE541F701AF1E9A6
:1017D00070087BFF7A007970800B120F3870097BDC
:1017E000017A007900F160FF22900003E064042296
:1017F0007F172189F0900021F0900028F090002FB1
:1018000022C32290004D74FFF090000BE07004A3FF
:10181000E06402600201FA900007E07002A3E06059
:101820000201FA900005120C1C600201FA900003FC
:10183000E0C3940474809480500201FAE49000A301
:10184000F0A3F0EF541F14603514604324026002CB
:1018500001EA900009E07002A3E0600201EA900052
:1018600001E0600A9000A3E04402F0A3E0F011015F
:10187000504C9000A3E04401F0A3E0F08040C390FE
:10188000000AE09402900009E09400505D802F125D
:10189000171EFF547F4E70071217E970028047121F
:1018A0000F387046EF24FE60182481602114602BED
:1018B00024817036900028E0640670023100E480D4
:1018C0002590002FE0640670023100E4801890003B
:1018D0001AE0640670023100E4800B900021E0649D
:1018E0000670023100E490004DF03109700C7B016C
:1018F0007A0079A37D02FC12176790004DE0FF2269
:101900009000A304F0A3E4F02290004DE0FF339593
:10191000E0FEEF4E223185FEA3E0FFC39480EE94FB
:1019200000505C90000BE07002A3E0705290000544
:10193000E0541F704A900009E07002A3E0704090EC
:101940000003E06403700BEF4E601B7F041207E599
:1019500080141217E97014900007E07002A3E07081
:10196000057F031207E5E490004DF031097010F592
:10197000AE900007A3E04480F5AFE5AE20E7FB9012
:10198000004DE0FF2290004D74FFF0900007E02230
:10199000900051EDF0A3EAF0A3EBF0EF64017002C8
:1019A000D207E4FEFF227F02120F4E51CB500D757D
:1019B000AE11E4F5AFE5AE30E77280F9900021E0BA
:1019C00064027068120B599440EE940040047F400A
:1019D000800051C2900020E09FF090001FE09EF038
:1019E00090001DEE8FF01201DA900022E0139203B6
:1019F000120B599400EE9400401551BA40047D40FA
:101A0000800690001FA3E0FD91B2120CFA800D90A9
:101A10000022E054FEF09000217401F030030D51DB
:101A2000DD90001F915FE4FD7F023190227F011263
:101A30000F4E51CB500D75AE11E4F5AFE5AE30E76A
:101A40007880F990001AE06402706E900018120B12
:101A50005C9440EE940040047F40800051C29000AE
:101A600019E09FF0900018E09EF0900016EE8FF0C5
:101A70001201DA90001BE0139203900018120B5C25
:101A80009400EE9400401551BA40047D40800690C9
:101A90000018A3E0FD91BD120CFA800D90001BE030
:101AA00054FEF090001A7401F030030D51DD9000E7
:101AB00018915FE4FD7F01319022D3EF9440EE94C2
:101AC000002290004CEFF07E00C32275AE91E5AE8F
:101AD00020E7FBE5AFA2E52290004DE0FD90004C31
:101AE000E0FB7A0022C2037F01120F4E919850143E
:101AF00075AE94E5AE20E7FB53AFBFE5AE20E7023D
:101B0000619980F7918C4002619991831217176057
:101B100007719A74F9F080649172900027E09F90A9
:101B20000026E09400500D9000287401F0719A7422
:101B3000F2F0804890002312028E7F01120E7E90F8
:101B4000002991A5C3900027E09DF0900026E09C1D
:101B5000F0900024916C900026E07002A3E06005F4
:101B6000EF644060089000287401F0D203917AE598
:101B7000AE20E7FB53AFFEE5AE20E7FB900029E087
:101B8000FF540164017012300304EF54FEF051D889
:101B9000900026915F7F03319022A3E04402F090F1
:101BA000004D22C2037F02120F4E9198501475AE61
:101BB00094E5AE20E7FB53AFBFE5AE20E7028157C7
:101BC00080F7918C40028157918312171060077142
:101BD0009A74F9F08064917290002EE09F90002D2D
:101BE000E09400500D90002F7401F0719A74F2F09F
:101BF000804890002A12028E7F02120E7E900030E2
:101C000091A5C390002EE09DF090002DE09CF090F7
:101C1000002B916C90002DE07002A3E06005EF6452
:101C200040600890002F7401F0D203917AE5AE2055
:101C3000E7FB53AFFEE5AE20E7FB900030E0FF543A
:101C40000164017012300304EF54FEF051D890008B
:101C50002D915F7F04319022E0FB7A00900011E02B
:101C6000FFA3E0900054CFF0A3EFF022EC8DF00240
:101C700001DA90004CE0FDFFC322E490004DF075C6
:101C8000AE94221217F090004CEFF02275AE94E55E
:101C9000AE20E7FBE5AF132275AE94E5AE20E7FB7F
:101CA000E5AFA2E622E054FDF090004CE0FFFD7CA1
:101CB000002290001C12028ED2057F022290001595
:101CC00012028ED2057F0122E4FE90003B04F0EF69
:101CD00014602414603214604D80007BFF7A067912
:101CE0003AB1DFFD7C0060028043ED4C7050900003
:101CF000A1F090003B8044B1D9FD7C006002802DB2
:101D0000ED4C703AB1EE80337BFF7A057965B1DF37
:101D1000FD7C0060028016ED4C702390003BF0903B
:101D200000A174028015B1D9FD7C00600890003BD1
:101D30007401F08009ED4C7005B1EEF0D20790000F
:101D40003BE0FF2290003C12029790003FE5A7F095
:101D5000120F8AB1F7E4FFEFC3943A748094805075
:101D60000F74002FF582E43400F583E4F00F80E770
:101D7000B1E81202A0900031B1E59000031202C058
:101D8000900034B1E59000061202C0900037B1E532
:101D90009000091201AD900002F0B1FF43B320752D
:101DA000A72053B57F75AE0175AF08E5AE20E7FB00
:101DB00075AE0B75AF0FE5AE20E7FBD109900003C0
:101DC0007403F075A71043CE0190003FE0F5A7B172
:101DD000F8E5AE20E7FB7F00227BFF7A07790BB1A5
:101DE00044AE07EE2212029790003C02028E900051
:101DF0003BF09000A104222275AE0175AF0122755F
:101E0000A72053B5F875A72022AFA712129375A784
:101E10002043B38075A72043B3408FA722C0E0C002
:101E200083C082C0D075D000C000E5B9540F120243
:101E3000F01E60011E77021E81041E4A091E560A0A
:101E40001E7C0C1E7C0D00001E8453B9F6900061B0
:101E5000E4F0D1F4802E53B9F5900060E4F08024D2
:101E6000E5B954106410700553B9EF800590006116
:101E7000D1F453B9FE800D53B9FD800853B9FB80EE
:101E80006853B9FBE5AB5404705C900060E02462D9
:101E9000F582E43400F583E5BCF0900060E0702C3E
:101EA000900062E0601814600D14601A80009000C9
:101EB0005E7402F0801690005E7403F0800E900055
:101EC0005E7401F0800690005E740AF0900060E09D
:101ED00004F090005EE014F0E070A92008A6D2089B
:101EE000900060F0809E53B9DFD000D0D0D082D077
:101EF00083D0E032E0246DF582E43400F583E0F530
:101F0000BB900061E004F02275A72053BAFD43BAEC
:101F10000275A71053987F3275AE86E5AE20E7FBB9
:101F2000AFAF2275AE82E5AE20E7FBAFAF2275AE54
:101F300084E5AE20E7FBAFAF2275AE8EE5AE20E7BD
:101F4000FBAFAF2275AE91E5AE20E7FBE5AFA2E4B3
:101F50002275AE91E5AE20E7FBE5AFA2E22275AEB9
:101F600091E5AE20E7FBE5AF132275AE91E5AE201B
:101F7000E7FBE5AFA2E12275AE96E5AE20E7FBAF49
:101F8000AF22120F4E75AE1475AF10E5AE20E7FB11
:101F900075AE94E5AE20E7FBE5AF20E4F375AE1433
:101FA00075AF10E5AE20E7FB75AE94E5AE20E7FB1C
:101FB000E5AF20E4F322AFA775A72053B37F8FA727
:101FC0002290004D74FFF090000BE07002A3E060DF
:101FD000030220851225B7603124026003022085A8
:101FE000900009E07002A3E06003022085900007E2
:101FF000E07004A3E064016003022085120F3860E2
:1020000002018590000104F0801612171E547FFF14
:102010004E7014900003E0C39404748094804007D1
:10202000E490004DF0805E1192505A900007E070ED
:1020300002A3E07050120F38704B119A30E707116D
:102040008BE5AE20E7FB90000AE020E71075AE9428
:10205000E5AE20E7FB43AF20E5AE20E7FB90000AAA
:10206000E024FE6010248160111460132481701537
:10207000900028800D90002F800890001A80039017
:1020800000217406F090004DE0FF2275AE1175AF8F
:102090001022C3EF9405EE94002290004DF09000C2
:1020A00009A3E0547FFF120F4E90000AE0227FFF49
:1020B000900009A3E0FE900007A3E0FDEE11DF50C1
:1020C0001D120F38701890000BE07002A3E0700E24
:1020D000ED700B900005E0541F64017001FF22C3F6
:1020E00094027480948022900003E011DF40057F09
:1020F000051207E522A8051FEF600AE5AE20E7FB01
:10210000A6AF0880F2E5AE20E7FBEB4420F5AEA6D3
:10211000AF22A805AE071FEE600BE5AE20E7FBE699
:10212000F5AF0880EF228D828C831FEF600BE5AE48
:1021300020E7FBE5AFF0A380F1E5AE20E7FB3142FD
:10214000F022EB4420F5AEE5AF22A8051FEF600BAF
:10215000E5AE20E7FBE5AFF20880F1E5AE20E7FB56
:102160003142F2228D828C83AE071FEE600BE5AE0A
:1021700020E7FBE0F5AFA380EF22A805AE071FEE36
:10218000600BE5AE20E7FBE2F5AF0880EF228D8221
:102190008C83AE071FEE600CE5AE20E7FBE493F501
:1021A000AFA380EE22900004E0FF0207E5E4FF12F7
:1021B0000F4E9000137405F075AE1175AF60E5AE6B
:1021C00020E7FB22B15F90008AB19490008A719A57
:1021D000EF54FE515CB149FF90008AB105515C5447
:1021E0000251FC54BF4DFF90008AB17D5407FE9010
:1021F000008B51E054DF4DFF90008B514FB154FFE5
:1022000090008BB16CE090008DF0900075E0900034
:102210008EF0900076E090008FF0900077E09000D4
:1022200090F0900078E0900091F0900079E09000BC
:1022300092B113300718C2077B017A00798A9000A7
:1022400054E4F0A3740AF0D2037F01120B7B22F056
:10225000EE540233333354F8FEEF54EF4EFFF09058
:102260000072E0FE22B15F900094B19490009471EE
:102270009AEF54FE515CB149FF900094B105515C56
:10228000540251FC54BF4DFF900094B17D5407FEA1
:1022900090009551E054DF4DFF900095514FB1549F
:1022A000FF900095B16CE0900097F0900075E09081
:1022B0000098F0900076E0900099F0900077E09020
:1022C000009AB113300718C2077B017A0079949005
:1022D0000054E4F0A37408F0D2037F01120B7B22B8
:1022E000E054FE4EFEF0EF5410131313541FFFEE94
:1022F00054FD4FFFF0900073E0FE5401C43354E0EE
:10230000FDEF22EF14604380007E08ED640270133D
:102310007E02719170031E8075E5824583706F7E29
:1023200003806BED70137E06719170030E805FE584
:1023300082458370597E05805571917003FE804EF1
:10234000E582458370487E048044E4FEED640270BB
:10235000137E03719170031E8034E5824583702ED5
:102360007E04802AED70157E07EBFD7C0064027010
:10237000030E801AED4C70167E068012EBFD7C0079
:10238000640270047E018006ED4C70027E05AF068B
:1023900022EBF582758300640222F0EE5440C413F0
:1023A000135403FE2290007A7401F0900071E0FF54
:1023B0005480719E900088E054FD4EFEF0EF542052
:1023C000C4135407FFEE54FE4FFFF0900071E0FE7F
:1023D0005410C313FBEF54F74BFF900088F0EE54FA
:1023E00040C4540FFEEF54FB515C5401C454F0FB45
:1023F000EF54EF4BFF900088B1054EF0900072E073
:10240000FB30E10790008391F28012900078E07534
:10241000F004A4FF900083E5F0F0A3EFF0EB30E3CD
:102420000790008591F28012900079E075F004A485
:10243000FF900085E5F0F0A3EFF0900072E0FF540C
:102440001033333354F8FE900088E0547F4EFEF092
:10245000EF542025E0FFEE54BF4FF0900072E0FFF4
:10246000719C900089E054FE4EFEF0EF5480C4133E
:10247000135403FFEE54FD4FF0900074E0FF900002
:102480007BE4F0A3EFF0900075E0FF90007DE4F0B6
:10249000A3EFF0900076E0FF90007FE4F0A3EFF070
:1024A000900077E0FF900081E4F0A3EFF0900071DE
:1024B000E0FF1391FA13131354012EFDE0FFC391B3
:1024C000FA54012EFCFB7F017103EF540FFF9000C3
:1024D00087E054F04FF0300718C2077B017A00798B
:1024E0007A900054E4F0A37410F0D2037F01120B31
:1024F0007B227403F0A374FCF022135401FEC37416
:10250000019EFEEF22F0EE540433333354F8FEEF15
:1025100054DF22F0900071E0FF13135401FEC374E6
:10252000019EFEEF13131354012EFFE0FEC313545C
:1025300001FDC374019DFDEE54012DFEAD07FBE4CA
:10254000FF7103900096EFF0225401C454F0FDEFA8
:1025500054EF4D225440C4540FFDEF54FB4D2290D4
:102560000071E0FF5480C4135407FE22F0EE548043
:10257000C4540FFEEF54F74EF090007422F0EE5466
:1025800008C454F0FEEF547F4EF0900072E0FF5408
:1025900020C41322E054FB4EFEF0EF5420C4540F2D
:1025A000FFEE54FD4FFFF0900071E0FE5410C31396
:1025B000FDEF54F74DFF22900005E0541F24FE224A
:0F25C000900014E013920322E475F0010201DA97
:00000001FF
