:020000040000FA
:1000000002033441009F044100A1004100A201C14C
:10001000074B0062000000000000000000000041EB
:1000200000600041005E09C10844006D000000004E
:100030004100610041005F044900710000000000C0
:10004000000000004A008A000000000000000000DC
:1000500000480094000000000000000050007A00FA
:100060000000000000000000000000000000000090
:10007000000022222275D10822222202085BE4908D
:10008000006DF09000A2E090006E1225FD7402F069
:0A00900022222202194A75E34022E1
:10009B00021A9DE709F608DFFA8046E709F208DF46
:1000AB00FA803E88828C83E709F0A3DFFA8032E383
:1000BB0009F608DFFA8078E309F208DFFA80708826
:1000CB00828C83E309F0A3DFFA806489828A83E060
:1000DB00A3F608DFFA805889828A83E0A3F208DF4F
:1000EB00FA804C80D280FA80C680D4806980F280FE
:1000FB0033801080A680EA809A80A880DA80E28024
:10010B00CA803389828A83ECFAE493A3C8C582C878
:10011B00CCC583CCF0A3C8C582C8CCC583CCDFE9E2
:10012B00DEE7800D89828A83E493A3F608DFF9EC7E
:10013B00FAA9F0EDFB2289828A83ECFAE0A3C8C509
:10014B0082C8CCC583CCF0A3C8C582C8CCC583CC30
:10015B00DFEADEE880DB89828A83E493A3F208DF9F
:10016B00F980CC88F0EF60010E4E60C388F0ED246F
:10017B0002B4040050B9F582EB2402B4040050AF72
:10018B0023234582239000EE73BB010689828A8369
:10019B00E0225002E722BBFE02E32289828A83E43B
:1001AB009322BB010CE58229F582E5833AF583E0C6
:1001BB00225006E92582F8E622BBFE06E92582F8E5
:1001CB00E222E58229F582E5833AF583E49322C5A1
:1001DB00F0F8A3E028F0C5F0F8E58215827002155F
:1001EB0083E038F022BB0110E58229F582E5833AE2
:1001FB00F583E0F5F0A3E0225009E92582F886F0BB
:10020B0008E622BBFE0AE92582F8E2F5F008E222B5
:10021B00E5832AF583E993F5F0A3E99322EB9FF5A8
:10022B00F0EA9E42F0E99D42F0E89C45F022E0FCAA
:10023B00A3E0FDA3E0FEA3E0FF22E0F8A3E0F9A317
:10024B00E0FAA3E0FB22ECF0A3EDF0A3EEF0A3EFBA
:10025B00F022A8828583F0D083D08212027412021E
:10026B0074120274120274E473E493A3C583C5F091
:10027B00C583C8C582C8F0A3C583C5F0C583C8C5EF
:10028B0082C822E0FBA3E0FAA3E0F922EBF0A3EA99
:10029B00F0A3E9F022BB010789828A8302028E5008
:1002AB0005E9F8020316BBFE05E9F802031F898274
:1002BB008A83020328BB010DE58229F582E5833A87
:1002CB00F58302028E5007E92582F8020316BBFE66
:1002DB0007E92582F802031FE58229F582E5833AB7
:1002EB00F583020328D083D082F8E4937012740153
:1002FB0093700DA3A393F8740193F5828883E47331
:10030B007402936860EFA3A3A380DFE6FB08E6FA11
:10031B0008E6F922E2FB08E2FA08E2F922E493FB91
:10032B00740193FA740293F922120072787FE4F647
:10033B00D8FD75812102037E020737E493A3F8E40D
:10034B0093A34003F68001F208DFF48029E493A322
:10035B00F85407240CC8C333C4540F4420C883403B
:10036B0004F456800146F6DFE4800B01020408100A
:10037B00204080900003E47E019360BCA3FF543FB8
:10038B0030E509541FFEE493A360010ECF54C02542
:10039B00E060A840B8E493A3FAE493A3F8E493A332
:1003AB00C8C582C8CAC583CAF0A3C8C582C8CAC596
:1003BB0083CADFE9DEE780BE04030904011E03489C
:1003CB00616E6448656C644C6567656E640001081A
:1003DB00034841580001120358492057697265645C
:1003EB000005010905A10185010901A100093009D9
:1003FB0031150027FFFF0000950275108102C0091F
:10040B0001A10009330934150027FFFF00009502F5
:10041B0075108102C005010932150026FF039501F5
:10042B00750A8102150025007506950181030501EA
:10043B000935150026FF039501750A810215002564
:10044B00007506950181030501093915012508354C
:10045B0000463B01661400750495018103750495F4
:10046B0001150025003500450065008103050919BC
:10047B0001290A150025017501950A810215002530
:10048B0000750695018103050109808502A100090C
:10049B008515002501950175018102150025007553
:1004AB000795018103C0050F09218503A102099757
:1004BB0015002501750495019102150025007504A1
:1004CB009501910309701500256475089504910237
:1004DB000950660110550E150026FF007508950191
:1004EB00910209A7150026FF007508950191026579
:1004FB00005500097C150026FF0075089501910237
:10050B00C0850405060920150026FF007508950116
:10051B008102C01201100103FFFF405E04130B7236
:10052B0005010200010902290001010080FA0904FA
:10053B000000020300000009211101000122320119
:10054B000705810340000207050203400004FF0377
:10055B00C3FF03C7FF03E0FF03D9FF051EFF0530F1
:10056B00FF05590404030904011E0348616E644826
:10057B00656C644C6567656E6400010803484158FF
:10058B000001120344492057697265640005010993
:10059B0005A101A1018501050915002501350045BE
:1005AB00017501950E1901290E8102950281010534
:1005BB00012507463B0175049501651409398142F4
:1005CB0065009501810126FF0046FF0009300931C6
:1005DB000932093509330934750895068102C0A122
:1005EB00010600FF09018502150026FF007508951D
:1005FB00098102C0A1010600FF0901850215002631
:10060B00FF007508950B9102C0C01201100100008C
:10061B000040D62013A700010102000109022900A6
:10062B0001010080FA090400000103000000092108
:10063B0011010001227D000705810340000207051F
:10064B000203400002FF056FFF0573FF058CFF05DA
:10065B0085FF0615FF0627FF065004040309040156
:10066B001E0348616E6448656C644C6567656E6417
:10067B0000010803484158000112034E53205769EB
:10068B007265640005010905A101150025013500FE
:10069B0045017501950E05091901290E8102950277
:1006AB00810105012507463B017504950165140978
:1006BB0039814265009501810126FF0046FF000943
:1006CB003009310932093575089504810275089591
:1006DB00018101050C09001580257F75089540B136
:1006EB0002C01201100100000040D62013A7000128
:1006FB00010200010902220001010080FA09040035
:10070B00000103000000092111010001225E000716
:10071B00058103400002FF0666FF066AFF0683FFA2
:10072B00067CFF06EDFF06FFFF072104F196900004
:10073B00A27401F0C2AF75A72053BAFE43BA44D2DC
:10074B00AF3008FDF155C20880EA900062E01460FA
:10075B000714600C8000017E900063E0FF02173AE3
:10076B0078717C007D017B017A0079637E007F09C3
:10077B00316E9000A1E014600B14600B14600B80C1
:10078B000002219F0222501223CF2290003AE5A7AC
:10079B00F0F1BF1208091208481174119611751265
:1007AB00081312081F12083B120829117390003A04
:1007BB00E0F5A722E4F5A77597A590003B515D00E6
:1007CB00000000E47F19FEFDFC90003B5145C35136
:1007DB0028501A0090003B5139EF2401FFE43EFEF4
:1007EB00E43DFDE43CFC90003B515180D6A2AF921E
:1007FB0000C2AF7597DE7597ADA20092AF2275C997
:10080B000875A72075C6842243B180E5B1544064B6
:10081B004070F822E4F5A9E5A9548060FA22E4F5CA
:10082B00A775E60175A71075CE09F5A775A88022E7
:10083B0075A72075BD4543BA1843BA0222E4F5A744
:10084B007580FE75A4012290004CEEF0A3EFF02210
:10085B00C0E0C0F0C083C082C0D075D000C000C063
:10086B0001C002C003C004C005C006C00712007956
:10087B00121AB3900048EFF0121ABE900049EFF035
:10088B00121AC990004AEFF0121AD490004BEFF0F5
:10089B00900048E030E34EF1F71152900014E0FF66
:1008AB0031627004F1E2600DEFB1EF700F90001345
:1008BB00E064027007900049E04401F0900029E0E9
:1008CB003162700C121F8A700790004AE04402F0EC
:1008DB00900030E0FF3162700C121E99700790008F
:1008EB004AE04404F0900048E030E203121A3C90D6
:1008FB000048E030E103122180900048E030E00333
:10090B0012216A900049E030E202D1BF900049E029
:10091B0030E102F14A90004AE030E203121D71907F
:10092B00004AE030E103121CB8900049E030E002CD
:10093B0051F990004BE0FF316912007AD007D006D5
:10094B00D005D004D003D002D001D000D0D0D082BB
:10095B00D083D0F0D0E032C313540164012275AEC2
:10096B000E8FAFE5AE20E7FB22C2057D01E4FF90C1
:10097B000059EFF0A3EDF0A3120297E5AE20E7FBD1
:10098B00900059E04420F5AE90005BE01460132416
:10099B0003601A14602014702631EAAD0112211580
:1009AB00801D31EAAC02AD01122129801231EAAD72
:1009BB000112213F800931EAAC02AD011221533003
:1009CB00051C90005912261E94804012316975AE99
:1009DB0091E5AE20E7FB43AF01E5AE20E7FB2290AC
:1009EB00005AE0FFA302028E121F99900011E0FE45
:1009FB00A3E0FFC39440EE940040047F408000903E
:100A0B00004DEFF0A3F090000DE0FF547F640170F8
:100A1B0058EFB1ED7024A312028EC2057D02E4FFE4
:100A2B00317A90000FE475F0021201DA90004DE07C
:100A3B0024FEF090000DE0547FF0E490004FF09016
:100A4B00004DE0C313FF90004FE0C39F5032121BC9
:100A5B00AF317490000F1226177BFF7A007970313B
:100A6B007490004FE004F080D6121BAAC205E4FF7D
:100A7B00317A90004DE0FF90000FE48FF01201DA15
:100A8B00900014E054FBF090004EE0FFC390001276
:100A9B00E09FFF900011E09400FEF0A3EFF04E708A
:100AAB0021900014E0C45401701875AE1175AF0A93
:100ABB00E5AE20E7FB12260F90000DF0900014F02E
:100ACB00801C75AE1175AF02E5AE20E7FB900011EF
:100ADB00E07002A3E07007900014E054EFF03003D5
:100AEB000C90004E121E30E4FDFF1217F222900004
:100AFB004C74FDF0E4FF3169121AEC4005121ADF59
:100B0B00501B75AE11E4F5AFE5AE20E7FB75AE11EA
:100B1B0075AF80E5AE20E7FB12260FA3F0121AF992
:100B2B00400261C6900014E0FFB1EE7003EF61C3A9
:100B3B00900013E06401707390000DF0121C167E90
:100B4B00007F0571D690004CEFF03395E0FEBEFFB1
:100B5B0012BFFD0F900005F1DB70081212EC900034
:100B6B004CEFF0E4FF316990004C12172470379072
:100B7B00000BE07002A3E0700D75AE1175AF48E588
:100B8B00AE30E73780F91217EBE5AE20E7FB9000AC
:100B9B0005E0FFC413131354017020F1E2601CA392
:100BAB00E04408F080151221888010F1E2700512E4
:100BBB001B1D8007900014E04402F0900013E064CA
:100BCB00027007121B05400231F32290004DEEF02C
:100BDB00A3EFF0A374FDF0B1F6F1DB6002A100EF1F
:100BEB00B1ED6002A100B1F6E0541F64016002A1F7
:100BFB0000A3E024FA6002A1CB121C6B121C73A39E
:100C0B00E064227077ED2404F1F0E0FEA3E06002D3
:100C1B00A1CBEE6002A1CB9000A1E0146022146086
:100C2B003C80007BFF7A057998B1D1B1E4947DEEDD
:100C3B009400400A7C007D7D7E007F7D803A803869
:100C4B007BFF7A06798FB1D1B1E4945EEE940040CC
:100C5B000A7C007D5E7E007F5E8000801B7BFF7ABE
:100C6B000379ECB1D1B1E49432EE9401400A7C01EA
:100C7B007D327E017F328000D102A193121C6B1258
:100C8B001C73A3E064216002A1CBED2404F1F0E01E
:100C9B00FEA3E06002A1CBEE6002A1CB9000A1E02D
:100CAB0014601E14603480007BFF7A067939B1D151
:100CBB00B1E49409EE94004006F1E97F098032809B
:100CCB00307BFF7A077911B1D1B1E49409EE94002E
:100CDB004006F1E97F09800080177BFF7A05794296
:100CEB00B1D1B1E49409EE94004006F1E97F09809B
:100CFB0000D102A193B1F6F1DB64016002A1CBEF4D
:100D0B00541F64016002A1CB121F91FF2404B1DABE
:100D1B00E0FCA3E04C6002A1CB8F828E83A3E02486
:100D2B00FE606724F86044046002A1CBB1F6A3A374
:100D3B00E0FCA3E0FDEC64026002A1CBED6002A13C
:100D4B00CB90004DA3E0FFB1D8E0FCA3E064014CD5
:100D5B00706E8F828E83E0B1ED60651225E1F0A39A
:100D6B0004F0D203E4FF121779805090004D122546
:100D7B00B4A3A3A3E07049EFB1D8E0FEA3E04E709B
:100D8B003FB1F6E0B1ED6038803190004D1225B4E3
:100D9B00A3A3E0FCA3E04C7027EFB1D8E0FEA3E0E7
:100DAB0064014E701BB1F6B1EB7015121AAD9000C9
:100DBB00A0EFF01225E1F0A304D109E490004FF06D
:100DCB0090004FE0FF2290004DE0FEA3E02406F5DB
:100DDB0082E43EF5832290001FE0FEA3E0FFD322C6
:100DEB00E0FFC4131313540164012290004DE0FE85
:100DFB00A3E0F5828E8322900054EEF0A3EFF0C2B5
:100E0B0003E4FF900050EFF0A31225F3900050E0A5
:100E1B0024FD500580007FFC22900050E0FE60080E
:100E2B0012154360037FF722EE1220E8FF64016086
:100E3B000AEF64057FFE707B7FFB221225A0122632
:100E4B0007FCA3E0FD12263EEC1225BE2405B1DA09
:100E5B007402122636FBEFB1D8E054FE4BF0900033
:100E6B0050E014601014602524027036900014E0DA
:100E7B004404F0802DD3ED9440EC940040047D406D
:100E8B008006900054A3E0FD1225D68013900054E9
:100E9B00B1E49440EE9400AD0740027D401225CBA7
:100EAB00317A30040675A71043CE01900058E0F557
:100EBB00A77F00227F023169121FDA500D75AE1128
:100ECB00E4F5AFE5AE30E77680F9900021E06402FF
:100EDB00706CB1E19440EE940040047F40800012AE
:100EEB00262EC3900020E09FF090001FE09EF09014
:100EFB00001DEE8FF01201DA900022E0139203B185
:100F0B00E19400EE9400401612262640047D4080AA
:100F1B000690001FA3E0FD1225CB317A800D9000C7
:100F2B0022E054FEF09000217401F0300310121EE9
:100F3B007590001F121E37E4FD7F021217F2227FFD
:100F4B00013169121FDA500D75AE11E4F5AFE5AE44
:100F5B0030E77C80F990001AE06402707290001800
:100F6B00B1E49440EE940040047F40800012262EA2
:100F7B00C3900019E09FF0900018E09EF0900016CF
:100F8B00EE8FF01201DA90001BE013920390001821
:100F9B00B1E49400EE9400401612262640047D40E6
:100FAB008006900018A3E0FD1225D6317A800D90B3
:100FBB00001BE054FEF090001A7401F03003101285
:100FCB001E75900018121E37E4FD7F011217F222D6
:100FDB00E0FFC413540322900013E06403227C004F
:100FEB007D097E0022F582E43CF583227F0DAD075F
:100FFB00ED4480F5AEE5AE20E7FBAFAFEF7F00FE33
:10100B00ED144480F5AEE5AE20E7FBADAFEF4DFF41
:10101B0022900050EFF0A3EDF0640670079000A251
:10102B00F0FF8022900051E0FF7E0064017006907B
:10103B0000A204F022EF64054E6004EF4E700690A0
:10104B0000A27401F022EF600EC3748094805007ED
:10105B00E490009CF0800590009CEFF090009C12B7
:10106B00261E9480400CEF25E0FEE433A3F0A3CEC4
:10107B00F022E490009DF0A3F02290004EEFF09050
:10108B000003E090004FF0C3940574809480400EF1
:10109B0090004EE0940574809480500251AD900006
:1010AB004EE0FD64057006A3E0900004F090004E46
:1010BB00E0FE900003F090004FE0FF6E6002111C09
:1010CB0022F116FEA3E0FFC39480EE9400505990DA
:1010DB00000BE07002A3E0704F900005E0541F700E
:1010EB0047900009E07002A3E0703D900003E064BC
:1010FB0003700AEF4E60187F0411858012D11570B2
:10110B0013900007E07002A3E070047F031185E4E5
:10111B0090004DF0F1217010F5AE900007A3E04464
:10112B0080F5AFE5AE20E7FB90004DE0FF22F11616
:10113B00600221DC900005E0541F600221DC90006E
:10114B000BE07002A3E0600221DC900009E070026A
:10115B00A3E0707DD115703D51996014900034124D
:10116B00028E9000051201ADFDEF6D7001EE706106
:10117B0051A390003412028E9000051201ADFF9026
:10118B000007E0B4000DA3E0B50708D20331E27FFE
:10119B000611858037B14370385199601790003430
:1011AB0012028E9000051201ADFD7C00EFB50521FA
:1011BB00ECB5061D51A3900007E07002A3E0700888
:1011CB007F04118551AD8004C20331E2E490004DE0
:1011DB00F090004DE0FF2230030990001A740112C9
:1011EB001A79F0D20451907F015104D20451907FAF
:1011FB0002518C7F01518C7F02AE07E4FB1209690F
:10120B00300513A8067E007410088005C333CE3357
:10121B00CED8F9FF8013AF067E007420A807088094
:10122B0005C333CE33CED8F9FFD3ED9FEC9E5004DC
:10123B00EB4480FB300604EB4440FB30041DEB44D5
:10124B0020FB3005034404FBF1EBE5AE20E7FB7517
:10125B00AE128BAFE5AE30E72780F975AE1475AFE4
:10126B0080E5AE20E7FB75AE15AF038FAFE5AE2083
:10127B00E7FB20050B75AE12E4F5AFE5AE20E7FBFF
:10128B00225104C204D205C2067D407C002290008C
:10129B0007E0FEA3E0FF4E22900007A3E0900000C2
:1012AB00F022900051E5A7F0F172920375A710534D
:1012BB00CEFE9000507401F0900050E0FFC39405F7
:1012CB0074809480500B12204F900050E004F080FB
:1012DB00E730030675A71043CE01900051E0F5A748
:1012EB0022E4FF900006E01202F013140013160123
:1012FB00131903131B05131D06131F0813210913C1
:10130B00230A13250B00001327813B021EA0A14AC1
:10131B0001CC800BC11C2139C16FC1E57FFF22E4D9
:10132B00FDFC90005174FFF0900005E064806002BA
:10133B00812C900007E0FAA3E090004DF0EAFFE467
:10134B0060028109EF24FE602414604424026002D1
:10135B00810990004DE0600281099000319132903B
:10136B00003112028E1201947C00FD810990004D18
:10137B00E060028109900034913290003412028EA9
:10138B009000021201F0FAE5F0FFEAFCEFFD806E2F
:10139B0090003712028E90004DE0FF75F003A4F51C
:1013AB008285F0831202C09135EF700CFC7D0490A6
:1013BB00000DE05480F08046D167FF4E600AEF6469
:1013CB00097003EE64047036900002E0FF90004D4C
:1013DB00E0C39F5029A312028E9000011201AD7C35
:1013EB0000FD120194547FFF90000DE054804FFFDD
:1013FB00F090004F122617EF448090000DF0ED4C4B
:10140B00601F90000BE0FEA3E0FFC39DEE9C500419
:10141B00AC06AD0790004E12028ED1A8E49000519D
:10142B00F0900051E0FF2212028E90004E020297C4
:10143B0090004D74FFF090000BE07004A3E0640289
:10144B006002A136900007E07002A3E06002A136B3
:10145B00900005120DEB6002A136900003E0C394DF
:10146B0004748094805002A136E49000A3F0A3F0A2
:10147B00EF541F14603514604324026002A12790BF
:10148B000009E07002A3E06002A127900001E06078
:10149B000A9000A3E04402F0A3E0F0F170504B90EF
:1014AB0000A3E04401F0A3E0F0803FC390000AE00A
:1014BB009402900009E094005062802ED167FF5493
:1014CB007F4E7006D1157002804EB143704EEF24E3
:1014DB00FE601A248160251460312481703E9000D7
:1014EB0028E064067004B13CE4F0E4802B90002FFC
:1014FB00E064067004B13CE4F0E4801C90001AE058
:10150B0064067004B13CE4F0E4800D900021E064CB
:10151B00067004B13CE4F0E490004DF0F121700B47
:10152B007B017A0079A37D02FCD1A890004DE0FFEE
:10153B00229000A304F0A322900003E06406229003
:10154B00004D74FFF090000BE07002A3E06002C14D
:10155B000F900005E0541F24FE602D24026002C191
:10156B000F900009E07002A3E06002C10F9000072A
:10157B00E07004A3E064016002C10FB1436002C1DB
:10158B000F90000104F08015D167547FFF4E70144B
:10159B00900003E0C39404748094804007E49000AF
:1015AB004DF08060121FA1505B900007E07002A30A
:1015BB00E07051B143704D121FA930E7081225ECB2
:1015CB00E5AE20E7FB90000AE020E71075AE94E54E
:1015DB00AE20E7FB43AF20E5AE20E7FB90000AE02F
:1015EB0024FE601024816011146013248170159007
:1015FB000028800D90002F800890001A8003900027
:10160B00217406F090004DE0FF22900003E064048B
:10161B00227FFF900009E07002A3E0703E9000076C
:10162B00E07002A3E0703490000BE07004A3E06460
:10163B00017028900005E0FE120DED701EEE541F98
:10164B007019D11570087BFF7A007970800AB1434D
:10165B0070097B017A007900D1DEFF22900009E04E
:10166B00FEA3E022D167FF7DFFC39402EE940050EE
:10167B0029A3E07004A3E06401701F900007E070E1
:10168B0002A3E07015900005E06481700DB143700A
:10169B00097BFF7A007970D1DEFDAF052290001334
:1016AB00E06401702D90000E120297900011ECF087
:1016BB00A3EDF0A37402F0E4A3F0ED543F7013908C
:1016CB00000BE06C7003A3E06D6007900014E04426
:1016DB0010F0227D01FCD1A8E4227FFF900009A32A
:1016EB00E0FE900007A3E0FDEE122178501CB14301
:1016FB00701890000BE07002A3E0700EED700B9071
:10170B000005E0541F64017001FF2290004D74FF2F
:10171B00F0900007E02290004DE0FF3395E0FEEFE4
:10172B004E2275A71053CEFE12210AE4FF01857ECF
:10173B0001E490003AF0EF1460141460111460147B
:10174B008000900064E0FF121808AE07800DF12DA9
:10175B00E4FE8007F12DE4FE43EF1090006DEE12D6
:10176B0025FD04F022C32275A710E5CE13229000AD
:10177B00511225F3EF600C24FD6008146005800006
:10178B007FFC22EF6007B14360037FF722EF12204B
:10179B00E8FF6401600AEF64057FFE70427FFB2265
:1017AB001225A0122607FDA3E012263ECD1225BE60
:1017BB002405120DDA7403122636FDEF120DD8E054
:1017CB0054FE4DF0900056120DD4E054F7F0300457
:1017DB000675A71043CE01900058E0F5A77F0022B5
:1017EB0075AE1175AF4022900051EDF0A3EAF0A356
:1017FB00EBF0EF64017002D207E4FEFF22E4FE90EF
:10180B00003B04F0EF14602414603E146059800018
:10181B007BFF7A06795C313EFD7C0060028055EDE2
:10182B004C70689000A1F090003B805C7BFF7A07C6
:10183B00792D313EFD7C0060028039ED4C704C906F
:10184B00003BF09000A104803F7BFF7A0579653166
:10185B003EFD7C006002801CED4C702F90003BF035
:10186B009000A1740280217BFF7A07792D313EFD18
:10187B007C00600890003B7401F0800FED4C700B06
:10188B0090003BF09000A104F0D20790003BE0FFEA
:10189B002290003C12029790003FE5A7F075A7102D
:1018AB0053CEFE120092E4FFEFC3943A74809480FF
:1018BB00500F74002FF582E43400F583E4F00F80B1
:1018CB00E731441202A0900031120297314490008C
:1018DB00031202C09000341202973144900006129A
:1018EB0002C090003712029731449000091201ADEB
:1018FB00900002F0516F43B32075A72053B57F754D
:10190B00AE0175AF08E5AE20E7FB75AE0B75AF0FFB
:10191B00E5AE20E7FB51869000037403F075A7102A
:10192B0043CE0190003FE0F5A75135E5AE20E7FB34
:10193B007F0022119CAE07EE2290003C02028EC06B
:10194B00E0C083C082C0D075D000C000E5B9540F91
:10195B001202F0198D0119A40219AE041977091995
:10196B00830A19A90C19A90D000019B153B9F690E6
:10197B000061E4F05121802E53B9F5900060E4F042
:10198B008024E5B954106410700553B9EF800590AD
:10199B000061512153B9FE800D53B9FD800853B935
:1019AB00FB806853B9FBE5AB5404705C900060E0BE
:1019BB002462F582E43400F583E5BCF0900060E02E
:1019CB00702C900062E0601814600D14601A800097
:1019DB0090005E7402F0801690005E7403F0800E2F
:1019EB0090005E7401F0800690005E740AF0900027
:1019FB0060E004F090005EE014F0E070A92008A60F
:101A0B00D208900060F0809E53B9DFD000D0D0D0C8
:101A1B0082D083D0E032E0246DF582E43400F5838C
:101A2B00E0F5BB900061E004F02275AE0175AF01EB
:101A3B00229000137401F090001A74065179F0751E
:101A4B00AE0F75AF8FE5AE20E7FB5135E5AE20E766
:101A5B00FB75AE0B75AF0FE5AE20E7FB7F031210E6
:101A6B008502009175A72053B5F875A72022F09039
:101A7B000021F0900028F090002F22AFA7900013C8
:101A8B007401F075A72043B38075A72043B3408F33
:101A9B00A72275A72053BAFD43BA0275A710539816
:101AAB007F3290009CE0FF2275AE86E5AE20E7FB0F
:101ABB00AFAF2275AE82E5AE20E7FBAFAF2275AEBE
:101ACB0084E5AE20E7FBAFAF2275AE8EE5AE20E727
:101ADB00FBAFAF2275AE91E5AE20E7FBE5AFA2E41D
:101AEB002275AE91E5AE20E7FBE5AFA2E22275AE23
:101AFB0091E5AE20E7FBE5AF132275AE91E5AE2085
:101B0B00E7FBE5AFA2E12275AE96E5AE20E7FBAFB2
:101B1B00AF22F199711290004DEFF0C3900012E0DB
:101B2B009F900011E09400500E71A2E04402F090DF
:101B3B00004E74F2F0804D71AAE4FF71B590004D28
:101B4B00E0FFFD7C0090000FB16BC3900012E09D95
:101B5B00FD900011E09CFCF0A3EDF0E490004EF042
:101B6B00ED4C7018EF6440601375AE1175AF48E51E
:101B7B00AE20E7FB71A2E054FEF080081217EBE5F4
:101B8B00AE20E7FB30030F90004EE0FD90004DD1EF
:101B9B0030E4FF1217F2229000137401F0A322908D
:101BAB00004DE0FD90000E02028E90004FEFF09082
:101BBB000051120297900050EDF0D3940074809472
:101BCB0080403FE5AE20E7FB90004FE0FE44E0F5A0
:101BDB00AE900051E01460142403601C24FE7022AC
:101BEB009000501209EDAD01AB06E1BD9000501213
:101BFB0009EDAC02910E81949000501209ED910EFB
:101C0B00917A22AD0190004FE0FB2290004D7400C1
:101C1B00F0A37405F0F191AA06F97B017D08E4FFAE
:101C2B0071B5120DF6A3A391629173A3EEF0A3EF1E
:101C3B00F0ED2404915CFD2404120FF0EEF0A3EF01
:101C4B00F0ED2406915C2406120FF0EEF0A3EFF0FA
:101C5B0022F582E43CF583E0FCA3E0FAECFFEAFE1C
:101C6B0090004DE0FCA3E022FDF5828C83A322A81B
:101C7B00051FEF600BE5AE20E7FBE5AFF20880F147
:101C8B00E5AE20E7FB91B0F2228D828C831FEF60D3
:101C9B000BE5AE20E7FBE5AFF0A380F1E5AE20E767
:101CAB00FB91B0F022EB4420F5AEE5AF22C2037FEF
:101CBB0001120969D163501475AE94E5AE20E7FBB0
:101CCB0053AFBFE5AE20E702A16A80F7D1574002C0
:101CDB00A16AD124F0F18A6005D14CF08063D14424
:101CEB00900027E09F900026E0940050079000287A
:101CFB00D18A804D90002312028E7F0171B5900026
:101D0B0029D17DC3900027E09DF0900026E09CF048
:101D1B00900024B16B900026E07002A3E06005EF09
:101D2B00644060089000287401F0D203E490004DE9
:101D3B00F075AE94E5AE20E7FB53AFFEE5AE20E7C2
:101D4B00FB900029E0FF540164017013300304EF92
:101D5B0054FEF0D170900026D1377F031217F22278
:101D6B00EC8DF00201DAC2037F02120969D16350D4
:101D7B001475AE94E5AE20E7FB53AFBFE5AE20E79D
:101D8B0002C12380F7D1574002C123D124F0D1994E
:101D9B006005D14CF08063D14490002EE09F900001
:101DAB002DE09400500790002FD18A804D90002A8F
:101DBB0012028E7F0271B5900030D17DC390002E40
:101DCB00E09DF090002DE09CF090002BB16B90000B
:101DDB002DE07002A3E06005EF6440600890002FD7
:101DEB007401F0D203E490004DF075AE94E5AE2093
:101DFB00E7FB53AFFEE5AE20E7FB900030E0FF546E
:101E0B000164017013300304EF54FEF0D1709000A5
:101E1B002DD1377F041217F222D12B90004CEF22D9
:101E2B007F17020FF9E0FB7A00900011E0FFA3E0AF
:101E3B00900054CFF0A3EFF02290004CE0FDFFC3D5
:101E4B0022A3E04402F090004D74F92275AE94E5A4
:101E5B00AE20E7FBE5AF132275AE94E5AE20E7FBB2
:101E6B00E5AFA2E62290004DE0FD90004CE0FB7A3E
:101E7B000022E054FDF090004CE0FFFD7C0022744A
:101E8B0001F0A3E04402F090004D74F2F0229000B8
:101E9B002FE064032290004D74FFF090000BE07074
:101EAB0002A3E06002E184900005E0541F24FE6071
:101EBB003624026002E184900009E07002A3E06026
:101ECB0002E184900007E07004A3E064016002E18A
:101EDB0084900003E0C39404748094805002E184E6
:101EEB00E4900001F08023900007E07002A3E06013
:101EFB0002E184121667547FFF4E7014900003E0CA
:101F0B00C39404748094804007E490004DF0806982
:101F1B00F1A150651215437060F1A930E708121753
:101F2B00EBE5AE20E7FB90000AE020E71875AE94D6
:101F3B00E5AE20E7FB53AFDFE5AE20E7FB43AF8019
:101F4B00E5AE20E7FB90000AE024FE6011248160DF
:101F5B001314601A24817021F18A601D8018D199A5
:101F6B006017801290001AE06402600D80089000E8
:101F7B0021E0640260037401F090004DE0FF2290B9
:101F8B000028E064032290004DE0FEA3E0229000C5
:101F9B0014E013920322C3EF9405EE9400229000F9
:101FAB004DF0900009A3E0547FFF12096990000ADD
:101FBB00E022A8051FEF600AE5AE20E7FBA6AF08FD
:101FCB0080F2E5AE20E7FBEB4420F5AEA6AF227521
:101FDB00AE91E5AE20E7FBE5AFA2E52212096975EC
:101FEB00AE1175AF08E5AE20E7FB75AE91E5AE20FF
:101FFB00E7FBE5AF20E3F375AE1175AF08E5AE2057
:10200B00E7FB75AE91E5AE20E7FBE5AF20E3F322EE
:10201B0012096975AE1475AF10E5AE20E7FB75AE0E
:10202B0094E5AE20E7FBE5AF20E4F375AE1475AF96
:10203B0010E5AE20E7FB75AE94E5AE20E7FBE5AF10
:10204B0020E4F322900052EFF0E4900055F0A3E56A
:10205B00A7F0900052E06009C3940574809480400F
:10206B000890005574FCF0805F121772920475A7EC
:10207B001053CEFE900052E075F007A4240EF974B5
:10208B000035F0FEAF01A311F96401603B900052E3
:10209B00E024FE600E146012146013240370137F8F
:1020AB000180027F02121FE780087F0180027F02FE
:1020BB00111B900053E0FEA3E0FF2405120DDA7410
:1020CB0001F0EF120DD8E4F030040675A71043CEE3
:1020DB0001900056E0F5A7900055E0FF2275F00740
:1020EB00A4240EF9740035F0FEAF01900056F0A356
:1020FB00EFF08E832405F582E43583F583E022AF80
:10210B00A775A72053B37F8FA722A805AE071FEE95
:10211B00600BE5AE20E7FBE6F5AF0880EF228D8282
:10212B008C83AE071FEE600BE5AE20E7FBE0F5AF4F
:10213B00A380EF22A805AE071FEE600BE5AE20E7EC
:10214B00FBE2F5AF0880EF228D828C83AE071FEE8A
:10215B00600CE5AE20E7FBE493F5AFA380EE229095
:10216B000003E0317840057F0512108522C39402ED
:10217B007480948022900004E0FF021085E4FF122B
:10218B0009699000137405F075AE1175AF60E5AE7B
:10219B0020E7FB2290008AB11CC4135407FE900069
:1021AB008BB17EFF90008BF0EE71C6EF54FE514762
:1021BB00B140FF90008BB1325147540251F454BFE0
:1021CB004DFF90008BB1675407FE90008C51D85493
:1021DB00DF4DFF90008C513AB14BFF90008CB15604
:1021EB00E090008EF0900075E090008FF0900076FC
:1021FB00E0900090F0900077E0900091F0900078E4
:10220B00E0900092F0900079E090009351FB9000E9
:10221B008DEFF0300718C2077B017A00798A9000A6
:10222B0054E4F0A3740AF0D2037F01120E0E22F0D5
:10223B00EE540233333354F8FEEF54EF4EFFF0906D
:10224B000072E0FE22B11FC4135407FE900094B13C
:10225B007EFF900094F0EE71C6EF54FE5147B140F3
:10226B00FF900094B1325147540251F454BF4DFFCB
:10227B00900094B1675407FE90009551D854DF4DF0
:10228B00FF900095513AB14BFF900095B156E090FD
:10229B000097F0900075E0900098F0900076E09039
:1022AB000099F0900077E090009A51FB900096EF28
:1022BB00F0300718C2077B017A007994900054E440
:1022CB00F0A37408F0D2037F01120E0E22E054FE2D
:1022DB004EFEF0EF5410131313541FFFEE54FD4F2B
:1022EB00FFF0900073E0FE5401C43354E0FDEF2285
:1022FB00F0900071E0FF13135401FEC374019EFEB6
:10230B00EF13131354012EFFE0FEC3135401FDC34F
:10231B0074019DFDEE54012DFEAD07FBE4FFEF14A0
:10232B00604980007E08ED640270157E0271BF6407
:10233B000270031E807BE582458370757E0380717E
:10234B00ED70157E0671BF640270030E8063E5822B
:10235B004583705D7E05805971BF64027003FE80FA
:10236B0050E5824583704A7E048046E4FEED6402AC
:10237B0070157E0371BF640270031E8034E58245C5
:10238B0083702E7E04802AED70157E07EBFD7C009A
:10239B00640270030E801AED4C70167E068012EBF1
:1023AB00FD7C00640270047E018006ED4C70027EA1
:1023BB0005AF0622EBF582758300225440C413133C
:1023CB005403FE2290007AB11C71C8900088E0542F
:1023DB00FD4EFEF0EF5420C4135407FFEE54FE4F96
:1023EB00FFF0900071E0FE5410C313FBEF54F74B5A
:1023FB00FF900088F0EE5440C4540FFEEF54FB5195
:10240B00475401C454F0FBEF54EF4BFF900088B1DD
:10241B00324EF0900072E0FB30E107900083B11474
:10242B008012900078E075F004A4FF900083E5F033
:10243B00F0A3EFF0EB30E307900085B1148012901E
:10244B000079E075F004A4FF900085E5F0F0A3EFB0
:10245B00F0900072E0FF541033333354F8FE9000C9
:10246B0088E0547F4EFEF0EF542025E0FFEE54BF82
:10247B004FF0900072E0FF71C6900089E054FE4E61
:10248B00FEF0EF5480C413135403FFEE54FD4FF0D2
:10249B00900074E0FF90007BE4F0A3EFF0900075E8
:1024AB00E0FF90007DE4F0A3EFF0900076E0FF906A
:1024BB00007FE4F0A3EFF0900077E0FF900081E461
:1024CB00F0A3EFF0900071E0FF13B1271313135437
:1024DB00012EFDE0FFC3B12754012EFCFB7F0171E0
:1024EB0029EF540FFF900087E054F04FF03007189E
:1024FB00C2077B017A00797A900054E4F0A3741040
:10250B00F0D2037F01120E0E227403F0A374FCF0C1
:10251B00227401F0900071E0FF548022135401FEED
:10252B00C374019EFEEF22F0EE540433333354F8A0
:10253B00FEEF54DF225401C454F0FDEF54EF4D2253
:10254B005440C4540FFDEF54FB4D22F0EE5480C4A5
:10255B00540FFEEF54F74EF090007422F0EE540837
:10256B00C454F0FEEF547F4EF0900072E0FF542005
:10257B00C41322E054FB4EFEF0EF5420C4540FFF63
:10258B00EE54FD4FFFF0900071E0FE5410C313FDAD
:10259B00EF54F74D22121772920475A71053CEFE0B
:1025AB0090005112028E900056E0FEA3E0FFF582E0
:1025BB008E8322F0A3EDF0900056E0FEA3E0FF2205
:1025CB0090001C12028ED2057F022290001512027F
:1025DB008ED2057F01227B017A0079A0900054E412
:1025EB002275AE1175AF1022120297900058E5A715
:1025FB00F022F0E4900061F090005F2212029790BD
:10260B000054E0229000137401F0E422E475F00111
:10261B000201DAE0FFD39400748022D3EF9440EEF2
:10262B0094002290004CEFF07E0022F0A203E433E2
:0B263B005401228F828E83A3A3A322F0
:00000001FF
