:020000040000FA
:10000000020360000022F1B3E49000A2F07F03112C
:100010002B7F01F150C2AF75A72053BAFE43BA44FB
:10002000D2AF300CFD1140C20C80EA90003AEFF0E4
:10003000F1DCE4900098F090003AE0900098F02213
:10004000900065E024FE601314601914601B240303
:100050007019900066E0FF112B8010900066E0FFA1
:10006000F15080071217F88002116DC1B422900080
:1000700098E024FE22222275D1082202088D7BFFFF
:100080007A0679291221F490003AEFF02275E340C4
:0A009000222222021BFA22C32222C0
:10009B00021CBFE709F608DFFA8046E709F208DF22
:1000AB00FA803E88828C83E709F0A3DFFA8032E383
:1000BB0009F608DFFA8078E309F208DFFA80708826
:1000CB00828C83E309F0A3DFFA806489828A83E060
:1000DB00A3F608DFFA805889828A83E0A3F208DF4F
:1000EB00FA804C80D280FA80C680D4806980F280FE
:1000FB0033801080A680EA809A80A880DA80E28024
:10010B00CA803389828A83ECFAE493A3C8C582C878
:10011B00CCC583CCF0A3C8C582C8CCC583CCDFE9E2
:10012B00DEE7800D89828A83E493A3F608DFF9EC7E
:10013B00FAA9F0EDFB2289828A83ECFAE0A3C8C509
:10014B0082C8CCC583CCF0A3C8C582C8CCC583CC30
:10015B00DFEADEE880DB89828A83E493A3F208DF9F
:10016B00F980CC88F0EF60010E4E60C388F0ED246F
:10017B0002B4040050B9F582EB2402B4040050AF72
:10018B0023234582239000EE73BB010689828A8369
:10019B00E0225002E722BBFE02E32289828A83E43B
:1001AB009322BB010CE58229F582E5833AF583E0C6
:1001BB00225006E92582F8E622BBFE06E92582F8E5
:1001CB00E222E58229F582E5833AF583E49322C5A1
:1001DB00F0F8A3E028F0C5F0F8E58215827002155F
:1001EB0083E038F022BB0110E58229F582E5833AE2
:1001FB00F583E0F5F0A3E0225009E92582F886F0BB
:10020B0008E622BBFE0AE92582F8E2F5F008E222B5
:10021B00E5832AF583E993F5F0A3E99322EB9FF5A8
:10022B00F0EA9E42F0E99D42F0E89C45F022E0FCAA
:10023B00A3E0FDA3E0FEA3E0FF22E0F8A3E0F9A317
:10024B00E0FAA3E0FB22ECF0A3EDF0A3EEF0A3EFBA
:10025B00F022A8828583F0D083D08212027412021E
:10026B0074120274120274E473E493A3C583C5F091
:10027B00C583C8C582C8F0A3C583C5F0C583C8C5EF
:10028B0082C822E0FBA3E0FAA3E0F922EBF0A3EA99
:10029B00F0A3E9F022BB010789828A8302028E5008
:1002AB0005E9F8020342BBFE05E9F802034B89821C
:1002BB008A83020354BB010DE58229F582E5833A5B
:1002CB00F58302028E5007E92582F8020342BBFE3A
:1002DB0007E92582F802034BE58229F582E5833A8B
:1002EB00F583020354D083D082F8E4937012740127
:1002FB0093700DA3A393F8740193F5828883E47331
:10030B007402936860EFA3A3A380DFEF4E6012EF3C
:10031B0060010EEDBB010B89828A83F0A3DFFCDE4B
:10032B00FA2289F05007F709DFFCA9F022BBFEFC8B
:10033B00F309DFFCA9F022E6FB08E6FA08E6F9224E
:10034B00E2FB08E2FA08E2F922E493FB740193FA68
:10035B00740293F922120005787FE4F6D8FD7581BB
:10036B00210203AA020006E493A3F8E493A340033B
:10037B00F68001F208DFF48029E493A3F8540724F4
:10038B000CC8C333C4540F4420C8834004F45680B4
:10039B000146F6DFE4800B01020408102040809038
:1003AB0003EFE47E019360BCA3FF543F30E5095497
:1003BB001FFEE493A360010ECF54C025E060A8405C
:1003CB00B8E493A3FAE493A3F8E493A3C8C582C853
:1003DB00CAC583CAF0A3C8C582C8CAC583CADFE928
:1003EB00DEE780BE4100B804410098014100A20045
:1003FB004100A100C108C10AC107C1094800990009
:10040B0000000000000000C10B4B00650000000065
:10041B00000000000000004100620041006009C1C3
:10042B000C4B0070000000000000000000000041B9
:10043B000063004100610949007B000000000000DF
:10044B00000000410064004A00A30000000000000F
:10045B00000000004800AD0000000000000000009C
:10046B0004030904011E0348616E6448656C644C07
:10047B006567656E6400010803484158000112036B
:10048B0044492057697265640005010905A101A162
:10049B0001850105091500250135004501750195FB
:1004AB000E1901290E8102950281010501250746CE
:1004BB003B0175049501651409398142650095016D
:1004CB00810126FF0046FF00093009310932093549
:1004DB0009330934750895068102C0A1010600FF96
:1004EB0009018502150026FF00750895088102C0D9
:1004FB00A1010600FF09018502150026FF00750802
:10050B0095089102C0C01201100100000040D620D6
:10051B0013A700010102000109022900010100805B
:10052B00FA09040000010300000009211101000178
:10053B00227D0007058103400002070502034000EE
:10054B0002FF046BFF046FFF0488FF0481FF05119A
:10055B00FF0523FF054C0404030904011E03486136
:10056B006E6448656C644C6567656E6400010803D6
:10057B00484158000112034E5320576972656400BD
:10058B0005010905A101150025013500450175017E
:10059B00950E05091901290E8102950281010501AC
:1005AB002507463B017504950165140939814265A0
:1005BB00009501810126FF0046FF00093009310932
:1005CB00320935750895048102750895018101057D
:1005DB000C09001580257F75089540B102C01201EA
:1005EB00100100000040D62013A7000101020001FA
:1005FB000902220001010080FA0904000001030036
:10060B000000092111010001225E00070581034052
:10061B000002FF0562FF0566FF057FFF0578FF05FA
:10062B00E9FF05FBFF061D0404030904011E034833
:10063B00616E6448656C644C6567656E64000108A7
:10064B0003484158000112035849205769726564E9
:10065B000012011001FFFFFF405E048E02720501C4
:10066B000200010902300001010080FA09040000B8
:10067B0002FF5D010010211001012481140300030E
:10068B001302000300070581032000010705020385
:10069B00200008FF0633FF0637FF0650FF0649FF11
:1006AB00065CFF066EFF069E04200B107E007F0B80
:1006BB007D007B017A0079707116D20BA20AE433AC
:1006CB005401FF900064E054FE4FFFF0A207E433A7
:1006DB005401121B8354F74EFFF0A209E43354016B
:1006EB00C454F0FEEF54EF4EFFF09000A2E0540123
:1006FB0025E0FEEF54FD4E900064F09000A1E06405
:10070B00027F0070027F01EF540125E025E0FF908E
:10071B000064E054FB4FF03009051223B7C20930D7
:10072B0007051223B7C20778707C007D017B017A25
:10073B000079647E007F01316EE4900063F09000DD
:10074B0061740BF022E490003AF0EF146007146030
:10075B004E8000807C9000A2E06401604A116E60C4
:10076B001914601F14602B2403703C7BFF7A0579EE
:10077B005811847032EF702F801F117E7029EF702B
:10078B002680167BFF7A0679AA1184701AEF7017F0
:10079B008007117E7011EF700E9000A204F022E41E
:1007AB00FFF1507F01F1502290003AE5A7F0F1EDF7
:1007BB0012083B12087A1176118D11771208451227
:1007CB00085112086D12085B117590003AE0F5A7FD
:1007DB00229000A2E0600AC20812229BE49000A2C1
:1007EB00F022E4F5A77597A590003B515D00000042
:1007FB0000E47F19FEFDFC90003B120245C3120280
:10080B0028501C0090003B120239EF2401FFE43EFC
:10081B00FEE43DFDE43CFC90003B12025180D2A271
:10082B00AF9200C2AF7597DE7597ADA20092AF2263
:10083B0075C90875A72075C6842243B180E5B154EC
:10084B0040644070F822E4F5A9E5A9548060FA22CF
:10085B00E4F5A775E60175A71075CE09F5A775A880
:10086B00802275A72075BD4543BA1843BA0222E40E
:10087B00F5A77580FE75A4012290004EEEF0A3EF54
:10088B00F022C0E0C0F0C083C082C0D075D000C0E1
:10089B0000C001C002C003C004C005C006C00712DF
:1008AB00009112201090004AEFF012201B90004B89
:1008BB00EFF012202690004CEFF012203190004DFB
:1008CB00EFF090004AE030E34B121FBB1184900015
:1008DB0014319170049101600DEF910A700F90002B
:1008EB0013E06402700790004BE04401F090002984
:1008FB00E03193700C121FCD700790004CE0440256
:10090B00F09000303191700C12217E700790004CEA
:10091B00E04404F090004AE030E203121E92900093
:10092B004AE030E10312233D90004AE030E003122D
:10093B00232790004BE030E202D14690004BE03091
:10094B00E102D1CB90004CE030E2031220C09000CA
:10095B004CE030E103121EC790004BE030E0027117
:10096B002790004DE0FF319A120092D007D006D0AD
:10097B0005D004D003D002D001D000D0D0D082D08B
:10098B0083D0F0D0E032E0FFC31354016401227531
:10099B00AE0E8FAFE5AE20E7FB22C2057D01E4FF73
:1009AB0090005BEFF0A3EDF0A3120297E5AE20E70A
:1009BB00FB90005BE04420F5AE90005DE01460130B
:1009CB002403601A1460201470265119AD011222F1
:1009DB00D2801D5119AC02AD011222E680125119C1
:1009EB00AD011222FC80095119AC02AD011223108A
:1009FB0030051A90005B121CEA4012319A75AE91C9
:100A0B00E5AE20E7FB43AF01E5AE20E7FB2290000C
:100A1B005CE0FFA302028E121FDC900011E0FEA32C
:100A2B00E0FFC39440EE940040047F4080009000B0
:100A3B004FEFF0A3F090000DE0FF547F640170586E
:100A4B00EF91087024A312028EC2057D02E4FF31E0
:100A5B00AB90000FE475F0021201DA90004FE02426
:100A6B00FEF090000DE0547FF0E4900051F0900008
:100A7B004FE0C313FF900051E0C39F5032121E8C06
:100A8B0031A590000F12242C7BFF7A00790331A53E
:100A9B00900051E004F080D6121E87C205E4FF31AE
:100AAB00AB90004FE0FF90000FE48FF01201DA9053
:100ABB000014E054FBF0900050E0FFC3900012E0F4
:100ACB009FFF900011E09400FEF0A3EFF04E702218
:100ADB00900014E0C45401701975AE1175AF0AE59E
:100AEB00AE20E7FB121E80E490000DF0900014F096
:100AFB00801C75AE1175AF02E5AE20E7FB900011BF
:100B0B00E07002A3E07007900014E054EFF03003A4
:100B1B000A900050F1CBE4FDFFF1DF2290004E7400
:100B2B00FDF0E4FF319A122049400512203C501889
:100B3B00F1BDE5AE20E7FB75AE1175AF80E5AE20DC
:100B4B00E7FB121E80E4A3F0122056400261F190E5
:100B5B000014E0FF91097003EF61EE900013E06465
:100B6B0001707390000DF0121D517E007F059111E5
:100B7B0090004EEFF03395E0FEBEFF12BFFD0F90DD
:100B8B000005F1C4700812128690004EEFF0E4FFDE
:100B9B00319A90004E1223DC703790000BE07002FC
:100BAB00A3E0700D75AE1175AF48E5AE30E7378039
:100BBB00F9121FBFE5AE20E7FB900005E0FFC41361
:100BCB001313540170209101601CA3E04408F080C2
:100BDB0015122345801091017005121DF9800790A5
:100BEB000014E04402F0900013E06402700712203E
:100BFB00624002512222900013E0640322C41313BB
:100C0B0013540164012290004FEEF0A3EFF0A37494
:100C1B00FDF0D13AF1C4600281FDEF9108600281D1
:100C2B00FDD13AE0541F6401600281FDA3E024FA78
:100C3B006002A166121DA1121DB3E0642270531253
:100C4B001DA9E0FEA3E06002A166EE6002A16612A0
:100C5B00006E601F80007BFF7A047994B16CB17FCA
:100C6B00947DEE9400400A7C007D7D7E007F7D802C
:100C7B001D801B7BFF7A05798BB16CB17F945EEE87
:100C8B009400400A7C007D5E7E007F5E8000B18612
:100C9B00A161121DA1121DB3E064216002A16612B5
:100CAB001DA9E0FEA3E06002A166EE6002A1661240
:100CBB00006E601F80007BFF7A057935B16CB17FC8
:100CCB009409EE9400400A7C007D097E007F098028
:100CDB001D801B7BFF7A06790DB16CB17F9409EEF9
:100CEB009400400A7C007D097E007F098000B1865C
:100CFB008064D13AF1C464017061EF541F640170D8
:100D0B005A121FD4FF2404B175E0FCA3E04C704BC6
:100D1B008F828E83A3E024F77041D13AA3A3E0FC2A
:100D2B00A3E0FDEC64027033ED703090004FA3E054
:100D3B00FFB173E0FCA3E064014C701F8F828E83C4
:100D4B00E0910860167B017A0079B9121B3304F02D
:100D5B00D203E4FFF156E4900051F0900051E0FF14
:100D6B002290004FE0FEA3E02406F582E43EF583DB
:100D7B002290001FE0FEA3E0FFD322900056EEF07E
:100D8B00A3EFF0C203E4FF900052EFF0A312242272
:100D9B00900052E024FD500580007FFC2290005211
:100DAB00E0FE600812144060037FF722EE122380EE
:100DBB006401600AEF64057FFE70737FFB221223D0
:100DCB005CE0FCA3E0FD122453EC1223CAB1757452
:100DDB000212244BFBEFB173E054FE4BF090005228
:100DEB00E014601014602524027036900014E04467
:100DFB0004F0802DD3ED9440EC940040047D4080B2
:100E0B0006900056A3E0FD1224178013900056B1F4
:100E1B007F9440EE9400AD0740027D4012240C31CC
:100E2B00AB300402F1FC90005AE0F5A77F00229052
:100E3B00004FE0FEA3E0F5828E83227F02319A12EF
:100E4B00206F5009F1BDE5AE30E77480F9900021B9
:100E5B00E06402706AB17C9440EE940040047F40E1
:100E6B00800012243BC3900020E09FF090001FE015
:100E7B009EF090001DEE8FF01201DA900022E0132D
:100E8B009203B17C9400EE9400401612243340047C
:100E9B007D40800690001FA3E0FD12240C31AB8037
:100EAB000D900022E054FEF09000217401F030030D
:100EBB000E12219690001FF1D2E4FD7F02F1DF228A
:100ECB007F01319A12206F5009F1BDE5AE30E77A00
:100EDB0080F990001AE064027070900018B17F9452
:100EEB0040EE940040047F40800012243BC39000EE
:100EFB0019E09FF0900018E09EF0900016EE8FF036
:100F0B001201DA90001BE0139203900018B17F944A
:100F1B0000EE9400401612243340047D408006906E
:100F2B000018A3E0FD12241731AB800D90001BE0DD
:100F3B0054FEF090001A7401F030030E12219690BB
:100F4B000018F1D2E4FD7F01F1DF2290005312244F
:100F5B0022EF600C24FD600814600580007FFC22EA
:100F6B00EF600812144060037FF722EF12238064B6
:100F7B0001600AEF64057FFE70377FFB2212235C52
:100F8B00E0FDA3E0122453CD1223CAB175740312F2
:100F9B00244BFDEFB173E054FE4DF0900058B16F50
:100FAB00E054F7F0300402F1FC90005AE0F5A77F13
:100FBB00002275AE11E4F5AF22E0FFC413540322F7
:100FCB00E0FB7A00900011E0FFA3E0900056CFF019
:100FDB00A3EFF022900053EDF0A3EAF0A3EBF0EFB8
:100FEB0064017002D208E4FEFF2275A710E5CE1350
:100FFB002275A71043CE0122900052EFF0A3EDF023
:10100B006406700D9000A17402F0D208E4FF021F79
:10101B00F7900053E0FF7E00640170069000A1047E
:10102B00F022EF64054E6004EF4E7007C208E490A7
:10103B0000A1F022900050EFF0900003E0900051DF
:10104B00F031CB400A900050E031CC500231D390BC
:10105B000050E0FD64057006A3E0900004F09000E2
:10106B0050E0FE900003F0900051E0FF6E60021123
:10107B00032290004F74FFF0900007E0707991FE0F
:10108B00707590000BE07002A3E0706B900009E0AC
:10109B007002A3E07061D10C702A51074E600A31C7
:1010AB00BFFDEF6D7001EE704E517C31BFFF9000B4
:1010BB0007E0B4000DA3E0B50708D20331087F06A3
:1010CB00113F802E9140702F51074E600D31BFFDA7
:1010DB007C00EFB50521ECB5061D517C900007E0B7
:1010EB007002A3E070087F04113F31D38004C20368
:1010FB003108E490004FF090004FE0FF22300308DE
:10110B0090001A74011223E5D20431B67F01312904
:10111B00D20431B67F0231B27F0131B27F02AE070A
:10112B00E4FB12099A300513A8067E0074100880A0
:10113B0005C333CE33CED8F9FF8013AF067E0074D0
:10114B0020A807088005C333CE33CED8F9FFD3EDE3
:10115B009FEC9E5004EB4480FB300604EB4440FBB9
:10116B0030041EEB4420FB3005034404FB121FBF6D
:10117B00E5AE20E7FB75AE128BAFE5AE30E727800F
:10118B00F975AE1475AF80E5AE20E7FB75AE15AF04
:10119B00038FAFE5AE20E7FB20050B75AE12E4F530
:1011AB00AFE5AE20E7FB223129C204D205C2067D92
:1011BB00407C002290003412028E9000050201AD9B
:1011CB00C394057480948022900053E5A7F0120F0E
:1011DB00F592031222A49000527401F0900052E099
:1011EB00FF31CB500A51C3900052E004F080ED3038
:1011FB000303120FFC900053E0F5A722900007E0C9
:10120B00FEA3E0FF2290004F74FFF05107C39480C0
:10121B00EE9400505690000BE07002A3E0704C91DE
:10122B00FE7048900009E07002A3E0703E9000034E
:10123B00E06403700AEF4E60187F04113F8012D1F7
:10124B000C7013900007E07002A3E070047F031191
:10125B003FE490004FF01223D97010F5AE900007C9
:10126B00A3E04480F5AFE5AE20E7FB90004FE0FF35
:10127B0022900007A3E0900000F022E4FF9000060C
:10128B00E01202F012AE0012B00112B20312B4055A
:10129B0012B60612B80812BA0912BC0A12BE0B001B
:1012AB000012C0614BA13281474110C19FC1130194
:1012BB007DC166A1057FFF22900054EFF0E4900002
:1012CB0057F0A3E5A7F0900054E0600431CB400841
:1012DB0090005774FCF08056120FF592041222A462
:1012EB00900054E0122400FEAF01A3F0A3EFF08EA8
:1012FB00831223F36038900054E024FE600E1460D8
:10130B0012146013240370147F0180027F021220D9
:10131B007C80097F0180027F021221AC9000551264
:10132B0023D1120D757401F0EF120D73E4F030043C
:10133B0003120FFC900058E0F5A7900057E0FF2236
:10134B00F1ED7004A3E0640260028131900007E0CC
:10135B007002A3E060028131900005E0FF120C08DF
:10136B0060028131D10050028131E49000BAF0A3C8
:10137B00F0EF541F14603614604424026002812184
:10138B00900009E07002A3E060028121900001E06F
:10139B00600A9000BAE04402F0A3E0F0120097500C
:1013AB00499000BAE04401F0A3E0F0803DC3900007
:1013BB000AE09402900009E09400505A802CD15E10
:1013CB00FF547F4E7006D10C7002804691407046E0
:1013DB00EF24FE60182481602114602B2481703669
:1013EB00900028E0640670029137E4802590002F6E
:1013FB00E0640670029137E4801890001AE06406EE
:10140B0070029137E4800B900021E064067002912A
:10141B0037E490004FF01223D9700B7B017A0079DF
:10142B00BA7D02FCF1A790004FE0FF229000BA04B6
:10143B00F0A3E4F022900003E0640622F1ED7002C9
:10144B00A3E0600281F891FE24FE602B240260026F
:10145B0081F8900009E07002A3E0600281F890002F
:10146B0007E07004A3E06401600281F89140707D95
:10147B0090000104F0800CD15E547FFF4E700BD1B5
:10148B00004007E490004FF08063122443505E90BD
:10149B000007E07002A3E07054914070501223A338
:1014AB0030E70B75AE1175AF10E5AE20E7FB900082
:1014BB000AE020E71075AE94E5AE20E7FB43AF20C2
:1014CB00E5AE20E7FB90000AE024FE60102481606B
:1014DB001114601324817015900028800D90002F3B
:1014EB00800890001A80039000217406F090004F42
:1014FB00E0FF22900005E0541F227FFF900009A31C
:10150B00E0FE900007A3E0FDEE122335501891404A
:10151B00701490000BE07002A3E0700AED7007915D
:10152B00FE64017001FF22F1ED7002A3E06002A1E5
:10153B00FA91FE24FE602D24026002A1FA900009AC
:10154B00E07002A3E06002A1FA900007E07004A330
:10155B00E064016002A1FAD1005002A1FAE490000C
:10156B0001F08019900007E07002A3E06002A1FA7D
:10157B00D15E547FFF4E700BD1004007E490004FBB
:10158B00F0806C1224435067914070631223A33098
:10159B00E708121FBFE5AE20E7FB90000AE020E74B
:1015AB001875AE94E5AE20E7FB53AFDFE5AE20E751
:1015BB00FB43AF80E5AE20E7FB90000AE024FE6022
:1015CB00122481601514601C24817023121FCD60BE
:1015DB001E801912217E6017801290001AE064029F
:1015EB00600D8008900021E0640260037401F090AC
:1015FB00004FE0FF22900003E0C3940474809480BA
:10160B0022900003E06404227FFF900009E0700247
:10161B00A3E0703E900007E07002A3E070349000EE
:10162B000BE07004A3E064017028900005E0FE124B
:10163B000C08701EEE541F7019D10C70087BFF7ACA
:10164B00007903800A914070097B017A007900F1DF
:10165B00DDFF22900009E0FEA3E022D15EFF7DFFBB
:10166B00C39402EE94005029A3E07004A3E064013C
:10167B00701F900007E07002A3E07015900005E06A
:10168B006481700D914070097BFF7A007903F1DD65
:10169B00FDAF0522E4FDFC90005374FFF0900005B4
:1016AB00E064806002E1A1900007E0FAA3E0900003
:1016BB004FF0EAFFE46002E17EEF24FE6024146049
:1016CB004424026002E17E90004FE06002E17E90D4
:1016DB000031F1E490003112028E1201947C00FD76
:1016EB00E17E90004FE06002E17E900034F1E490E7
:1016FB00003412028E9000021201F0FAE5F0FFEABC
:10170B00FCEFFD806E90003712028E90004FE0FFD1
:10171B0075F003A4F58285F0831202C0F1E7EF7038
:10172B000CFC7D0490000DE05480F08046D15EFFF0
:10173B004E600AEF64097003EE6404703690000289
:10174B00E0FF90004FE0C39F5029A312028E900040
:10175B00011201AD7C00FD120194547FFF90000D2E
:10176B00E054804FFFF090005112242CEF448090F6
:10177B00000DF0ED4C601F90000BE0FEA3E0FFC3EB
:10178B009DEE9C5004AC06AD0790005012028EF1FA
:10179B00A7E4900053F0900053E0FF22900013E079
:1017AB006401702D90000E120297900011ECF0A3C3
:1017BB00EDF0A37402F0E4A3F0ED543F701390002E
:1017CB000BE06C7003A3E06D6007900014E0441015
:1017DB00F0227D01FCF1A7E42212028E9000500250
:1017EB00029790004F74FFF090000BE0229000A145
:1017FB00E064027025787B7C007D017B017A0079A7
:10180B0066FE7F0912016E12006E600A14600914E5
:10181B006008800001B78003510D22300878716D8C
:10182B007152C4135407FE9000AD711A7175FF907D
:10183B0000AD71A511AF718B9000AD717F54DF11AD
:10184B00AFFE5402316554BF4DFF9000AD71B390A4
:10185B0000AE314954DF4DFF9000AE11A27198904C
:10186B0000AE715B9000B0F090007FE09000B1F0A3
:10187B00900080E09000B2F0900081E09000B37196
:10188B00CD316C9000AFEFF0C2087B017A0079ADDF
:10189B0071337408713A22F0EE540233333354F837
:1018AB00FEEF54EF4EFFF090007CE0222008022167
:1018BB0048716DF09000A37152C4135407FE900051
:1018CB00A4711A7175FF9000A471A511AF718B9063
:1018DB0000A4717F54DF11AFFE5402316554BF4D2C
:1018EB00FF9000A471B39000A5314954DF4DFF90D8
:1018FB0000A511A271989000A5715B9000A7F090C4
:10190B00007FE09000A8F0900080E09000A9F0909C
:10191B000081E09000AAF0900082E09000ABF09084
:10192B000083E09000AC71CD316C9000A6EFF0C25B
:10193B00087B017A0079A37133740A713A22E0545F
:10194B00FE4EFEF0EF5410131313541FFFEE54FD15
:10195B004FFFF090007DE0FE5401C43354E0FDEFE7
:10196B002254012E90003BF0FBE4FFEF1460438008
:10197B00007E08ED640270137E02510470031E801A
:10198B0075E5824583706F7E03806BED70137E0669
:10199B00510470030E805FE582458370597E05808C
:1019AB005551047003FE804EE582458370487E04DA
:1019BB008044E4FEED640270137E03510470031E39
:1019CB008034E5824583702E7E04802AED70157E6F
:1019DB0007EBFD7C00640270030E801AED4C701651
:1019EB007E068012EBFD7C00640270047E01800693
:1019FB00ED4C70027E05AF0622EBF5827583006419
:101A0B0002222008026119E4900084F0A37414717F
:101A1B00521313543FFE900087E054DF4EFEF0EF5D
:101A2B005420C313FFEE54EF712A54103333335445
:101A3B00F8FDEF547F714A5440FEEF54BF11AFFED7
:101A4B005401FDEF54FE714A5404C313FEEF54FDD1
:101A5B004EF090007CE0FF30E10890008874FFF0BE
:101A6B008008900082E0900088F0EF30E30890004F
:101A7B008974FFF08008900083E0900089F090005B
:101A8B007CE0FF5410FE900086E054EF4EFEF0EF2A
:101A9B005420FFEE54DF4F11B0FE5440FDEF54BF06
:101AAB0071425480FEEF547F7166FF90008AE4F020
:101ABB00A3EFF090007FE0FF90008CE4F0A3EFF039
:101ACB00900080E0FF90008EE4F0A3EFF090008197
:101ADB00E0FF900090E4F0A3EFF090007BE0FF5468
:101AEB0001FE900086E054FE4EFEF0EF540271268C
:101AFB005408FDEF54F771425404FEEF54FB4EF0C3
:101B0B00C2087B017A00798471337414713A22E034
:101B1B0054FB4EFEF0EF5420C4540FFFEE54FD4F18
:101B2B00FFF090007BE0FE22900056E4F0A322F041
:101B3B00D2037F01020D924DFF900086F0EE224DF5
:101B4B00FF900087F0EE22F090007BE0FF548022A4
:101B5B00F0EE5480C4540FFEEF54F74EF090007E1D
:101B6B00E02290003A7401F0A3225410C313FDEF4E
:101B7B0054F74D22F0EE540433333354F8FEEF2276
:101B8B00FE5401C454F0FDEF54EF4DFF22FE5440C0
:101B9B00C4540FFDEF54FB4DFF22F0EE5440C41321
:101BAB00135403FEEF54FE22F0EE5408C454F0FE1F
:101BBB00EF547F4EF090007CE0FF5420C413540789
:101BCB00FE22F090007BE0FF13135401FEC374015F
:101BDB009EFEEF13131354012E90003AF0FD90006C
:101BEB007BE0FFC3135401FEC374019EFEEF22C0C2
:101BFB00E0C083C082C0D075D000C000E5B9540FDF
:101C0B001202F01C3D011C54021C5E041C27091C13
:101C1B00330A1C590C1C590D00001C6153B9F6906A
:101C2B000063E4F091AB802E53B9F5900062E4F0C1
:101C3B008024E5B954106410700553B9EF800590FA
:101C4B00006391AB53B9FE800D53B9FD800853B9B6
:101C5B00FB804253B9FBE5AB54047036900062E055
:101C6B002465F582E43400F583E5BCF0900062E076
:101C7B007006900060740AF0900062E004F090002F
:101C8B0060E014F0E070CF200CCCD20C900062F02E
:101C9B0080C453B9DFD000D0D0D082D083D0E03213
:101CAB00E02470F582E43400F583E0F5BB9000632B
:101CBB00E004F02275A72053BAFD43BA0275A710B2
:101CCB0053987F329000B591EA400CEF25E0FEE48B
:101CDB0033A3F0A3CEF022E49000B6F0A3F022E001
:101CEB00FFD394007480948022900051EFF0900009
:101CFB0053120297900052EDF091EC4040E5AE206C
:101D0B00E7FB900051E0FE44E0F5AE900053E01489
:101D1B0060152403601D24FE7023900052120A1CD0
:101D2B00AD01AB060222B5900052120A1CAC02B1F7
:101D3B0049A1D5900052120A1CB149B1BB22AD0189
:101D4B00900051E0FB2290004F7400F0A37405F05B
:101D5B00F1D4AA06F97B017D08E4FF91F4120E3A47
:101D6B00A3A3B198B1B3EEF0A3EFF0ED2404B192BD
:101D7B00FDB1AAEEF0A3EFF0ED2406B1922406B16B
:101D8B00ACEEF0A3EFF022F582E43CF583E0FCA38C
:101D9B00E0FAECFFEAFE90004FE0FCA3E022ED241A
:101DAB0004F582E43CF58322FDF5828C83A3A32208
:101DBB00A8051FEF600BE5AE20E7FBE5AFF208804F
:101DCB00F1E5AE20E7FBB1F1F2228D828C831FEFA0
:101DDB00600BE5AE20E7FBE5AFF0A380F1E5AE20AD
:101DEB00E7FBB1F1F022EB4420F5AEE5AF22F1DCDD
:101DFB00F1EC90004FEFF0C3900012E09F900011B8
:101E0B00E09400500FD180A3E04402F09000507496
:101E1B00F2F0804DD187E4FF91F490004FE0FFFD8D
:101E2B007C0090000FD1C1C3900012E09DFD90008B
:101E3B0011E09CFCF0A3EDF0E4900050F0ED4C7041
:101E4B0019EF6440601475AE1175AF48E5AE20E72D
:101E5B00FBD180A3E054FEF08007F1BFE5AE20E795
:101E6B00FB300310900050E0FD90004F120FCBE4BD
:101E7B00FF120FDF229000137401F02290004FE04D
:101E8B00FD90000E02028ED18090001A7406122370
:101E9B00E575AE0F75AF8FE5AE20E7FBF1C6E5AE8E
:101EAB0020E7FB75AE0B75AF0FE5AE20E7FB7F03AD
:101EBB0012103F020096EC8DF00201DAC2037F0193
:101ECB0012099A1220B3501475AE94E5AE20E7FBBD
:101EDB0053AFBFE5AE20E702E18280F712218540C8
:101EEB0002E182F1B4F0F1CD6007F18674F9F08074
:101EFB0066F1E4900027E09F900026E09400500AE2
:101F0B00900028F18374F2F0804D90002312028E22
:101F1B007F0191F490002912219E900027E09DF003
:101F2B00900026E09CF0900024D1C1900026E07038
:101F3B0002A3E06005EF644060089000287401F094
:101F4B00D203E490004FF075AE94E5AE20E7FB535F
:101F5B00AFFEE5AE20E7FB900029E0FF54016401E2
:101F6B007015300304EF54FEF012219190002612ED
:101F7B000FD27F03120FDF227401F0A3E04402F0B3
:101F8B0090004F227F17AD07ED4480F5AEE5AE20F4
:101F9B00E7FBAFAFEF7F00FEED144480F5AEE5AE8F
:101FAB0020E7FBADAFEF4DFF22F18F90004EEF22FC
:101FBB007F0D80D275AE1175AF402275AE0175AF36
:101FCB000122900028E064032290004FE0FEA3E082
:101FDB0022900014E01392032290004EE0FDFFC309
:101FEB002275AE96E5AE20E7FBAFAF22EF600EC3D6
:101FFB00748094805007E49000B5F080059000B594
:10200B00EFF0021CCF75AE86E5AE20E7FBAFAF223B
:10201B0075AE82E5AE20E7FBAFAF2275AE84E5AEC1
:10202B0020E7FBAFAF2275AE8EE5AE20E7FBAFAF7F
:10203B002275AE91E5AE20E7FBE5AFA2E42275AECB
:10204B0091E5AE20E7FBE5AFA2E22275AE91E5AEDE
:10205B0020E7FBE5AF132275AE91E5AE20E7FBE57C
:10206B00AFA2E12275AE91E5AE20E7FBE5AFA2E5AD
:10207B002211AC75AF08E5AE20E7FB75AE91E5AE6E
:10208B0020E7FBE5AF20E3F375AE1175AF08E5AEC6
:10209B0020E7FB75AE91E5AE20E7FBE5AF20E3F360
:1020AB002212099A75AE112275AE94E5AE20E7FBAC
:1020BB00E5AFA2E622C2037F0212099A11B35014B4
:1020CB0075AE94E5AE20E7FB53AFBFE5AE20E7025C
:1020DB00217D80F731854002217D121FB4F0317EC6
:1020EB006008121F8674F9F08069121FE490002EAD
:1020FB00E09F90002DE09400500B90002F121F8357
:10210B0074F2F0804E90002A12028E7F02121CF4A1
:10211B00900030319E90002EE09DF090002DE09CC1
:10212B00F090002B121EC190002DE07002A3E06016
:10213B0005EF6440600890002F7401F0D203E49027
:10214B00004FF075AE94E5AE20E7FB53AFFEE5AE66
:10215B0020E7FB900030E0FF540164017014300362
:10216B0004EF54FEF0319190002D120FD27F041228
:10217B000FDF2290002FE064032275AE94E5AE20B2
:10218B00E7FBE5AF132290004FE0FD90004EE0FB24
:10219B007A0022E054FDF090004EE0FFFD7C00C37E
:1021AB002212099A75AE1475AF10E5AE20E7FB75D8
:1021BB00AE94E5AE20E7FBE5AF20E4F375AE147506
:1021CB00AF10E5AE20E7FB75AE94E5AE20E7FBE57F
:1021DB00AF20E4F322AFA7121E8075A72043B38074
:1021EB0075A72043B3408FA72290003B1202979014
:1021FB00003EE5A7F051A4120099E4FFEFC3943A17
:10220B0074809480500F74002FF582E43400F583B2
:10221B00E4F00F80E7518A1202A0900031518790B1
:10222B0000031202C090003451879000061202C0C6
:10223B0090003751879000091201AD900002F051C8
:10224B00AB43B32075A72053B57F75AE0175AF08AF
:10225B00E5AE20E7FB75AE0B75AF0FE5AE20E7FBE8
:10226B0031E09000037403F0120FFC90003EE0F598
:10227B00A7121FC6E5AE20E7FB7F00221202979044
:10228B00003B02028EAFA775A72053B37F8FA72207
:10229B0051A45190E4FF02103F75A71053CEFE22BC
:1022AB0075A72053B5F875A72022A8051FEF600A64
:1022BB00E5AE20E7FBA6AF0880F2E5AE20E7FBEB2F
:1022CB004420F5AEA6AF22A805AE071FEE600BE5C6
:1022DB00AE20E7FBE6F5AF0880EF228D828C83AE54
:1022EB00071FEE600BE5AE20E7FBE0F5AFA380EF39
:1022FB0022A805AE071FEE600BE5AE20E7FBE2F56B
:10230B00AF0880EF228D828C83AE071FEE600CE549
:10231B00AE20E7FBE493F5AFA380EE22900003E041
:10232B00713540057F0512103F22C39402748094CF
:10233B008022900004E0FF02103FE4FF12099A9004
:10234B0000137405F075AE1175AF60E5AE20E7FBB9
:10235B0022120FF5920475A71053CEFE9000531264
:10236B00028E900058E0FEA3E0FFF5828E831202EE
:10237B00979000562275F007A4240EF9740035F0DF
:10238B00FEAF01900058F0A3EFF08E832405F58289
:10239B00E43583F583E0FF2290004FF0900009A312
:1023AB00E0547FFF12099A90000AE02278717C00BA
:1023BB007D017B017A0079997E007F0902016EF025
:1023CB00A3EDF0900058E0FEA3E0FF24052290005F
:1023DB004FE0FF3395E0FEEF4E22F0900021F0909E
:1023EB000028F090002FF0222405F582E43583F5C8
:1023FB0083E064012275F007A4240EF9740035F014
:10240B002290001C12028ED2057F02229000151220
:10241B00028ED2057F012212029790005AE5A7F097
:10242B0022E475F0010201DAD3EF9440EE9400221E
:10243B0090004EEFF07E0022C3EF9405EE94002245
:10244B00F0A203E4335401228F828E83A3A3A32231
:00000001FF
