:020000040000FA
:100000000203600000221124E49000A5F0C2AF7545
:10001000A72053BAFE43BA44D2AF3009FD121FD312
:10002000C20980E990003AE5A7F0F1DD11531167AC
:10003000114A114F114B117E115D12083B12082914
:10004000114990003AE0F5A722222275D1082275C5
:10005000E3402275C90875A72075C68422E4F5A976
:10006000E5A9548060FA22E4F5A77580FE75A40125
:1000700022222222900013E0640322020E6243B186
:1000800080E5B15440644070F82290004CEEF0A33B
:0A009000EFF0220221A5C322222274
:10009B000222DFE709F608DFFA8046E709F208DFFC
:1000AB00FA803E88828C83E709F0A3DFFA8032E383
:1000BB0009F608DFFA8078E309F208DFFA80708826
:1000CB00828C83E309F0A3DFFA806489828A83E060
:1000DB00A3F608DFFA805889828A83E0A3F208DF4F
:1000EB00FA804C80D280FA80C680D4806980F280FE
:1000FB0033801080A680EA809A80A880DA80E28024
:10010B00CA803389828A83ECFAE493A3C8C582C878
:10011B00CCC583CCF0A3C8C582C8CCC583CCDFE9E2
:10012B00DEE7800D89828A83E493A3F608DFF9EC7E
:10013B00FAA9F0EDFB2289828A83ECFAE0A3C8C509
:10014B0082C8CCC583CCF0A3C8C582C8CCC583CC30
:10015B00DFEADEE880DB89828A83E493A3F208DF9F
:10016B00F980CC88F0EF60010E4E60C388F0ED246F
:10017B0002B4040050B9F582EB2402B4040050AF72
:10018B0023234582239000EE73BB010689828A8369
:10019B00E0225002E722BBFE02E32289828A83E43B
:1001AB009322BB010CE58229F582E5833AF583E0C6
:1001BB00225006E92582F8E622BBFE06E92582F8E5
:1001CB00E222E58229F582E5833AF583E49322C5A1
:1001DB00F0F8A3E028F0C5F0F8E58215827002155F
:1001EB0083E038F022BB0110E58229F582E5833AE2
:1001FB00F583E0F5F0A3E0225009E92582F886F0BB
:10020B0008E622BBFE0AE92582F8E2F5F008E222B5
:10021B00E5832AF583E993F5F0A3E99322EB9FF5A8
:10022B00F0EA9E42F0E99D42F0E89C45F022E0FCAA
:10023B00A3E0FDA3E0FEA3E0FF22E0F8A3E0F9A317
:10024B00E0FAA3E0FB22ECF0A3EDF0A3EEF0A3EFBA
:10025B00F022A8828583F0D083D08212027412021E
:10026B0074120274120274E473E493A3C583C5F091
:10027B00C583C8C582C8F0A3C583C5F0C583C8C5EF
:10028B0082C822E0FBA3E0FAA3E0F922EBF0A3EA99
:10029B00F0A3E9F022BB010789828A8302028E5008
:1002AB0005E9F8020342BBFE05E9F802034B89821C
:1002BB008A83020354BB010DE58229F582E5833A5B
:1002CB00F58302028E5007E92582F8020342BBFE3A
:1002DB0007E92582F802034BE58229F582E5833A8B
:1002EB00F583020354D083D082F8E4937012740127
:1002FB0093700DA3A393F8740193F5828883E47331
:10030B007402936860EFA3A3A380DFEF4E6012EF3C
:10031B0060010EEDBB010B89828A83F0A3DFFCDE4B
:10032B00FA2289F05007F709DFFCA9F022BBFEFC8B
:10033B00F309DFFCA9F022E6FB08E6FA08E6F9224E
:10034B00E2FB08E2FA08E2F922E493FB740193FA68
:10035B00740293F922120005787FE4F6D8FD7581BB
:10036B00210203AA020006E493A3F8E493A340033B
:10037B00F68001F208DFF48029E493A3F8540724F4
:10038B000CC8C333C4540F4420C8834004F45680B4
:10039B000146F6DFE4800B01020408102040809038
:1003AB0003EFE47E019360BCA3FF543F30E5095497
:1003BB001FFEE493A360010ECF54C025E060A8405C
:1003CB00B8E493A3FAE493A3F8E493A3C8C582C853
:1003DB00CAC583CAF0A3C8C582C8CAC583CADFE928
:1003EB00DEE780BE4100A9044100A3014100A50046
:1003FB004100A400C108C1074B00620000000000CF
:10040B000000000000004100600041005E09C109CE
:10041B004B006D00000000000000000000004100D8
:10042B00610041005F0949007800000000000000F6
:10043B0000004A009100000000000000000000488E
:10044B00009B000000000000000050008100000035
:10045B00000000000000000000000000000004038A
:10046B000904011E0348616E6448656C644C656742
:10047B00656E640001080348415800011203584996
:10048B002057697265640005010905A10185010901
:10049B0001A10009300931150027FFFF000095026B
:1004AB0075108102C00901A1000933093415002719
:1004BB00FFFF0000950275108102C005010932157E
:1004CB000026FF039501750A8102150025007506AC
:1004DB009501810305010935150026FF039501756B
:1004EB000A81021500250075069501810305010996
:1004FB0039150125083500463B0166140075049536
:10050B000181037504950115002500350045006533
:10051B0000810305091901290A15002501750195AB
:10052B000A81021500250075069501810305010955
:10053B00808502A1000985150025019501750181B2
:10054B000215002500750795018103C0050F0921D0
:10055B008503A102099715002501750495019102E8
:10056B00150025007504950191030970150025648C
:10057B007508950491020950660110550E15002659
:10058B00FF0075089501910209A7150026FF00755C
:10059B00089501910265005500097C150026FF00A6
:1005AB00750895019102C0850405060920150026E2
:1005BB00FF00750895018102C01201100103FFFFB6
:1005CB00405E04130B7205010200010902290001B0
:1005DB00010080FA09040000020300000009211148
:1005EB0001000122320107058103400002070502C9
:1005FB0003400004FF0469FF046DFF0486FF047FC2
:10060B00FF05C4FF05D6FF05FF0404030904011E03
:10061B000348616E6448656C644C6567656E640085
:10062B0001080348415800011203444920576972DD
:10063B0065640005010905A101A1018501050915E5
:10064B00002501350045017501950E1901290E8113
:10065B00029502810105012507463B0175049501B1
:10066B0065140939814265009501810126FF004619
:10067B00FF0009300931093209350933093475088E
:10068B0095068102C0A1010600FF09018502150034
:10069B0026FF00750895088102C0A1010600FF091D
:1006AB00018502150026FF00750895089102C0C050
:1006BB001201100100000040D62013A70001010217
:1006CB0000010902290001010080FA090400000160
:1006DB0003000000092111010001227D00070581A3
:1006EB000340000207050203400002FF0615FF0648
:1006FB0019FF0632FF062BFF06BBFF06CDFF06F6E2
:10070B000404030904011E0348616E6448656C64AC
:10071B004C6567656E64000108034841580001127F
:10072B00034E532057697265640005010905A10149
:10073B0015002501350045017501950E05091901B7
:10074B00290E81029502810105012507463B0175A2
:10075B0004950165140939814265009501810126D3
:10076B00FF0046FF0009300931093209357508953C
:10077B00048102750895018101050C09001580257E
:10078B007F75089540B102C01201100100000040B6
:10079B00D62013A70001010200010902220001016A
:1007AB000080FA0904000001030000000921110177
:1007BB000001225E0007058103400002FF070CFFCA
:1007CB000710FF0729FF0722FF0793FF07A5FF0766
:1007DB00C704E4F5A77597A590003B515D00000099
:1007EB0000E47F19FEFDFC90003B5145C35128509E
:1007FB001C0090003B120239EF2401FFE43EFEE4A3
:10080B003DFDE43CFC90003B12025180D4A2AF9220
:10081B0000C2AF7597DE7597ADA20092AF22E4F5DB
:10082B00A775E60175A71075CE09F5A775A88022E7
:10083B0075A72075BD4543BA1843BA0222900050E4
:10084B00EFF0A3EDF0640670099000A404F0E4FF50
:10085B00801D900051E0FF7E0064017002800BEF61
:10086B0064054E6004EF4E7005E49000A4F022EF97
:10087B00600EC3748094805007E49000A6F080054E
:10088B009000A6EFF09000A612268F9480400CEFFC
:10089B0025E0FEE433A3F0A3CEF022E49000A7F012
:1008AB00A3F02290004EEFF0900003E090004FF089
:1008BB00C3940574809480400F90004EE0940574AF
:1008CB0080948050031223B690004EE0FD640570B7
:1008DB0006A3E0900004F090004EE0FE900003F0C1
:1008EB0090004FE0FF6E600211482212265FFEA3BC
:1008FB00E0FFC39480EE9400505B90000BE070021D
:10090B00A3E07051900005E0541F7049900009E07E
:10091B007002A3E0703F900003E06403700AEF4E97
:10092B0060197F0411AE8013121F257013900007FE
:10093B00E07002A3E070047F0311AEE490004DF071
:10094B00121F697010F5AE900007A3E04480F5AF5D
:10095B00E5AE20E7FB90004DE0FF2212265F600220
:10096B00410F900005E0541F6002410F90000BE017
:10097B007002A3E06002410F900009E07002A3E057
:10098B006002410F121F25703D51CC601490003452
:10099B0012028E9000051201ADFDEF6D7001EE702D
:1009AB006351D690003412028E9000051201ADFFF8
:1009BB00900007E0B4000DA3E0B50708D203511572
:1009CB007F0611AE8039121372703951CC601790BB
:1009DB00003412028E9000051201ADFD7C00EFB5C4
:1009EB000522ECB5061E51D6900007E07002A3E07D
:1009FB0070097F0411AE1223B68004C2035115E4B3
:100A0B0090004DF090004DE0FF2230030990001A4A
:100A1B0074011222AEF0D20451C37F015137D204BC
:100A2B0051C37F0251BF7F0151BF7F02AE07E4FB71
:100A3B0051E0300513A8067E007410088005C333FF
:100A4B00CE33CED8F9FF8013AF067E007420A807F3
:100A5B00088005C333CE33CED8F9FFD3ED9FEC9E80
:100A6B005004EB4480FB300604EB4440FB30041E87
:100A7B00EB4420FB3005034404FB121B43E5AE2083
:100A8B00E7FB75AE128BAFE5AE30E72780F975AE9D
:100A9B001475AF80E5AE20E7FB75AE15AF038FAFD6
:100AAB00E5AE20E7FB20050B75AE12E4F5AFE5AE26
:100ABB0020E7FB225137C204D205C2067D407C00E1
:100ACB0022900007E0FEA3E0FF4E22900007A3E078
:100ADB00900000F02275AE0E8FAFE5AE20E7FB2243
:100AEB00C2057D01E4FF900059EFF0A3EDF0A312D6
:100AFB000297E5AE20E7FB900059E04420F5AE905D
:100B0B00005BE01460132403601A14602014702639
:100B1B007161AD0112252E801D7161AC02AD011208
:100B2B00258080127161AD0112259680097161AC2F
:100B3B0002AD011225AA30051C90005912268F9484
:100B4B0080401251E075AE91E5AE20E7FB43AF015B
:100B5B00E5AE20E7FB2290005AE0FFA302028E12C3
:100B6B001F33900011E0FEA3E0FFC39440EE94000E
:100B7B0040047F40800090004DEFF0A3F090000DFB
:100B8B00E0FF547F64017058EFB1AB7024A31202E5
:100B9B008EC2057D02E4FF51F190000FE475F00267
:100BAB001201DA90004DE024FEF090000DE0547F2E
:100BBB00F0E490004FF090004DE0C313FF90004F16
:100BCB00E0C39F50321218AA51EB90000F121F2C4A
:100BDB007BFF7A00790351EB90004FE004F080D655
:100BEB001218A5C205E4FF51F190004DE0FF9000F3
:100BFB000FE48FF01201DA900014E054FBF0900038
:100C0B004EE0FFC3900012E09FFF900011E09400B4
:100C1B00FEF0A3EFF04E7021900014E0C45401706D
:100C2B001875AE1175AF0AE5AE20E7FB122687905B
:100C3B00000DF0900014F0801C75AE1175AF02E53D
:100C4B00AE20E7FB900011E07002A3E0700790006C
:100C5B0014E054EFF030030C90004E12193EE4FDFB
:100C6B00FF1218032290004FEFF0900051120297E1
:100C7B00900050EDF0D39400748094804041E5AE29
:100C8B0020E7FB90004FE0FE44E0F5AE900051E012
:100C9B001460142403601D24FE70249000507164B2
:100CAB00AD01AB060225119000507164AC02122607
:100CBB0097022542900050716412269712256622E6
:100CCB0090004C74FDF0E4FF51E012232840051214
:100CDB00231B501B75AE11E4F5AFE5AE20E7FB759A
:100CEB00AE1175AF80E5AE20E7FB122687A3F0129D
:100CFB0023354002A199900014E0FFB1AC7003EFD3
:100D0B00A196900013E06401707390000DF0B1F8A0
:100D1B007E007F05F17190004CEFF03395E0FEBE45
:100D2B00FF12BFFD0F90000512266A7007B1B49039
:100D3B00004CEFF0E4FF51E090004C121F6C703848
:100D4B0090000BE07002A3E0700D75AE1175AF480B
:100D5B00E5AE30E73980F9121B43E5AE20E7FB9097
:100D6B000005E0FFC41313135401702212007460CA
:100D7B001DA3E04408F080161225C98011120074DF
:100D8B0070051218198007900014E04402F09000CF
:100D9B0013E0640270071223414002716A22E0FFE4
:100DAB00C41313135401640122E4FF900006E012F4
:100DBB0002F00DDC000DDF010DE2030DE5050DE783
:100DCB00060DEA080DED090DEF0A0DF20B00000DF3
:100DDB00F5021D58021B4A0223F601F6021C4802BB
:100DEB001ED92166021E980224CA7FFF2290004D55
:100DFB007400F0A37405F012267FAA06F97B017D1F
:100E0B0008E4FF9170D13FA3A3D151122671A3EE39
:100E1B00F0A3EFF0ED2404D14BFD240412262AEEAF
:100E2B00F0A3EFF0ED2406D14B240612262AEEF0A8
:100E3B00A3EFF02290004DE0FEA3E0F5828E83221B
:100E4B00F582E43CF583E0FCA3E0FAECFFEAFE90CC
:100E5B00004DE0FCA3E022C0E0C0F0C083C082C024
:100E6B00D075D000C000C001C002C003C004C005D3
:100E7B00C006C0071200711222EF900048EFF0126B
:100E8B0022FA900049EFF012230590004AEFF0127E
:100E9B00231090004BEFF0900048E030E354121B0E
:100EAB003F12008A900014E0FF12267870051200A2
:100EBB0074600DEFB1AD700F900013E0640270071A
:100ECB00900049E04401F0900029E0122678700C64
:100EDB00121C39700790004AE04402F0900030E099
:100EEB00FF122678700C121C32700790004AE044F7
:100EFB0004F0900048E030E203122271900048E0C9
:100F0B0030E1031225C1900048E030E003122503C5
:100F1B00900049E030E2031213A6900049E030E163
:100F2B00031218B090004AE030E203121A05900049
:100F3B004AE030E103121952900049E030E002918F
:100F4B00CB90004BE0FF51E0120072D007D006D0DF
:100F5B0005D004D003D002D001D000D0D0D082D0A5
:100F6B0083D0F0D0E03290004DEEF0A3EFF0A374FD
:100F7B00FDF0D13F12266A60030210A3EFB1AB6004
:100F8B00030210A3D13FE0541F640160030210A3BE
:100F9B00A3E024FA6003021170D15A122671A3E068
:100FAB006422707CED240412262AE0FEA3E0600389
:100FBB00021170EE600302117012207B602414602A
:100FCB004080007BFF7A06793E12117612118994CC
:100FDB007DEE9400400A7C007D7D7E007F7D803C11
:100FEB00803A7BFF7A077935121176121189945E5C
:100FFB00EE9400400A7C007D5E7E007F5E80008068
:10100B001B7BFF7A047992317631899432EE94010D
:10101B00400A7C017D327E017F3280003190213984
:10102B00120E5A122671A3E0642160022170ED2486
:10103B000412262AE0FEA3E060022170EE6002217A
:10104B007012207B601E14603480007BFF7A06795F
:10105B00DF317631899409EE9400400651CD7F093A
:10106B00803280307BFF7A0779B7317631899409EA
:10107B00EE9400400651CD7F09800080177BFF7AEC
:10108B000579E8317631899409EE9400400651CD0B
:10109B007F09800031902139120E3F12266A6401BC
:1010AB0060022170EF541F64016002217012267FD1
:1010BB00FF2404317FE0FCA3E04C600221708F829F
:1010CB008E83A3E024FE606824F860440460022150
:1010DB0070120E3FA3A3E0FCA3E0FDEC64026002E0
:1010EB002170ED6002217090004DA3E0FF317DE097
:1010FB00FCA3E064014C706D8F828E83E0120DAB0C
:10110B0060637179F0A304F0D203E4FF5147805080
:10111B0090004D51C3A3A3A3E0704AEF317DE0FED5
:10112B00A3E04E7040120E3FE0120DAB60378030E3
:10113B0090004D51C3A3A3E0FCA3E04C7027EF310B
:10114B007DE0FEA3E064014E701B120E3F120DA951
:10115B007013F1F29000AAEFF07179F0A3043197BC
:10116B00E490004FF090004FE0FF2290004DE0FE26
:10117B00A3E02406F582E43EF5832290001FE0FEF7
:10118B00A3E0FFD322900054EEF0A3EFF0C203E4F0
:10119B00FF900050EFF0A3F1E8900050E024FD50D9
:1011AB000580007FFC22900050E0FE6007717260AA
:1011BB00037FF722EE7184FF6401600AEF64057F01
:1011CB00FE70787FFB2251B0F1C8FCA3E0FDF1E08B
:1011DB00EC1226312405317F7402F1D8FBEF317DFF
:1011EB00E054FE4BF0900050E01460101460252486
:1011FB00027037900014E04404F0802ED3ED94403D
:10120B00EC940040047D408006900054A3E0FD1256
:10121B001F5E801390005431899440EE9400AD070B
:10122B0040027D40122654120AF130040675A710B5
:10123B0043CE01900058E0F5A77F0022900051F1BA
:10124B00E8EF600C24FD600814600580007FFC2231
:10125B00EF6007717260037FF722EF7184FF640107
:10126B00600AEF64057FFE703B7FFB2251B0F1C833
:10127B00FDA3E0F1E0CD1226312405317F7403F19B
:10128B00D8FDEF317DE054FE4DF09000563179E002
:10129B0054F7F030040675A71043CE01900058E0C8
:1012AB00F5A77F002251D4920475A71053CEFE9060
:1012BB00005112028E900056E0FEA3E0FFF5828EE5
:1012CB0083227C007D097E002275A710E5CE1322B8
:1012DB00900052EFF0E4900055F0A3E5A7F09000DA
:1012EB0052E06009C39405748094804008900055C7
:1012FB0074FCF0805D51D4920475A71053CEFE9010
:10130B000052E075F007A4240EF9740035F0FEAF1F
:10131B0001A371956401603A900052E024FE600EC7
:10132B00146012146013240370147F0180027F0277
:10133B0012234E80097F0180027F021223829000CC
:10134B0053E0FEA3E0FF2405317F7401F0EF317D04
:10135B00E4F030040675A71043CE01900056E0F57B
:10136B00A7900055E0FF22900003E06406227B016A
:10137B007A0079AA900054E42275F007A4240EF9A0
:10138B00740035F0FEAF01900056F0A3EFF08E83A2
:10139B002405F582E43583F583E0227F02120AE00F
:1013AB00121F75500D75AE11E4F5AFE5AE30E77752
:1013BB0080F9900021E06402706D31869440EE94C8
:1013CB000040047F408000121F43C3900020E09F29
:1013DB00F090001FE09EF090001DEE8FF01201DAEE
:1013EB00900022E013920331869400EE9400401794
:1013FB00121F3B40047D40800690001FA3E0FD12AE
:10140B002654120AF1800D900022E054FEF0900059
:10141B00217401F0300310121AEF90001F121945BE
:10142B00E4FD7F0212180322F1B2C4135407FE909D
:10143B00009B1225E0FF90009BF0EEF1A6EF54FE0F
:10144B0091CBF1F8FF90009BF1BA91CB5402B18E86
:10145B0054BF4DFF90009B1226025407FE90009C38
:10146B00B17254DF4DFF90009C91BE122649FF9044
:10147B00009C122619E090009EF090007CE09000FA
:10148B009FF090007DE09000A0F090007EE0900037
:10149B00A1B19590009DEFF0300717C2077B017A41
:1014AB0000799B900054E4F0A37408F0D2037F0101
:1014BB00319C22F0EE540233333354F8FEEF54EFE9
:1014CB004EFFF0900079E0FE22900091F1AFC41333
:1014DB005407FE9000921225E0FF900092F0EEF17F
:1014EB00A6EF54FE91CBF1F8FF900092F1BA91CB9D
:1014FB005402B18E54BF4DFF900092122602540736
:10150B00FE900093B17254DF4DFF90009391BE1289
:10151B002649FF900093122619E0900095F0900059
:10152B007CE0900096F090007DE0900097F09000AA
:10153B007EE0900098F090007FE0900099F0900092
:10154B0080E090009AB195900094EFF0300717C2AD
:10155B00077B017A007991900054E4F0A3740AF0B0
:10156B00D2037F01319C22E054FE4EFEF0EF54106B
:10157B00131313541FFFEE54FD4FFFF090007AE04E
:10158B00FE5401C43354E0FDEF22F0900078E0FFED
:10159B0013135401FEC374019EFEEF131313540176
:1015AB002EFFE0FEC3135401FDC374019DFDEE54E9
:1015BB00012DFEAD07FBE4FFEF14604980007E08B0
:1015CB00ED640270157E02D159640270031E807B9C
:1015DB00E582458370757E038071ED70157E06D1B3
:1015EB0059640270030E8063E5824583705D7E054E
:1015FB008059D15964027003FE8050E58245837097
:10160B004A7E048046E4FEED640270157E03D159D8
:10161B00640270031E8034E5824583702E7E048045
:10162B002AED70157E07EBFD7C00640270030E80C3
:10163B001AED4C70167E068012EBFD7C0064027076
:10164B00047E018006ED4C70027E05AF0622EBF5A1
:10165B008275830022900081F1AFF1A890008FE09A
:10166B0054FD4EFEF0EF5420C4135407FFEE54FE0E
:10167B004FFFF0900078E0FE5410C313FBEF54F7CC
:10168B004BFF90008FF0EE5440C4540FFEEF54FB11
:10169B0091CB5401C454F0FBEF54EF4BFF90008FF0
:1016AB00F1BA4EF0900079E0FB30E10790008AF13F
:1016BB00D0801290007FE075F004A4FF90008AE5C3
:1016CB00F0F0A3EFF0EB30E30790008CF1D0801239
:1016DB00900080E075F004A4FF90008CE5F0F0A37F
:1016EB00EFF0900079E0FF541033333354F8FE9051
:1016FB00008FE0547F4EFEF0EF542025E0FFEE54B8
:10170B00BF4FF0900079E0FFF1A6900090E054FEFF
:10171B004EFEF0EF5480C413135403FFEE54FD4FF1
:10172B00F090007BE0FF900082E4F0A3EFF09000DC
:10173B007CE0FF900084E4F0A3EFF090007DE0FFED
:10174B00900086E4F0A3EFF090007EE0FF9000881D
:10175B00E4F0A3EFF0900078E0FF1312263E131392
:10176B001354012EFDE0FFC312263E54012EFCFB49
:10177B007F01B1C3EF540FFF90008EE054F04FF098
:10178B00300717C2077B017A007981900054E4F08F
:10179B00A37410F0D2037F01319C225440C4131365
:1017AB005403FE227401F0900078E0FF548022F085
:1017BB00EE540433333354F8FEEF54DF2212029706
:1017CB00900054E0227403F0A374FCF022F0A20307
:1017DB00E4335401228F828E83A3A3A32212029798
:1017EB00900058E5A7F0229000A6E0FF225401C418
:1017FB0054F0FDEF54EF4D22900051EDF0A3EAF0C1
:10180B00A3EBF0EF64017002D207E4FEFF22F13389
:10181B00F15390004DEFF0C3900012E09F90001138
:10182B00E09400500E119DE04402F090004E74F2D3
:10183B00F0804D11A5E4FF120C7090004DE0FFFD00
:10184B007C0090000F51DDC3900012E09DFD9000D5
:10185B0011E09CFCF0A3EDF0E490004EF0ED4C7029
:10186B0018EF6440601375AE1175AF48E5AE20E715
:10187B00FB119DE054FEF080077143E5AE20E7FBC2
:10188B0030030E90004EE0FD90004D313EE4FF1111
:10189B0003229000137401F0A32290004DE0FD9001
:1018AB00000E02028E7F01120AE0F175500D75AE2B
:1018BB0011E4F5AFE5AE30E77980F990001AE064FA
:1018CB0002706F9000181211899440EE940040043E
:1018DB007F408000F143C3900019E09FF090001807
:1018EB00E09EF0900016EE8FF01201DA90001BE0F4
:1018FB001392039000181211899400EE9400401576
:10190B00F13B40047D408006900018A3E0FDF15EA2
:10191B00120AF1800D90001BE054FEF090001A7437
:10192B0001F030030D51EF9000183145E4FD7F01BC
:10193B00110322E0FB7A00900011E0FFA3E090007E
:10194B0054CFF0A3EFF022C2037F01120AE071160D
:10195B00501475AE94E5AE20E7FB53AFBFE5AE2058
:10196B00E702410480F7710A4002410451E3F09110
:10197B0039600551FFF0806451F7900027E09F908C
:10198B000026E0940050079000287130804E9000A4
:10199B002312028E7F01120C709000297123C390C9
:1019AB000027E09DF0900026E09CF090002451DD94
:1019BB00900026E07002A3E06005EF6440600890A1
:1019CB0000287401F0D203E490004DF075AE94E55D
:1019DB00AE20E7FB53AFFEE5AE20E7FB900029E01E
:1019EB00FF540164017012300304EF54FEF051EA0E
:1019FB0090002631457F03110322C2037F02120A96
:101A0B00E07116501475AE94E5AE20E7FB53AFBFF3
:101A1B00E5AE20E70241B780F7710A400241B751AA
:101A2B00E3F09132600551FFF0806451F790002E86
:101A3B00E09F90002DE09400500790002F713080B4
:101A4B004E90002A12028E7F02120C7090003071A1
:101A5B0023C390002EE09DF090002DE09CF09000B1
:101A6B002B51DD90002DE07002A3E06005EF644088
:101A7B00600890002F7401F0D203E490004DF075D4
:101A8B00AE94E5AE20E7FB53AFFEE5AE20E7FB904F
:101A9B000030E0FF540164017012300304EF54FE78
:101AAB00F051EA90002D31457F041103227F17ADD1
:101ABB0007ED4480F5AEE5AE20E7FBAFAFEF7F005F
:101ACB00FEED144480F5AEE5AE20E7FBADAFEF4D78
:101ADB00FF22EC8DF00201DA51B890004CEF22900E
:101AEB00004DE0FD90004CE0FB7A002290004CE0B2
:101AFB00FDFFC322A3E04402F090004D74F9227560
:101B0B00AE94E5AE20E7FBE5AF132275AE94E5AEE0
:101B1B0020E7FBE5AFA2E622E054FDF090004CE09D
:101B2B00FFFD7C00227401F0A3E04402F090004D15
:101B3B0074F2F0227F0D41BA75AE1175AF40229051
:101B4B00004D74FFF090000BE07002A3E060028187
:101B5B002C900005E0541F24FE60362402600281A5
:101B6B002C900009E07002A3E06002812C9000072A
:101B7B00E07004A3E064016002812C900003E0C3D9
:101B8B009404748094805002812CE4900001F080C6
:101B9B0022900007E07002A3E06002812C91405478
:101BAB007FFF4E7014900003E0C394047480948004
:101BBB004007E490004DF08068F14B5064121372B3
:101BCB00705FF18230E7077143E5AE20E7FB9000D1
:101BDB000AE020E71875AE94E5AE20E7FB53AFDFC4
:101BEB00E5AE20E7FB43AF80E5AE20E7FB90000AB4
:101BFB00E024FE60112481601314601A248170218B
:101C0B009139601D801891326017801290001AE094
:101C1B006402600D8008900021E06402600374018F
:101C2B00F090004DE0FF2290002FE0640322900023
:101C3B0028E0640322900009E0FEA3E022E4FDFC0F
:101C4B0090005174FFF0900005E064806002A149A0
:101C5B00900007E0FAA3E090004DF0EAFFE4600289
:101C6B00A126EF24FE602414604424026002A12606
:101C7B0090004DE06002A126900031B14F900031F1
:101C8B0012028E1201947C00FDA12690004DE060A3
:101C9B0002A126900034B14F90003412028E9000B6
:101CAB00021201F0FAE5F0FFEAFCEFFD806D900007
:101CBB003712028E90004DE0FF75F003A4F582857C
:101CCB00F0831202C0B152EF700CFC7D0490000D3A
:101CDB00E05480F080459140FF4E600AEF6409703C
:101CEB0003EE64047035900002E0FF90004DE0C3FA
:101CFB009F5028A312028E9000011201AD7C00FDB3
:101D0B00120194547FFF90000DE054804FFFF09030
:101D1B00004FF12CEF448090000DF0ED4C601F90C4
:101D2B00000BE0FEA3E0FFC39DEE9C5004AC06ADA0
:101D3B000790004E12028ED162E4900051F0900099
:101D4B0051E0FF2212028E90004E02029790004D3E
:101D5B0074FFF090000BE07004A3E064026002C11A
:101D6B0055900007E07002A3E06002C1559000059A
:101D7B00120DA96002C155900003E0C39404748056
:101D8B0094805002C155E49000ABF0A3F0EF541FC8
:101D9B0014603614604424026002C146900009E0CE
:101DAB007002A3E06002C146900001E0600A90005F
:101DBB00ABE04402F0A3E0F0120096504C9000AB65
:101DCB00E04401F0A3E0F08040C390000AE09402ED
:101DDB00900009E094005063802F9140FF547F4E98
:101DEB007006F1257002804F121372704EEF24FEB5
:101DFB00601A248160251460312481703E90002884
:101E0B00E064067004D15BE4F0E4802B90002FE0DB
:101E1B0064067004D15BE4F0E4801C90001AE0646B
:101E2B00067004D15BE4F0E4800D900021E06406C1
:101E3B007004D15BE4F0E490004DF0F169700B7B22
:101E4B00017A0079AB7D02FCD16290004DE0FF225C
:101E5B009000AB04F0A322900013E06401702D906E
:101E6B00000E120297900011ECF0A3EDF0A3740298
:101E7B00F0E4A3F0ED543F701390000BE06C700393
:101E8B00A3E06D6007900014E04410F0229140FF36
:101E9B007DFFC39402EE9400502AA3E07004A3E0EC
:101EAB0064017020900007E07002A3E070169000B0
:101EBB0005E06481700E12137270097BFF7A007952
:101ECB0003D1D2FDAF05227D01FCD162E4227FFF5D
:101EDB00900009E07002A3E0703F900007E07002F1
:101EEB00A3E0703590000BE07004A3E0640170294F
:101EFB00900005E0FE120DAB701FEE541F701AF12F
:101F0B002570087BFF7A007903800B12137270091E
:101F1B007B017A007900D1D2FF22900003E06404A8
:101F2B0022E475F0010201DA900014E0139203220F
:101F3B00D3EF9440EE94002290004CEFF07E002201
:101F4B00C3EF9405EE94002275AE96E5AE20E7FB49
:101F5B00AFAF2290001512028ED2057F01229000A6
:101F6B004DE0FF3395E0FEEF4E2275AE91E5AE20CE
:101F7B00E7FBE5AFA2E52290004DF0900009A3E04E
:101F8B00547FFF120AE090000AE0229000A5E06067
:101F9B0009C207F1A6E49000A5F02275A71053CE55
:101FAB00FEF1B3E4FF0208AEAFA775A72053B37FD2
:101FBB008FA72290003AEFF0F196E49000A3F090F7
:101FCB00003AE09000A3F022900062E01460141439
:101FDB00601314601814601C14601B80001222BB69
:101FEB000203168014900063E0FF022082900063CE
:101FFB00E0FF80BF804A0200987F0190003AEFF02B
:10200B0051BB12031690003AE024FE601B047024AF
:10201B0090006D7401F09000A4E090006EF09000C1
:10202B00A5E090006FF0800C90006D7402F0A20898
:10203B00E433A3F0E4900061F090005F740BF022A6
:10204B009000A4E06401702778787C007D017B010F
:10205B007A007963FE7F0912016E117B600B1460AD
:10206B000B14600B80000214D4021433121660227E
:10207B009000A3E024FE22E490003AF0EF600924E4
:10208B00FE60608000021F96121F96117B601B146E
:10209B006029146037240370527BFF7A0779023171
:1020AB0099EFF07046EF704380317BFF7A0779D35D
:1020BB003199EFF07035EF703280207BFF7A067923
:1020CB000B3199EFF07024EF7021800F7BFF7A07B3
:1020DB0079D33199EFF07013EF70109000A504F0E5
:1020EB00D207227F011182E4FF11822290003B1262
:1020FB00029790003EE5A7F075A71053CEFE120095
:10210B0099E4FFEFC3943A74809480500F74002FBE
:10211B00F582E43400F583E4F00F80E7319F12027F
:10212B00A0900031120297319F9000031202C090D1
:10213B000034120297319F9000061202C0900037B4
:10214B00120297319F9000091201AD900002F051DD
:10215B00A443B32075A72053B57F75AE0175AF08A7
:10216B00E5AE20E7FB75AE0B75AF0FE5AE20E7FBD9
:10217B0051C89000037403F075A71043CE01900073
:10218B003EE0F5A7516AE5AE20E7FB7F002211F791
:10219B0090003A2290003B02028EC0E0C083C082C6
:1021AB00C0D075D000C000E5B9540F1202F021E881
:1021BB000121FF0222090421D20921DE0A22040C8B
:1021CB0022040D0000220C53B9F6900061E4F0518B
:1021DB0056802E53B9F5900060E4F08024E5B95495
:1021EB00106410700553B9EF800590006151565380
:1021FB00B9FE800D53B9FD800853B9FB804253B92A
:10220B00FBE5AB54047036900060E02462F582E489
:10221B003400F583E5BCF0900060E0700690005E42
:10222B00740AF0900060E004F090005EE014F0E0BF
:10223B0070CF2009CCD209900060F080C453B9DF75
:10224B00D000D0D0D082D083D0E032E0246DF582A4
:10225B00E43400F583E0F5BB900061E004F02275F7
:10226B00AE0175AF01229000137401F090001A7447
:10227B000651AEF075AE0F75AF8FE5AE20E7FB5193
:10228B006AE5AE20E7FB75AE0B75AF0FE5AE20E749
:10229B00FB7F031208AE02007375A72053B5F875C8
:1022AB00A72022F0900021F0900028F090002F2220
:1022BB007E007F0B7D007B017A00796D22AFA790AA
:1022CB0000137401F075A72043B38075A72043B3A7
:1022DB00408FA72275A72053BAFD43BA0275A710EA
:1022EB0053987F3275AE86E5AE20E7FBAFAF227514
:1022FB00AE82E5AE20E7FBAFAF2275AE84E5AE2034
:10230B00E7FBAFAF2275AE8EE5AE20E7FBAFAF229A
:10231B0075AE91E5AE20E7FBE5AFA2E42275AE9179
:10232B00E5AE20E7FBE5AFA2E22275AE91E5AE206C
:10233B00E7FBE5AF132275AE91E5AE20E7FBE5AF0A
:10234B00A2E122120AE075AE1175AF08E5AE20E7E7
:10235B00FB75AE91E5AE20E7FBE5AF20E3F375AE81
:10236B001175AF08E5AE20E7FB75AE91E5AE20E742
:10237B00FBE5AF20E3F322120AE075AE1475AF1044
:10238B00E5AE20E7FB75AE94E5AE20E7FBE5AF20AD
:10239B00E4F375AE1475AF10E5AE20E7FB75AE94A4
:1023AB00E5AE20E7FBE5AF20E4F322900051E5A773
:1023BB00F01212D4920375A71053CEFE90005074F6
:1023CB0001F0900050E0FFC3940574809480500B93
:1023DB001212DB900050E004F080E730030675A783
:1023EB001043CE01900051E0F5A72290004D74FFF1
:1023FB00F090000BE07002A3E0600281BD9000053D
:10240B00E0541F24FE602E2402600281BD9000095F
:10241B00E07002A3E0600281BD900007E07004A3AE
:10242B00E06401600281BD121372600281BD9000F5
:10243B000104F08016121C40547FFF4E7014900064
:10244B0003E0C39404748094804007E490004DF043
:10245B008060121F4B505B900007E07002A3E0708E
:10246B0051121372704C121F8230E70791C3E5AE05
:10247B0020E7FB90000AE020E71075AE94E5AE2054
:10248B00E7FB43AF20E5AE20E7FB90000AE024FE1C
:10249B006010248160111460132481701590002842
:1024AB00800D90002F800890001A800390002174FB
:1024BB0006F090004DE0FF2275AE1175AF10227F34
:1024CB00FF900009A3E0FE900007A3E0FDEE91FB57
:1024DB00501D121372701890000BE07002A3E07085
:1024EB000EED700B900005E0541F64017001FF228C
:1024FB00C394027480948022900003E091FB40050A
:10250B007F051208AE22A8051FEF600AE5AE20E793
:10251B00FBA6AF0880F2E5AE20E7FBEB4420F5AE5F
:10252B00A6AF22A805AE071FEE600BE5AE20E7FBBA
:10253B00E6F5AF0880EF228D828C831FEF600BE5F1
:10254B00AE20E7FBE5AFF0A380F1E5AE20E7FBB1F2
:10255B005EF022EB4420F5AEE5AF22A8051FEF603D
:10256B000BE5AE20E7FBE5AFF20880F1E5AE20E727
:10257B00FBB15EF2228D828C83AE071FEE600BE502
:10258B00AE20E7FBE0F5AFA380EF22A805AE071F57
:10259B00EE600BE5AE20E7FBE2F5AF0880EF228D96
:1025AB00828C83AE071FEE600CE5AE20E7FBE49355
:1025BB00F5AFA380EE22900004E0FF0208AEE4FF2B
:1025CB00120AE09000137405F075AE1175AF60E55B
:1025DB00AE20E7FB22E054FB4EFEF0EF5420C45438
:1025EB000FFFEE54FD4FFFF0900078E0FE5410C348
:1025FB0013FDEF54F74D22F0EE5408C454F0FEEFE8
:10260B00547F4EF0900079E0FF5420C41322F0EE7B
:10261B005480C4540FFEEF54F74EF090007B22F51C
:10262B0082E43CF58322F0A3EDF0900056E0FEA38C
:10263B00E0FF22135401FEC374019EFEEF225440AF
:10264B00C4540FFDEF54FB4D2290001C12028ED28E
:10265B00057F022290004D74FFF0900007E022E00E
:10266B00FFC413540322FDF5828C83A322C313549E
:10267B000164012290004DE0FEA3E0229000137450
:10268B0001F0E422E0FFD39400748022AD019000AE
:04269B004FE0FB22EF
:00000001FF
