:020000040000FA
:10000000020360000022F1B3E49000A2F07F03112C
:100010002B7F01F150C2AF75A72053BAFE43BA44FB
:10002000D2AF300CFD1140C20C80EA90003AEFF0E4
:10003000F1DCE4900098F090003AE0900098F02213
:10004000900065E024FE601314601914601B240303
:100050007019900066E0FF112B8010900066E0FFA1
:10006000F15080071217F88002116DC1B422900080
:1000700098E024FE22222275D1082202088D7BFFFF
:100080007A06792912221390003AEFF02275E340A4
:0A009000222222021C3722C3222282
:10009B00021CFCE709F608DFFA8046E709F208DFE5
:1000AB00FA803E88828C83E709F0A3DFFA8032E383
:1000BB0009F608DFFA8078E309F208DFFA80708826
:1000CB00828C83E309F0A3DFFA806489828A83E060
:1000DB00A3F608DFFA805889828A83E0A3F208DF4F
:1000EB00FA804C80D280FA80C680D4806980F280FE
:1000FB0033801080A680EA809A80A880DA80E28024
:10010B00CA803389828A83ECFAE493A3C8C582C878
:10011B00CCC583CCF0A3C8C582C8CCC583CCDFE9E2
:10012B00DEE7800D89828A83E493A3F608DFF9EC7E
:10013B00FAA9F0EDFB2289828A83ECFAE0A3C8C509
:10014B0082C8CCC583CCF0A3C8C582C8CCC583CC30
:10015B00DFEADEE880DB89828A83E493A3F208DF9F
:10016B00F980CC88F0EF60010E4E60C388F0ED246F
:10017B0002B4040050B9F582EB2402B4040050AF72
:10018B0023234582239000EE73BB010689828A8369
:10019B00E0225002E722BBFE02E32289828A83E43B
:1001AB009322BB010CE58229F582E5833AF583E0C6
:1001BB00225006E92582F8E622BBFE06E92582F8E5
:1001CB00E222E58229F582E5833AF583E49322C5A1
:1001DB00F0F8A3E028F0C5F0F8E58215827002155F
:1001EB0083E038F022BB0110E58229F582E5833AE2
:1001FB00F583E0F5F0A3E0225009E92582F886F0BB
:10020B0008E622BBFE0AE92582F8E2F5F008E222B5
:10021B00E5832AF583E993F5F0A3E99322EB9FF5A8
:10022B00F0EA9E42F0E99D42F0E89C45F022E0FCAA
:10023B00A3E0FDA3E0FEA3E0FF22E0F8A3E0F9A317
:10024B00E0FAA3E0FB22ECF0A3EDF0A3EEF0A3EFBA
:10025B00F022A8828583F0D083D08212027412021E
:10026B0074120274120274E473E493A3C583C5F091
:10027B00C583C8C582C8F0A3C583C5F0C583C8C5EF
:10028B0082C822E0FBA3E0FAA3E0F922EBF0A3EA99
:10029B00F0A3E9F022BB010789828A8302028E5008
:1002AB0005E9F8020342BBFE05E9F802034B89821C
:1002BB008A83020354BB010DE58229F582E5833A5B
:1002CB00F58302028E5007E92582F8020342BBFE3A
:1002DB0007E92582F802034BE58229F582E5833A8B
:1002EB00F583020354D083D082F8E4937012740127
:1002FB0093700DA3A393F8740193F5828883E47331
:10030B007402936860EFA3A3A380DFEF4E6012EF3C
:10031B0060010EEDBB010B89828A83F0A3DFFCDE4B
:10032B00FA2289F05007F709DFFCA9F022BBFEFC8B
:10033B00F309DFFCA9F022E6FB08E6FA08E6F9224E
:10034B00E2FB08E2FA08E2F922E493FB740193FA68
:10035B00740293F922120005787FE4F6D8FD7581BB
:10036B00210203AA020006E493A3F8E493A340033B
:10037B00F68001F208DFF48029E493A3F8540724F4
:10038B000CC8C333C4540F4420C8834004F45680B4
:10039B000146F6DFE4800B01020408102040809038
:1003AB0003EFE47E019360BCA3FF543F30E5095497
:1003BB001FFEE493A360010ECF54C025E060A8405C
:1003CB00B8E493A3FAE493A3F8E493A3C8C582C853
:1003DB00CAC583CAF0A3C8C582C8CAC583CADFE928
:1003EB00DEE780BE4100B804410098014100A20045
:1003FB004100A100C108C10AC107C1094800990009
:10040B0000000000000000C10B4B00650000000065
:10041B00000000000000004100620041006009C1C3
:10042B000C4B0070000000000000000000000041B9
:10043B000063004100610949007B000000000000DF
:10044B00000000410064004A00A30000000000000F
:10045B00000000004800AD0000000000000000009C
:10046B0004030904011E0348616E6448656C644C07
:10047B006567656E6400010803484158000112036B
:10048B0044492057697265640005010905A101A162
:10049B0001850105091500250135004501750195FB
:1004AB000E1901290E8102950281010501250746CE
:1004BB003B0175049501651409398142650095016D
:1004CB00810126FF0046FF00093009310932093549
:1004DB0009330934750895068102C0A1010600FF96
:1004EB0009018502150026FF00750895088102C0D9
:1004FB00A1010600FF09018502150026FF00750802
:10050B0095089102C0C01201100100000040D620D6
:10051B0013A700010102000109022900010100805B
:10052B00FA09040000010300000009211101000178
:10053B00227D0007058103400002070502034000EE
:10054B0002FF046BFF046FFF0488FF0481FF05119A
:10055B00FF0523FF054C0404030904011E03486136
:10056B006E6448656C644C6567656E6400010803D6
:10057B00484158000112034E5320576972656400BD
:10058B0005010905A101150025013500450175017E
:10059B00950E05091901290E8102950281010501AC
:1005AB002507463B017504950165140939814265A0
:1005BB00009501810126FF0046FF00093009310932
:1005CB00320935750895048102750895018101057D
:1005DB000C09001580257F75089540B102C01201EA
:1005EB00100100000040D62013A7000101020001FA
:1005FB000902220001010080FA0904000001030036
:10060B000000092111010001225E00070581034052
:10061B000002FF0562FF0566FF057FFF0578FF05FA
:10062B00E9FF05FBFF061D0404030904011E034833
:10063B00616E6448656C644C6567656E64000108A7
:10064B0003484158000112035849205769726564E9
:10065B000012011001FFFFFF405E048E02720501C4
:10066B000200010902300001010080FA09040000B8
:10067B0002FF5D010010211001012481140300030E
:10068B001302000300070581032000010705020385
:10069B00200008FF0633FF0637FF0650FF0649FF11
:1006AB00065CFF066EFF069E04200B107E007F0B80
:1006BB007D007B017A0079707116D20BA20AE433AC
:1006CB005401FF900064E054FE4FFFF0A207E433A7
:1006DB005401121BC054F74EFFF0A209E43354012E
:1006EB00C454F0FEEF54EF4EFFF09000A2E0540123
:1006FB0025E0FEEF54FD4E900064F09000A1E06405
:10070B00027F0070027F01EF540125E025E0FF908E
:10071B000064E054FB4FF03009051223DCC20930B2
:10072B0007051223DCC20778707C007D017B017A00
:10073B000079647E007F01316EE4900063F09000DD
:10074B0061740BF022E490003AF0EF146007146030
:10075B004E8000807C9000A2E06401604A116E60C4
:10076B001914601F14602B2403703C7BFF7A0579EE
:10077B005811847032EF702F801F117E7029EF702B
:10078B002680167BFF7A0679AA1184701AEF7017F0
:10079B008007117E7011EF700E9000A204F022E41E
:1007AB00FFF1507F01F1502290003AE5A7F0F1EDF7
:1007BB0012083B12087A1176118D11771208451227
:1007CB00085112086D12085B117590003AE0F5A7FD
:1007DB00229000A2E0600AC2081222B9E49000A2A3
:1007EB00F022E4F5A77597A590003B515D00000042
:1007FB0000E47F19FEFDFC90003B120245C3120280
:10080B0028501C0090003B120239EF2401FFE43EFC
:10081B00FEE43DFDE43CFC90003B12025180D2A271
:10082B00AF9200C2AF7597DE7597ADA20092AF2263
:10083B0075C90875A72075C6842243B180E5B154EC
:10084B0040644070F822E4F5A9E5A9548060FA22CF
:10085B00E4F5A775E60175A71075CE09F5A775A880
:10086B00802275A72075BD4543BA1843BA0222E40E
:10087B00F5A77580FE75A4012290004EEEF0A3EF54
:10088B00F022C0E0C0F0C083C082C0D075D000C0E1
:10089B0000C001C002C003C004C005C006C00712DF
:1008AB00009112201890004AEFF012202390004B79
:1008BB00EFF012202E90004CEFF012203990004DEB
:1008CB00EFF090004AE030E34B1221FA11849000D4
:1008DB0014319170049101600DEF910A700F90002B
:1008EB0013E06402700790004BE04401F090002984
:1008FB00E03193700C12244E700790004CE04402D0
:10090B00F09000303191700C122190700790004CD8
:10091B00E04404F090004AE030E203121ED3900052
:10092B004AE030E10312236290004AE030E0031208
:10093B00234C90004BE030E202D14690004BE0306C
:10094B00E102D1CB90004CE030E2031220D39000B7
:10095B004CE030E103121F0990004BE030E00271D4
:10096B002790004DE0FF319A120092D007D006D0AD
:10097B0005D004D003D002D001D000D0D0D082D08B
:10098B0083D0F0D0E032E0FFC31354016401227531
:10099B00AE0E8FAFE5AE20E7FB22C2057D01E4FF73
:1009AB0090005BEFF0A3EDF0A3120297E5AE20E70A
:1009BB00FB90005BE04420F5AE90005DE01460130B
:1009CB002403601A1460201470265119AD011222F1
:1009DB00F7801D5119AC02AD0112230B8012511976
:1009EB00AD0112232180095119AC02AD011223353F
:1009FB0030051A90005B121D274012319A75AE918B
:100A0B00E5AE20E7FB43AF01E5AE20E7FB2290000C
:100A1B005CE0FFA302028E122467900011E0FEA39C
:100A2B00E0FFC39440EE940040047F4080009000B0
:100A3B004FEFF0A3F090000DE0FF547F640170586E
:100A4B00EF91087024A312028EC2057D02E4FF31E0
:100A5B00AB90000FE475F0021201DA90004FE02426
:100A6B00FEF090000DE0547FF0E4900051F0900008
:100A7B004FE0C313FF900051E0C39F5032121ECDC5
:100A8B0031A590000F12246F7BFF7A00790331A5FB
:100A9B00900051E004F080D6121EC8C205E4FF316D
:100AAB00AB90004FE0FF90000FE48FF01201DA9053
:100ABB000014E054FBF0900050E0FFC3900012E0F4
:100ACB009FFF900011E09400FEF0A3EFF04E702218
:100ADB00900014E0C45401701975AE1175AF0AE59E
:100AEB00AE20E7FB121EC1E490000DF0900014F055
:100AFB00801C75AE1175AF02E5AE20E7FB900011BF
:100B0B00E07002A3E07007900014E054EFF03003A4
:100B1B000A900050F1CBE4FDFFF1DF2290004E7400
:100B2B00FDF0E4FF319A1220514005122044501879
:100B3B00F1BDE5AE20E7FB75AE1175AF80E5AE20DC
:100B4B00E7FB121EC1E4A3F012205E400261F1909C
:100B5B000014E0FF91097003EF61EE900013E06465
:100B6B0001707390000DF0121D8E7E007F059111A8
:100B7B0090004EEFF03395E0FEBEFF12BFFD0F90DD
:100B8B000005F1C4700812128690004EEFF0E4FFDE
:100B9B00319A90004E122401703790000BE07002D6
:100BAB00A3E0700D75AE1175AF48E5AE30E7378039
:100BBB00F9122418E5AE20E7FB900005E0FFC41303
:100BCB001313540170209101601CA3E04408F080C2
:100BDB001512236A801091017005121E3780079041
:100BEB000014E04402F0900013E06402700712203E
:100BFB006A4002512222900013E0640322C41313B3
:100C0B0013540164012290004FEEF0A3EFF0A37494
:100C1B00FDF0D13AF1C4600281FDEF9108600281D1
:100C2B00FDD13AE0541F6401600281FDA3E024FA78
:100C3B006002A166121DDF121DF1E06422705312D7
:100C4B001DE7E0FEA3E06002A166EE6002A1661262
:100C5B00006E601F80007BFF7A047994B16CB17FCA
:100C6B00947DEE9400400A7C007D7D7E007F7D802C
:100C7B001D801B7BFF7A05798BB16CB17F945EEE87
:100C8B009400400A7C007D5E7E007F5E8000B18612
:100C9B00A161121DDF121DF1E064216002A1661239
:100CAB001DE7E0FEA3E06002A166EE6002A1661202
:100CBB00006E601F80007BFF7A057935B16CB17FC8
:100CCB009409EE9400400A7C007D097E007F098028
:100CDB001D801B7BFF7A06790DB16CB17F9409EEF9
:100CEB009400400A7C007D097E007F098000B1865C
:100CFB008064D13AF1C464017061EF541F640170D8
:100D0B005A12245FFF2404B175E0FCA3E04C704B36
:100D1B008F828E83A3E024F77041D13AA3A3E0FC2A
:100D2B00A3E0FDEC64027033ED703090004FA3E054
:100D3B00FFB173E0FCA3E064014C701F8F828E83C4
:100D4B00E0910860167B017A0079B9121B7004F0F0
:100D5B00D203E4FFF156E4900051F0900051E0FF14
:100D6B002290004FE0FEA3E02406F582E43EF583DB
:100D7B002290001FE0FEA3E0FFD322900056EEF07E
:100D8B00A3EFF0C203E4FF900052EFF0A31224553F
:100D9B00900052E024FD500580007FFC2290005211
:100DAB00E0FE600812144060037FF722EE1223A5C9
:100DBB006401600AEF64057FFE70737FFB221223D0
:100DCB0081E0FCA3E0FD122496EC1223EFB17574C5
:100DDB000212248EFBEFB173E054FE4BF0900052E5
:100DEB00E014601014602524027036900014E04467
:100DFB0004F0802DD3ED9440EC940040047D4080B2
:100E0B0006900056A3E0FD1224438013900056B1C8
:100E1B007F9440EE9400AD0740027D4012243831A0
:100E2B00AB300402F1FC90005AE0F5A77F00229052
:100E3B00004FE0FEA3E0F5828E83227F02319A12EF
:100E4B0020825009F1BDE5AE30E77480F9900021A6
:100E5B00E06402706AB17C9440EE940040047F40E1
:100E6B00800012247EC3900020E09FF090001FE0D2
:100E7B009EF090001DEE8FF01201DA900022E0132D
:100E8B009203B17C9400EE94004016122476400439
:100E9B007D40800690001FA3E0FD12243831AB800B
:100EAB000D900022E054FEF09000217401F030030D
:100EBB000E1221B090001FF1D2E4FD7F02F1DF2270
:100ECB007F01319A1220825009F1BDE5AE30E77AED
:100EDB0080F990001AE064027070900018B17F9452
:100EEB0040EE940040047F40800012247EC39000AB
:100EFB0019E09FF0900018E09EF0900016EE8FF036
:100F0B001201DA90001BE0139203900018B17F944A
:100F1B0000EE9400401612247640047D408006902B
:100F2B000018A3E0FD12244331AB800D90001BE0B1
:100F3B0054FEF090001A7401F030030E1221B090A1
:100F4B000018F1D2E4FD7F01F1DF2290005312244F
:100F5B0055EF600C24FD600814600580007FFC22B7
:100F6B00EF600812144060037FF722EF1223A56491
:100F7B0001600AEF64057FFE70377FFB221223812D
:100F8B00E0FDA3E0122496CD1223EFB1757403128A
:100F9B00248EFDEFB173E054FE4DF0900058B16F0D
:100FAB00E054F7F0300402F1FC90005AE0F5A77F13
:100FBB00002275AE11E4F5AF22E0FFC413540322F7
:100FCB00E0FB7A00900011E0FFA3E0900056CFF019
:100FDB00A3EFF022900053EDF0A3EAF0A3EBF0EFB8
:100FEB0064017002D208E4FEFF2275A710E5CE1350
:100FFB002275A71043CE0122900052EFF0A3EDF023
:10100B006406700D9000A17402F0D208E4FF021F79
:10101B00FF900053E0FF7E00640170069000A10476
:10102B00F022EF64054E6004EF4E7007C208E490A7
:10103B0000A1F022900050EFF0900003E0900051DF
:10104B00F031CB400A900050E031CC500231D390BC
:10105B000050E0FD64057006A3E0900004F09000E2
:10106B0050E0FE900003F0900051E0FF6E60021123
:10107B00032290004F74FFF0900007E0707991FE0F
:10108B00707590000BE07002A3E0706B900009E0AC
:10109B007002A3E07061D10C702A51074E600A31C7
:1010AB00BFFDEF6D7001EE704E517C31BFFF9000B4
:1010BB0007E0B4000DA3E0B50708D20331087F06A3
:1010CB00113F802E9140702F51074E600D31BFFDA7
:1010DB007C00EFB50521ECB5061D517C900007E0B7
:1010EB007002A3E070087F04113F31D38004C20368
:1010FB003108E490004FF090004FE0FF22300308DE
:10110B0090001A740112240AD20431B67F013129DE
:10111B00D20431B67F0231B27F0131B27F02AE070A
:10112B00E4FB12099A300513A8067E0074100880A0
:10113B0005C333CE33CED8F9FF8013AF067E0074D0
:10114B0020A807088005C333CE33CED8F9FFD3EDE3
:10115B009FEC9E5004EB4480FB300604EB4440FBB9
:10116B0030041EEB4420FB3005034404FB1224180F
:10117B00E5AE20E7FB75AE128BAFE5AE30E727800F
:10118B00F975AE1475AF80E5AE20E7FB75AE15AF04
:10119B00038FAFE5AE20E7FB20050B75AE12E4F530
:1011AB00AFE5AE20E7FB223129C204D205C2067D92
:1011BB00407C002290003412028E9000050201AD9B
:1011CB00C394057480948022900053E5A7F0120F0E
:1011DB00F592031222C29000527401F0900052E07B
:1011EB00FF31CB500A51C3900052E004F080ED3038
:1011FB000303120FFC900053E0F5A722900007E0C9
:10120B00FEA3E0FF2290004F74FFF05107C39480C0
:10121B00EE9400505690000BE07002A3E0704C91DE
:10122B00FE7048900009E07002A3E0703E9000034E
:10123B00E06403700AEF4E60187F04113F8012D1F7
:10124B000C7013900007E07002A3E070047F031191
:10125B003FE490004FF01223FE7010F5AE900007A4
:10126B00A3E04480F5AFE5AE20E7FB90004FE0FF35
:10127B0022900007A3E0900000F022E4FF9000060C
:10128B00E01202F012AE0012B00112B20312B4055A
:10129B0012B60612B80812BA0912BC0A12BE0B001B
:1012AB000012C0614BA13281474110C19FC1130194
:1012BB007DC166A1057FFF22900054EFF0E4900002
:1012CB0057F0A3E5A7F0900054E0600431CB400841
:1012DB0090005774FCF08056120FF592041222C244
:1012EB00900054E012242CFEAF01A3F0A3EFF08E7C
:1012FB008312241F6038900054E024FE600E1460AB
:10130B0012146013240370147F0180027F021220D9
:10131B008F80097F0180027F021221C69000551237
:10132B0023F6120D757401F0EF120D73E4F0300417
:10133B0003120FFC900058E0F5A7900057E0FF2236
:10134B00F1ED7004A3E0640260028131900007E0CC
:10135B007002A3E060028131900005E0FF120C08DF
:10136B0060028131D10050028131E49000BAF0A3C8
:10137B00F0EF541F14603614604424026002812184
:10138B00900009E07002A3E060028121900001E06F
:10139B00600A9000BAE04402F0A3E0F0120097500C
:1013AB00499000BAE04401F0A3E0F0803DC3900007
:1013BB000AE09402900009E09400505A802CD15E10
:1013CB00FF547F4E7006D10C7002804691407046E0
:1013DB00EF24FE60182481602114602B2481703669
:1013EB00900028E0640670029137E4802590002F6E
:1013FB00E0640670029137E4801890001AE06406EE
:10140B0070029137E4800B900021E064067002912A
:10141B0037E490004FF01223FE700B7B017A0079BA
:10142B00BA7D02FCF1A790004FE0FF229000BA04B6
:10143B00F0A3E4F022900003E0640622F1ED7002C9
:10144B00A3E0600281F891FE24FE602B240260026F
:10145B0081F8900009E07002A3E0600281F890002F
:10146B0007E07004A3E06401600281F89140707D95
:10147B0090000104F0800CD15E547FFF4E700BD1B5
:10148B00004007E490004FF08063122486505E907A
:10149B000007E07002A3E07054914070501223C813
:1014AB0030E70B75AE1175AF10E5AE20E7FB900082
:1014BB000AE020E71075AE94E5AE20E7FB43AF20C2
:1014CB00E5AE20E7FB90000AE024FE60102481606B
:1014DB001114601324817015900028800D90002F3B
:1014EB00800890001A80039000217406F090004F42
:1014FB00E0FF22900005E0541F227FFF900009A31C
:10150B00E0FE900007A3E0FDEE12235A5018914025
:10151B00701490000BE07002A3E0700AED7007915D
:10152B00FE64017001FF22F1ED7002A3E06002A1E5
:10153B00FA91FE24FE602D24026002A1FA900009AC
:10154B00E07002A3E06002A1FA900007E07004A330
:10155B00E064016002A1FAD1005002A1FAE490000C
:10156B0001F08019900007E07002A3E06002A1FA7D
:10157B00D15E547FFF4E700BD1004007E490004FBB
:10158B00F0806C1224865067914070631223C83030
:10159B00E708122418E5AE20E7FB90000AE020E7ED
:1015AB001875AE94E5AE20E7FB53AFDFE5AE20E751
:1015BB00FB43AF80E5AE20E7FB90000AE024FE6022
:1015CB00122481601514601C2481702312244E6038
:1015DB001E80191221906017801290001AE064028D
:1015EB00600D8008900021E0640260037401F090AC
:1015FB00004FE0FF22900003E0C3940474809480BA
:10160B0022900003E06404227FFF900009E0700247
:10161B00A3E0703E900007E07002A3E070349000EE
:10162B000BE07004A3E064017028900005E0FE124B
:10163B000C08701EEE541F7019D10C70087BFF7ACA
:10164B00007903800A914070097B017A007900F1DF
:10165B00DDFF22900009E0FEA3E022D15EFF7DFFBB
:10166B00C39402EE94005029A3E07004A3E064013C
:10167B00701F900007E07002A3E07015900005E06A
:10168B006481700D914070097BFF7A007903F1DD65
:10169B00FDAF0522E4FDFC90005374FFF0900005B4
:1016AB00E064806002E1A1900007E0FAA3E0900003
:1016BB004FF0EAFFE46002E17EEF24FE6024146049
:1016CB004424026002E17E90004FE06002E17E90D4
:1016DB000031F1E490003112028E1201947C00FD76
:1016EB00E17E90004FE06002E17E900034F1E490E7
:1016FB00003412028E9000021201F0FAE5F0FFEABC
:10170B00FCEFFD806E90003712028E90004FE0FFD1
:10171B0075F003A4F58285F0831202C0F1E7EF7038
:10172B000CFC7D0490000DE05480F08046D15EFFF0
:10173B004E600AEF64097003EE6404703690000289
:10174B00E0FF90004FE0C39F5029A312028E900040
:10175B00011201AD7C00FD120194547FFF90000D2E
:10176B00E054804FFFF090005112246FEF448090B3
:10177B00000DF0ED4C601F90000BE0FEA3E0FFC3EB
:10178B009DEE9C5004AC06AD0790005012028EF1FA
:10179B00A7E4900053F0900053E0FF22900013E079
:1017AB006401702D90000E120297900011ECF0A3C3
:1017BB00EDF0A37402F0E4A3F0ED543F701390002E
:1017CB000BE06C7003A3E06D6007900014E0441015
:1017DB00F0227D01FCF1A7E42212028E9000500250
:1017EB00029790004F74FFF090000BE0229000A145
:1017FB00E064027025787B7C007D017B017A0079A7
:10180B0066FE7F0912016E12006E600A14600914E5
:10181B006008800001B78003316C2230087871AA10
:10182B00718FC4135407FE9000AD51B671B2FF9087
:10183B0000AD71E211AF71C89000AD71BC54DF11F6
:10184B00AFFE5402316554BF4DFF9000AD71F09067
:10185B0000AE314954DF4DFF9000AE11A271D5900F
:10186B0000AE71989000B0F090007FE09000B1F066
:10187B00900080E09000B2F0900081E09000B39176
:10188B000A51CF9000AFEFF0C2087B017A0079AD1F
:10189B0071707408717722F0EE540233333354F8BD
:1018AB00FEEF54EF4EFFF090007CE0222008022167
:1018BB004871AAF09000A3718FC4135407FE9000D7
:1018CB00A451B671B2FF9000A471E211AF71C89030
:1018DB0000A471BC54DF11AFFE5402316554BF4DEF
:1018EB00FF9000A471F09000A5314954DF4DFF909B
:1018FB0000A511A271D59000A571989000A7F0904A
:10190B00007FE09000A8F0900080E09000A9F0909C
:10191B000081E09000AAF0900082E09000ABF09084
:10192B000083E09000AC910A51CF9000A6EFF0C27B
:10193B00087B017A0079A37170740A717722E054E5
:10194B00FE4EFEF0EF5410131313541FFFEE54FD15
:10195B004FFFF090007DE0FE5401C43354E0FDEFE7
:10196B0022200802417CE4900084F0A37414718F50
:10197B001313543FFE900087E054DF4EFEF0EF54FC
:10198B0020C313FFEE54EF51C6541033333354F8C6
:10199B00FDEF547F71875440FEEF54BF11AFFE54DF
:1019AB0001FDEF54FE71875404C313FEEF54FD4E3B
:1019BB00F090007CE0FF30E10890008874FFF0802D
:1019CB0008900082E0900088F0EF30E308900089E7
:1019DB0074FFF08008900083E0900089F090007C09
:1019EB00E0FF5410FE900086E054EF4EFEF0EF54F3
:1019FB0020FFEE54DF4F11B0FE5440FDEF54BF718A
:101A0B007F5480FEEF547F71A3FF7E0051819000C5
:101A1B008AEEF0A3EFF090007F517D90008CEEF0FA
:101A2B00A3EFF0900080517D90008EEEF0A3EFF0CD
:101A3B00900081517D900090EEF0A3EFF090007B31
:101A4B00E0FF5401FE900086E054FE4EFEF0EF5492
:101A5B000251C25408FDEF54F7717F5404FEEF544A
:101A6B00FB4EF0C2087B017A00798471707414719B
:101A7B007722E0FF7E00EF2481FFAD07ED7F00FEB4
:101A8B00D3EF94FDEE648094FF40067C7F7DFD8058
:101A9B0015C3EF9403EE6480940050067C807D03A5
:101AAB008004AC06AD07AE04AF0522E054FB4EFE3E
:101ABB00F0EF5420C4540FFFEE54FD4FFFF0900095
:101ACB007BE0FE2254012E90003BF0FBE4FFEF1471
:101ADB00604380007E08ED640270137E02716770B4
:101AEB00031E8075E5824583706F7E03806BED70FE
:101AFB00137E06716770030E805FE5824583705914
:101B0B007E05805571677003FE804EE582458370BC
:101B1B00487E048044E4FEED640270137E0371671B
:101B2B0070031E8034E5824583702E7E04802AED7F
:101B3B0070157E07EBFD7C00640270030E801AEDBE
:101B4B004C70167E068012EBFD7C00640270047EE6
:101B5B00018006ED4C70027E05AF0622EBF5827517
:101B6B008300640222900056E4F0A322F0D2037F9C
:101B7B0001020D924DFF900086F0EE224DFF90007A
:101B8B0087F0EE22F090007BE0FF548022F0EE54C1
:101B9B0080C4540FFEEF54F74EF090007EE022907D
:101BAB00003A7401F0A3225410C313FDEF54F74D08
:101BBB0022F0EE540433333354F8FEEF22FE54017B
:101BCB00C454F0FDEF54EF4DFF22FE5440C4540FAC
:101BDB00FDEF54FB4DFF22F0EE5440C4131354039E
:101BEB00FEEF54FE22F0EE5408C454F0FEEF547F87
:101BFB004EF090007CE0FF5420C4135407FE22F0FB
:101C0B0090007BE0FF13135401FEC374019EFEEFA3
:101C1B0013131354012E90003AF0FD90007BE0FF5C
:101C2B00C3135401FEC374019EFEEF22C0E0C083B8
:101C3B00C082C0D075D000C000E5B9540F1202F0BD
:101C4B001C7A011C91021C9B041C64091C700A1C4D
:101C5B00960C1C960D00001C9E53B9F6900063E485
:101C6B00F091E8802E53B9F5900062E4F08024E502
:101C7B00B954106410700553B9EF8005900063914F
:101C8B00E853B9FE800D53B9FD800853B9FB804270
:101C9B0053B9FBE5AB54047036900062E02465F554
:101CAB0082E43400F583E5BCF0900062E0700690AE
:101CBB000060740AF0900062E004F0900060E014A1
:101CCB00F0E070CF200CCCD20C900062F080C453AB
:101CDB00B9DFD000D0D0D082D083D0E032E02470F6
:101CEB00F582E43400F583E0F5BB900063E004F08B
:101CFB002275A72053BAFD43BA0275A71053987FDC
:101D0B00329000B5B127400CEF25E0FEE433A3F091
:101D1B00A3CEF022E49000B6F0A3F022E0FFD39420
:101D2B00007480948022900051EFF09000531202C7
:101D3B0097900052EDF0B1294040E5AE20E7FB90C3
:101D4B000051E0FE44E0F5AE900053E01460152422
:101D5B0003601D24FE7023900052120A1CAD01ABD0
:101D6B00060222DA900052120A1CAC02B186C11391
:101D7B00900052120A1CB186B1F922AD01900051AC
:101D8B00E0FB2290004F7400F0A37405F012245F67
:101D9B00AA06F97B017D08E4FFB131120E3AA3A329
:101DAB00B1D6B1F1EEF0A3EFF0ED2404B1D0FDB15B
:101DBB00E8EEF0A3EFF0ED2406B1D02406B1EAEE85
:101DCB00F0A3EFF022F582E43CF583E0FCA3E0FA0C
:101DDB00ECFFEAFE90004FE0FCA3E022ED2404F5BB
:101DEB0082E43CF58322FDF5828C83A3A322A80514
:101DFB001FEF600BE5AE20E7FBE5AFF20880F1E5E6
:101E0B00AE20E7FBD12FF2228D828C831FEF600B6C
:101E1B00E5AE20E7FBE5AFF0A380F1E5AE20E7FBF5
:101E2B00D12FF022EB4420F5AEE5AF22122467123E
:101E3B00207790004FEFF0C3900012E09F900011BD
:101E4B00E09400500FD1C1A3E04402F09000507415
:101E5B00F2F0804ED1C8E4FFB13190004FE0FFFDAE
:101E6B007C0090000FF103C3900012E09DFD9000E9
:101E7B0011E09CFCF0A3EDF0E4900050F0ED4C7001
:101E8B0019EF6440601475AE1175AF48E5AE20E7ED
:101E9B00FBD1C1A3E054FEF08008122418E5AE205C
:101EAB00E7FB300310900050E0FD90004F120FCB7A
:101EBB00E4FF120FDF229000137401F02290004F09
:101ECB00E0FD90000E02028ED1C190001A74061232
:101EDB00240A75AE0F75AF8FE5AE20E7FB1222C952
:101EEB00E5AE20E7FB75AE0B75AF0FE5AE20E7FB5C
:101EFB007F0312103F020096EC8DF00201DAC20351
:101F0B007F0112099A1220C6501475AE94E5AE20CB
:101F1B00E7FB53AFBFE5AE20E702E1C680F7122126
:101F2B009F4002E1C6F1F8F012244E6007F1CA742B
:101F3B00F9F08067122197900027E09F900026E030
:101F4B009400500A900028F1C774F2F0804D900075
:101F5B002312028E7F01B1319000291221B890001B
:101F6B0027E09DF0900026E09CF0900024F1039078
:101F7B000026E07002A3E06005EF6440600890006B
:101F8B00287401F0D203E490004FF075AE94E5AEE7
:101F9B0020E7FB53AFFEE5AE20E7FB900029E0FF07
:101FAB00540164017015300304EF54FEF01221ABA1
:101FBB00900026120FD27F03120FDF227401F0A3C1
:101FCB00E04402F090004F227F17AD07ED4480F5FF
:101FDB00AEE5AE20E7FBAFAFEF7F00FEED14448024
:101FEB00F5AEE5AE20E7FBADAFEF4DFF22F1D390A1
:101FFB00004EEF22EF600EC3748094805007E49084
:10200B0000B5F080059000B5EFF0021D0C75AE86A3
:10201B00E5AE20E7FBAFAF2275AE82E5AE20E7FB66
:10202B00AFAF2275AE84E5AE20E7FBAFAF2275AE46
:10203B008EE5AE20E7FBAFAF2275AE91E5AE20E7A4
:10204B00FBE5AFA2E42275AE91E5AE20E7FBE5AF71
:10205B00A2E22275AE91E5AE20E7FBE5AF13227548
:10206B00AE91E5AE20E7FBE5AFA2E12275AE96E5BA
:10207B00AE20E7FBAFAF2275AE91E5AE20E7FBE5F7
:10208B00AFA2E52211BF75AF08E5AE20E7FB75AE39
:10209B0091E5AE20E7FBE5AF20E3F375AE1175AF2D
:1020AB0008E5AE20E7FB75AE91E5AE20E7FBE5AFAB
:1020BB0020E3F32212099A75AE112275AE94E5AEA8
:1020CB0020E7FBE5AFA2E622C2037F0212099A11B9
:1020DB00C6501475AE94E5AE20E7FB53AFBFE5AE2B
:1020EB0020E702218F80F7319F4002218F121FF8CA
:1020FB00F031906008121FCA74F9F0806831979024
:10210B00002EE09F90002DE09400500B90002F12BA
:10211B001FC774F2F0804E90002A12028E7F0212BB
:10212B001D3190003031B890002EE09DF090002DC5
:10213B00E09CF090002B121F0390002DE07002A387
:10214B00E06005EF6440600890002F7401F0D2034B
:10215B00E490004FF075AE94E5AE20E7FB53AFFE75
:10216B00E5AE20E7FB900030E0FF540164017014F2
:10217B00300304EF54FEF031AB90002D120FD27FE1
:10218B0004120FDF2290002FE064032290004EE038
:10219B00FDFFC32275AE94E5AE20E7FBE5AF13223E
:1021AB0090004FE0FD90004EE0FB7A0022E054FDE2
:1021BB00F090004EE0FFFD7C00C32212099A75AE31
:1021CB001475AF10E5AE20E7FB75AE94E5AE20E7D6
:1021DB00FBE5AF20E4F375AE1475AF10E5AE20E769
:1021EB00FB75AE94E5AE20E7FBE5AF20E4F3227F71
:1021FB000D021FD5AFA7121EC175A72043B3807563
:10220B00A72043B3408FA72290003B120297900068
:10221B003EE5A7F051C2120099E4FFEFC3943A7464
:10222B00809480500F74002FF582E43400F583E422
:10223B00F00F80E751A81202A090003151A5900039
:10224B00031202C090003451A59000061202C090F8
:10225B00003751A59000091201AD900002F051D04A
:10226B0043B32075A72053B57F75AE0175AF08E555
:10227B00AE20E7FB75AE0B75AF0FE5AE20E7FB317C
:10228B00FF9000037403F0120FFC90003EE0F5A7E3
:10229B0051C9E5AE20E7FB7F002212029790003B6D
:1022AB0002028EAFA775A72053B37F8FA72251C20F
:1022BB0051AEE4FF02103F75A71053CEFE2275AE50
:1022CB000175AF012275A72053B5F875A72022A879
:1022DB00051FEF600AE5AE20E7FBA6AF0880F2E52D
:1022EB00AE20E7FBEB4420F5AEA6AF22A805AE0768
:1022FB001FEE600BE5AE20E7FBE6F5AF0880EF22A3
:10230B008D828C83AE071FEE600BE5AE20E7FBE002
:10231B00F5AFA380EF22A805AE071FEE600BE5AE6D
:10232B0020E7FBE2F5AF0880EF228D828C83AE07AE
:10233B001FEE600CE5AE20E7FBE493F5AFA380EE58
:10234B0022900003E0715A40057F0512103F22C313
:10235B0094027480948022900004E0FF02103FE40A
:10236B00FF12099A9000137405F075AE1175AF60EA
:10237B00E5AE20E7FB22120FF5920475A71053CEA2
:10238B00FE90005312028E900058E0FEA3E0FFF582
:10239B00828E831202979000562275F007A4240EAA
:1023AB00F9740035F0FEAF01900058F0A3EFF08EFA
:1023BB00832405F582E43583F583E0FF2290004FFB
:1023CB00F0900009A3E0547FFF12099A90000AE0F5
:1023DB002278717C007D017B017A0079997E007FE8
:1023EB000902016EF0A3EDF0900058E0FEA3E0FFB0
:1023FB0024052290004FE0FF3395E0FEEF4E22F0D4
:10240B00900021F0900028F090002FF02275AE1173
:10241B0075AF40222405F582E43583F583E0640132
:10242B002275F007A4240EF9740035F02290001CDD
:10243B0012028ED2057F022290001512028ED20557
:10244B007F0122900028E064032212029790005A29
:10245B00E5A7F02290004FE0FEA3E022900014E0ED
:10246B0013920322E475F0010201DAD3EF9440EEEC
:10247B0094002290004EEFF07E0022C3EF9405EE05
:10248B00940022F0A203E4335401228F828E83A3A3
:03249B00A3A322D6
:00000001FF
