:020000040000FA
:1000000002029A0117000115000116000118000AEA
:100010006200000000000000000000016000015EBE
:1000200009C106046C00000000016100015F0407C3
:100030007000000000000000080800000000000040
:100040000000C107202021FFFFFF0000000000008A
:1000500000000000000000000000000000000000A0
:1000600000000000000000000000B10EC201D2023A
:10007000C2037D407C0022228F552202103FC39490
:1000800005748094802278AB860308E6FA08E6F9C6
:10009000222222021A908F55222222021B38E709BF
:1000A000F608DFFA8046E709F208DFFA803E888228
:1000B0008C83E709F0A3DFFA8032E309F608DFFA60
:1000C0008078E309F208DFFA807088828C83E30984
:1000D000F0A3DFFA806489828A83E0A3F608DFFA5E
:1000E000805889828A83E0A3F208DFFA804C80D2AC
:1000F00080FA80C680D4806980F28033801080A628
:1001000080EA809A80A880DA80E280CA803389827F
:100110008A83ECFAE493A3C8C582C8CCC583CCF02B
:10012000A3C8C582C8CCC583CCDFE9DEE7800D89D2
:10013000828A83E493A3F608DFF9ECFAA9F0EDFBD9
:100140002289828A83ECFAE0A3C8C582C8CCC58321
:10015000CCF0A3C8C582C8CCC583CCDFEADEE8807A
:10016000DB89828A83E493A3F208DFF980CC88F0EC
:10017000EF60010E4E60C388F0ED2402B40400501D
:10018000B9F582EB2402B4040050AF232345822347
:100190009000EE73BB010689828A83E0225002E759
:1001A00022BBFE02E32289828A83E49322BB010CF4
:1001B000E58229F582E5833AF583E0225006E925B8
:1001C00082F8E622BBFE06E92582F8E222E58229D2
:1001D000F582E5833AF583E49322BB0110E5822999
:1001E000F582E5833AF583E0F5F0A3E0225009E9D2
:1001F0002582F886F008E622BBFE0AE92582F8E2AD
:10020000F5F008E222E5832AF583E993F5F0A3E906
:100210009322EB9FF5F0EA9E42F0E99D42F0E89CC4
:1002200045F022BB010789828A8302027C5005E9DE
:10023000F8020273BBFE05E9F802028589828A830F
:1002400002028EBB010DE58229F582E5833AF58332
:1002500002027C5007E92582F8020273BBFE07E91F
:100260002582F8020285E58229F582E5833AF58345
:1002700002028EE6FB08E6FA08E6F922E0FBA3E0BC
:10028000FAA3E0F922E2FB08E2FA08E2F922E49399
:10029000FB740193FA740293F9221219F6787FE441
:1002A000F6D8FD7581B00202E4020AC9E493A3F80E
:1002B000E493A34003F68001F208DFF48029E4937D
:1002C000A3F85407240CC8C333C4540F4420C88374
:1002D0004004F456800146F6DFE4800B0102040876
:1002E00010204080900003E47E019360BCA3FF5483
:1002F0003F30E509541FFEE493A360010ECF54C0C4
:1003000025E060A840B8E493A3FAE493A3F8E4934B
:10031000A3C8C582C8CAC583CAF0A3C8C582C8CA53
:10032000C583CADFE9DEE780BE04030904011E03BA
:1003300048616E6448656C644C6567656E64000175
:10034000080348415800012A034E53572077697229
:10035000656420636F6E74726F6C6C65720005016A
:100360000905A10115002501350045017501950E0E
:1003700005091901290E8102950281010501250750
:10038000463B017504950165140939814265009564
:1003900001810126FF0046FF0009300931093209B9
:1003A00035750895048102750895018101050C09D0
:1003B000001580257F75089540B102C0120110011B
:1003C00000000040D62013A700010102000109022D
:1003D000220001010080FA0904000001030000006E
:1003E000092111010001225E00070581034000047C
:1003F000FF0329FF032DFF0346FF033FFF03BCFF5D
:1004000003CEFF03F00485A759B1FC9204F19B755C
:100410005801C3E558117F5008AF58B19005588076
:10042000F1300402F1818559A7228F56787AE6F5DA
:1004300057117E4007EF117F50029106E556640583
:100440007004787BA657787AA656E55765566006FD
:10045000AD56AF57F1B4227546FF787EE660028153
:10046000E2787CE6541F707A7883E6184670731839
:10047000E61846706D787AE664047031F178600DA4
:10048000118690000531AD6F7001EE7055787FE6F2
:100490007877F6118690000531AD787F6670021886
:1004A000E6703CD20091E57F06912A8032787AE6A8
:1004B0006406702EF178600E118690000531ADB59E
:1004C0000720E4B5061C787FE67877F6787FE61893
:1004D0004670087F04912A91068004C20091E5E4E9
:1004E000F546AF4622300010789176017898760173
:1004F000789F760178A67601D201116E7F01B10E48
:10050000D201116E7F02116A7F01116A7F02AE076C
:10051000E4FBF190300213A8067E007410088005F9
:10052000C333CE33CED8F9FF8013AF067E007420DC
:10053000A807088005C333CE33CED8F9FFD3ED9F8B
:10054000EC9E500343038030030343034030011CFF
:10055000430320300203430304F1F1E5AE20E7FB3F
:1005600075AE128BAFE5AE30E72580F975AE147528
:10057000AF80E5AE20E7FB75AE158BAFE5AE20E7AB
:10058000FB20020B75AE12E4F5AFE5AE20E7FB22CF
:100590008F5AE4F55C85A75DEF6004117E40057518
:1005A0005CFC804DB1FC9205F19BE55A75F007A407
:1005B0002485F9895BE55B2405F8E664016032E592
:1005C0005A24FE600E146012146013240370147F0A
:1005D0000180027F021208D080097F0180027F0221
:1005E000120A95E55B2405F87601E55B2406F8E43C
:1005F000F6300502F181855DA7AF5C2275A710E595
:10060000CE13228F488B498A4A894B85A74FE548EC
:1006100024FD500580007FFC22E548600A787AE6D8
:10062000640660037FF722E548121BA7600AEF64A7
:10063000057FFE70597FFB22F1F87602121BBAE5A6
:100640004814600F14602424027039788BE6440447
:10065000F68031F188940040047D408004AF4DADB8
:1006600007788C1188D2027F018016F188940040AF
:10067000047D408004AF4DAD0778931188D2027F8E
:1006800002120DC0300102F181854FA77F0022E4E4
:10069000FDFC754AFF787CE664806002E175787E37
:1006A000E6FE08E6F546EEFFE46002E157EF24FEC1
:1006B000602014603A24026002E157E5466002E1DE
:1006C0005778A811888B478A48F54931947C00FDFA
:1006D000E157E5466002E15711868B478A48F549A4
:1006E00090000231DAFAE5F0FFEAFCEFFD8068786D
:1006F000AE118875F003E546A4F58285F083514379
:100700008B478A488949E546700BFC7D047884E66E
:100710005480F680427880F17A600AEF64097003B1
:10072000EE64047032E546C3787996502AAB47AA46
:1007300048A94990000131AD7C00FD3194547FFF00
:100740007884E654804FFFF674012549F549E43575
:1007500048F548EF4480F6ED4C601A7882F1ADED33
:100760009FEC9E4004AC06AD07AB47AA48A94912CE
:100770001741E4F54AAF4A22787EE6FE08E6FF4ECE
:100780002275A71043CE0122D3E54D9440E54C22BB
:1007900075AE0E8FAFE5AE20E7FB2275A71053CEE6
:1007A000FE22F19B12095CE4FF812A7896E6FE089E
:1007B000E6FFD3228F58ED64067003FFF1BF22EFEE
:1007C000600A12102A500575100280028F10D3E5BE
:1007D00010940074809480400CE51075F004A4F52A
:1007E0001285F01122E4F511F51222787BE6FF81E3
:1007F0002A75AE1175AF4022B1FC920175A7105356
:10080000CEFEAA4AA94BA84EA64908A60208A601F0
:10081000E54E2403F8A64C08A64DE54E2405F82223
:10082000AFA7788A760175A72043B38075A72043C8
:10083000B3408FA7228B568A57895885A75912072C
:100840009B120077E4FFEFC3943A748094805009C0
:1008500074772FF8E4F60F80ED11C912022378A8FF
:1008600011C190000312024378AB11C1900006122F
:10087000024378AE11C19000091201AD7879F67586
:10088000A72053B5F875A72043B32075A72053B50B
:100890007F75AE0175AF08E5AE20E7FB75AE0B7551
:1008A000AF0FE5AE20E7FB1120787A7603120781BF
:1008B0008559A775AE0175AF01E5AE20E7FB7F0056
:1008C00022A60308A60208A601AB56AA57A95822D9
:1008D00012079075AE1175AF08E5AE20E7FB75AE57
:1008E00091E5AE20E7FBE5AF20E3F375AE1175AF00
:1008F00008E5AE20E7FB75AE91E5AE20E7FBE5AF7E
:1009000020E3F322E4F555FEEF1460238000E518A0
:1009100070207BFF7A0379FC1135AE07EEFD7C0079
:100920006005755501800BED4C7007D28080031275
:1009300007A285626C85556DE4F561755F0222E55D
:100940006214600D14600E14600D8000AF6302002D
:1009500096AF6380AF8010AF63020078AFA775A732
:100960002053B37F8FA72278707C007D007B007AB4
:100970000079637E007F0712016EE5181460048021
:1009800000318422E570518DE50854FB4FF508E5F0
:10099000705440C4135407FFE50854FD4FF508E5B3
:1009A0007054201313543FFFE50854F74FF508E542
:1009B000705410C4540FFFE50854FE4FF508E5715C
:1009C0005480131313541FFFE50854EF4FF508E547
:1009D000715440C313FFE50854DF4FF508E5715427
:1009E0002025E0FFE50854BF4FF508E571541033AA
:1009F000333354F8FFE508547F4FF508E57154018F
:100A0000FFE50954FE4FF509E5715402FFE509546D
:100A1000FD4FF509E571540433333354F8FFE5090C
:100A200054DF4FF509E571540825E0FFE50954EF5F
:100A30004FF509E572518DE50954FB4FF509E57253
:100A40005440131313541FFFE50954F74FF509855C
:100A5000730B85740C85750D85760EAF70EF1313CF
:100A60005401FFC374019FFFE57054012FFFAE7066
:100A7000EEC3135401FEC374019EFEAD70ED13135B
:100A80001354012EFD121B5F8F0AD207225480C41B
:100A9000135407FF2212079075AE1475AF10E5AE20
:100AA00020E7FB75AE94E5AE20E7FBE5AF20E4F36D
:100AB00075AE1475AF10E5AE20E7FB75AE94E5AEEC
:100AC00020E7FBE5AF20E4F32251E5C280C2AF7519
:100AD000A72053BAFE43BA44D2AF3006FDB29431D8
:100AE0003FC20680E885A7551219F7121A42121A5A
:100AF00086120092121A75121A49121A4D121A59B8
:100B0000121A79121A631200918555A7228B498A0D
:100B10004A894B85A74FEF600C24FD6008146005DF
:100B200080007FFC22EF600A787AE6640660037F2B
:100B3000F722EF121BA7600AEF64057FFE70197F92
:100B4000FB221207F87603121BBA54F7F6300103A2
:100B5000120781854FA77F00228F467547FDA807A2
:100B6000E6FFC4135403600261E8EF91B17079E6C7
:100B7000541F64017072E804F8E624FA600281AB45
:100B8000E5462402F9E76422702791C1E6600281FC
:100B9000ABEE600281AB7BFF7A03795E91CA745E33
:100BA0009FE49E500A7C007D5E7E007F5E803380E5
:100BB00031E5462402F9E76421600281AB91C1E688
:100BC000600281ABEE600281AB7BFF7A0379E0913A
:100BD000CA74099FE49E500A7C007D097E007F094B
:100BE00080008E4C8F4D81A1A846E6FFC4135403AC
:100BF0006401600281ABEF541F6401600281ABE8C5
:100C00002405F9E71947600281ABE804F8E61460AF
:100C10003114606C24F8605304600281ABD13564F8
:100C200002600281ABAF05EF600281AB91BA640153
:100C30001947707791AE6073D141D200E4FF710D16
:100C40008066D13564017063AF05EF705E91BA6460
:100C5000081947705691AE7052FB7A007908F54C2E
:100C6000754D08C200FF120603803DE5462402F8D8
:100C700008E6703791BA1947703191AE602D80281F
:100C8000E5462403F9E71947702191BA6401194731
:100C90007019A846E6FF91B17011121B5C8F19D133
:100CA00041C200E4FF120603E4F547AF4722A8461D
:100CB000E6C41313135401640122E5462407F9E73F
:100CC00022E5462404F8E6FE0822E5462406F8E676
:100CD000FE08E6FFC322788BE6139200788891CF56
:100CE0009440EE940040047F4080008F4685464744
:100CF0007884E6FF547F64017054EF91B1701C0852
:100D0000120088C2027D02D12E740226F618E43643
:100D1000F6154615467884E6547FF6E4F548E54630
:100D2000C313FFE548C39F50387885120088C2027C
:100D30007D01D12E740126F618E436F67BFF7A0089
:100D40007968C2027D01E4FFB1C0054880D0788592
:100D5000120088C202AD46D12EE54626F618E436CA
:100D6000F6788BE654FBF6C37889E69547FF18E6DC
:100D70009400FEF608EFF64E7020788BE6C454011E
:100D8000701875AE1175AF0AE5AE20E7FB788A766C
:100D900001E47884F6788BF6801875AE1175AF0291
:100DA000E5AE20E7FB7889E618467006788BE654B6
:100DB000EFF630000AE54712138FE4FDFFF17922C8
:100DC0008F508D518B528A538954E5AE20E7FBE555
:100DD000504420F5AEE5521460132403601A1460E9
:100DE00020147026AD54AF51121959801DAC53AD6B
:100DF00054AF5112196D8012AD54AF511219838046
:100E000009AC53AD54AF51121997300220D3E550BD
:100E10009400748094804015AF5012079075AE9185
:100E2000E5AE20E7FB43AF01E5AE20E7FB22E4FFA0
:100E3000B1C0788722E5462402F8E6FC08E6FDEC1E
:100E4000227B007A007919754C00754D0122754599
:100E5000FDE4FF1207901219D040051219C3501D6E
:100E600075AE11E4F5AFE5AE20E7FB75AE1175AFD9
:100E700080E5AE20E7FB788A7601E408F61219DDFA
:100E80004002E115788BE6FF91B27003EFE1127832
:100E90008AE66401706D7884F6F1247F7CF1698FB5
:100EA00045EF3395E0FEBEFF11BFFD0E787CE6FFF7
:100EB000C41354037004F1AB8F45E4FF120790AFE5
:100EC00045EF3395E04F70367883E61846700D7520
:100ED000AE1175AF48E5AE30E73B80F91207F1E59A
:100EE000AE20E7FB787CE6FFC41313135401702592
:100EF000788AE66403601E08E64408F68017121933
:100F0000AE8012788AE66403700512153580067883
:100F10008BE64402F6788AE6640270071219E9400B
:100F20000291D62275467CA9467A007B007D08E4B2
:100F3000FF1214ECE5462402F1532402F16024046C
:100F4000F1532404F1602406F1532406F8A60608A0
:100F5000A60722F8E6FC08E6FAECFFEAFEE54622E0
:100F6000F8A60608A607E546227EFDE518146006E9
:100F700080007159AE07AF06228F498D4A8A4B8B8C
:100F80004CE5181460068000F19A801DF19A8F4F8D
:100F90008D508A518B52E4FEFF22854D53854E546D
:100FA000AB4CAA4BAD4AAF492280E3E4FF787DE623
:100FB000B40C005045900FBCF8282873020FE002D3
:100FC0000FE3020FFA020FE6020FFA020FE9020F17
:100FD000EC020FFA020FEF020FF2020FF5020FF808
:100FE0000217F00211BB0216270218DB02068F025D
:100FF00016FA02045702177480037FFF227FFF78DE
:1010000081E6FE787FE6FDEE112A501D787AE664CF
:101010000670167883E61846700FAE05EE700A78F3
:101020007CE6541F64017001FF22C3940274809413
:101030008022787AE6112A40057F0512042A22C010
:10104000E0C0F0C083C082C0D075D000C000C00135
:10105000C002C003C004C005C006C00712009AF158
:10106000B98F41F1C48F42F1CF8F43F1DA8F44E55C
:101070004130E33F3118313D788B310F700618E66F
:101080006403600DEF120CB3700A788AE664027094
:101090000343420178A0E63111700918E664037039
:1010A0000343430278A7310F700918E66403700305
:1010B000434304E54130E202317EE54130E1031271
:1010C00007EBE54130E0021132E54230E2025182A5
:1010D000E54230E10251F8E54330E202914AE5434E
:1010E00030E102719CE54230E003120E4EAF441233
:1010F0000790F1B1D007D006D005D004D003D002BC
:10110000D001D000D0D0D082D083D0F0D0E032E671
:10111000FFC31354016401227F0DAD07ED4480F538
:10112000AEE5AE20E7FBAFAFEF7F00FEED144480ED
:10113000F5AEE5AE20E7FBADAFED420722E51814B2
:10114000600480003147228E458F46121B48316D66
:101150005002D2073007157B007A007908754C00E1
:10116000754D08C2007F01120603C20722F1B2408A
:101170000BE512451170051207CED322C322788ADF
:1011800076017891760678987606789F760678A626
:10119000760675AE0F75AF8FE5AE20E7FB75AE0135
:1011A00075AF01E5AE20E7FB75AE0B75AF0FE5AE91
:1011B00020E7FB7F0312042A020099D1D760024185
:1011C00074D1CF60272402600241747881E618460A
:1011D0006002417418E66401184660024174517758
:1011E00050024174E47878F6F5464174787FE61849
:1011F0004660024174D1E0700951774005E4F5463C
:101200008072D1C7506E787AE664067067D1EB3091
:10121000E7081207F1E5AE20E7FB7881E620E71842
:1012200075AE94E5AE20E7FB53AFDFE5AE20E7FBFC
:1012300043AF80E5AE20E7FB7881E624FE6016240C
:1012400081601D1460252481702A789FE664036004
:10125000237601801F78A6E6640360187601801467
:101260007891E66402600D760180097898E6640260
:1012700060027601AF4622787AE6C39404748094C3
:1012800080227F021207907182500D75AE11E4F535
:10129000AFE5AE30E76180F97898E66402705812E5
:1012A00007AB9440EE940040047F4080008F457E61
:1012B00000C37897913A7899E61392001207AB949D
:1012C00000EE9400401A717A40047D4080047897C3
:1012D000E6FD7893120088D2027F02120DC08004CE
:1012E00078997172300010E545FB7A007896719418
:1012F000E4FD7F02120F79227F0112079071825064
:101300000D75AE11E4F5AFE5AE30E76580F9789183
:10131000E66402705C788F1207AD9440EE94004052
:10132000047F4080008F457E00C37890913A789288
:10133000E6139200788F1207AD9400EE9400401AE5
:10134000717A40047D4080047890E6FD788C12002C
:1013500088D2027F01120DC0800478927172300031
:1013600010E545FB7A00788F7194E4FD7F01120F40
:101370007922E654FEF618760122D3EF9440EE94DB
:10138000002275AE91E5AE20E7FBE5AFA2E522FBBA
:101390007A007888E6F54D08E6F54E22C2007F0116
:1013A000120790B1DC501475AE94E5AE20E7FB5304
:1013B000AFBFE5AE20E702813980F7B1D0507A9116
:1013C000E88F45789FE664036004B1C7804AC3781C
:1013D0009EB1B65009789FB1AE7546F2803A789AC0
:1013E000120088AD457F0191EC78A0B1BEC3789E14
:1013F000913A789EE618466006E5456440600678B6
:101400009F7601D200E4F54675AE94E5AE20E7FB89
:1014100053AFFEE5AE20E7FB78A0E6FF5401640180
:101420007017300004EF54FEF6E545FB7A00789D16
:101430007194AD467F03120F7922E69FF618E69E5F
:10144000F618EF26F618EE36F622C2007F021207D3
:1014500090B1DC501475AE94E5AE20E7FB53AFBFFE
:10146000E5AE20E70281E780F7B1D0507A91E88FAE
:101470004578A6E664036004B1C7804AC378A5B185
:10148000B6500978A6B1AE7546F2803A78A112003E
:1014900088AD457F0291EC78A7B1BEC378A5913A9B
:1014A00078A5E618466006E5456440600678A676AD
:1014B00001D200E4F54675AE94E5AE20E7FB53AFEC
:1014C000FEE5AE20E7FB78A7E6FF54016401701744
:1014D000300004EF54FEF6E545FB7A0078A47194E1
:1014E000AD467F04120F79227F17211A8F488D494C
:1014F0008B4A8A4B894CD3E5499400748094804090
:1015000033E5AE20E7FBE54844E0F5AEE54A14607C
:10151000112403601724FE701BAD4CAB48AF490289
:10152000193CAC4BAD4CAB48AF49C103AD4CAB48DB
:10153000AF49B1E922788BE6139200F1E58F46C3FB
:101540007889E69F18E694005009788AB1AE75470D
:10155000F2804C7885120088AD46E4FF91ECAF46EE
:101560007E0078879142C37889E69FFF18E69EFE49
:10157000F608EFF6E4F547EF4E701CE54664406070
:101580001675AE1175AF48E5AE20E7FB788A760197
:1015900008E654FEF680081207F1E5AE20E7FB30BE
:1015A000000BE546718FAD47E4FF120F79227601FB
:1015B00008E64402F622E6954518E6940022E65431
:1015C000FDF6AF457E002208E64402F67546F92294
:1015D00075AE94E5AE20E7FBE5AF132275AE94E55A
:1015E000AE20E7FBE5AFA2E622A8051FEF600BE502
:1015F000AE20E7FBE5AFF20880F1E5AE20E7FBD1D6
:101600001FF2228D828C831FEF600BE5AE20E7FB7B
:10161000E5AFF0A380F1E5AE20E7FBD11FF022EBB0
:101620004420F5AEE5AF22D1D76002C1C4D1CF606E
:101630002624026002C1C47881E618466002C1C453
:1016400018E664011846707C787AE664067075784E
:10165000787601F546806DD1E0700951774005E458
:10166000F5468060D1C7505C787FE61846705578A3
:101670007AE66406704ED1EB30E70B75AE1175AFAC
:1016800010E5AE20E7FB7881E620E71075AE94E523
:10169000AE20E7FB43AF20E5AE20E7FB7881E624F0
:1016A000FE60112481601314601624817016789FE7
:1016B0007606801078A67606800A789176068004F1
:1016C00078987606AF4622C3EF9405EE9400227810
:1016D0007CE6541F24FE227546FF7883E6184622D6
:1016E0007880E6FE08E6547FFF4E22F5467881E6D4
:1016F000547FFF1207907881E6227FFF7881E618F9
:1017000046703618E618467030F1A9702C787CE6E1
:10171000FE120CB17023EE541F701E787AE664043A
:1017200070087BFF7A007968800C787AE66406702E
:1017300008FB7A007977F13AFF227D01FCF141E460
:1017400022788AE66401702B7885A60308A6020831
:10175000A60108A60408A60508760208F6ED543F7F
:1017600070117883E66D700318E66C6006788BE67E
:101770004410F6227880E6FE08E67DFFC39402EE70
:1017800094005022F1A9701E787FE61846701778F1
:101790007CE664817010787AE6640670097BFF7AD3
:1017A000007968F13AFDAF05227883E664011846B6
:1017B0002222E510C37001D32275AE86E5AE20E784
:1017C000FBAFAF2275AE82E5AE20E7FBAFAF22756F
:1017D000AE84E5AE20E7FBAFAF2275AE8EE5AE205E
:1017E000E7FBAFAF2275AE96E5AE20E7FBAFAF22C9
:1017F0007546FF7883E66402184660030218CE78C7
:101800007FE61846600201CE787CE6FF120CB160DC
:101810000201CE121277500201CEE4F513F514EF57
:10182000541F14602314602E2402600201BF7881CB
:10183000E61846600201BF7878E6600343130211A0
:10184000D150794313018074C37881E6940218E67D
:101850009400506B80667880E6FE08E6FFAC065484
:101860007F4C700B787AE664047004F546805078FB
:101870007AE664067049EF24FE601924816023141F
:10188000602E24817039789FE66406700575130117
:10189000F514802878A6E664067005751301F51422
:1018A000801A7891E664067005751301F514800CB2
:1018B0007898E664067005751301F514E4F5461191
:1018C000D3700BFB7A0079137D02FC121741AF46EF
:1018D00022C322AF46EF3395E04F227546FF787E54
:1018E000120CCF9480EE9400504F7883E618467027
:1018F00048787CE6541F70417881E61846703A7843
:101900007AE66403700BEF4E601A7F0412042A809B
:1019100013787AE66404700F787FE6184670057FC6
:101920000312042AE4F54611D3700EF5AE787FE673
:101930004480F5AFE5AE20E7FBAF4622A8051FEFD8
:10194000600AE5AE20E7FBA6AF0880F2E5AE20E72F
:10195000FBEB4420F5AEA6AF22A805AE071FEE6054
:101960000BE5AE20E7FBE6F5AF0880EF228D828C19
:1019700083AE071FEE600BE5AE20E7FBE0F5AFA3FB
:1019800080EF22A805AE071FEE600BE5AE20E7FB57
:10199000E2F5AF0880EF228D828C83AE071FEE60E8
:1019A0000CE5AE20E7FBE493F5AFA380EE22E4FF65
:1019B000120790788A760575AE1175AF60E5AE2096
:1019C000E7FB2275AE91E5AE20E7FBE5AFA2E4228E
:1019D00075AE91E5AE20E7FBE5AFA2E22275AE91D0
:1019E000E5AE20E7FBE5AF132275AE91E5AE20E74B
:1019F000FBE5AFA2E12222E4F5A77597A5F559F51D
:101A000058F557F556E47F19FEFDFCAB59AA58A9C5
:101A100057A856C3120212501800E5592401F5596F
:101A2000E43558F558E43557F557E43556F5568002
:101A3000D4A2AF9204C2AF7597DE7597ADA204929F
:101A4000AF2275A72075C6042275D1082243B18044
:101A5000E5B15440644070F822E4F5A9E5A954804A
:101A600060FA22E4F5A775E60175A71075CE09F5B1
:101A7000A775A8802275E3402275A72075BD454350
:101A8000BA1843BA0222E4F5A77580FE75A40122B4
:101A9000C0E0C0D075D000C000C007E5B9540F1435
:101AA000602814603924FE603F24FA601524FE602B
:101AB0003214602F2404703353B9F6756100712C11
:101AC000802953B9F57560008021E5B95410641080
:101AD000700553B9EF8002712C53B9FE800D53B9D4
:101AE000FD800853B9FB803B53B9FBE5AB54047050
:101AF0002FAF6074622FF8A6BCAF60EF7010E56284
:101B000024FE60078000755E028003755E08056034
:101B1000155EAF5EEF70D42006D1D206F56080CBA3
:101B200053B9DFD007D000D0D0D0E032AF61746CB1
:101B30002FF8E6F5BB05612275A72053BAFD43BA1D
:101B40000275A71053987F32D3E5129400E51194E3
:101B5000004008E51215127002151122AF10227E06
:101B600008EF640270157E02EDFB7A0064027003D8
:101B70001E8031EB4A702D7E038029EF70157E06A2
:101B8000EDFB7A00640270030E8019EB4A70157E3B
:101B9000058011EDFB7A0064027003FE8006EB4ABB
:101BA00070027E04AF062275F007A42485F9894EE1
:101BB000E54E2405F8E6FF640122A200E433540157
:0C1BC000FFE54E2406F8E654FE4FF62226
:00000001FF
